:020000040800F2
:10000000404700205D0200080937000883320008DD
:1000100005370008810A0008894400080000000034
:100020000000000000000000000000009D0100082A
:100030009F0B000800000000F9010008653A000865
:1000400077020008770200087702000877020008AC
:10005000770200087702000877020008770200089C
:10006000770200087702000877020008770200088C
:100070007702000877020008850A00087702000866
:10008000770200087702000877020008770200086C
:10009000770200087702000877020008770200085C
:1000A00077020008613B0008770200087702000829
:1000B00077020008713B0008813B000877020008C6
:1000C000770200087702000877020008770200082C
:1000D00077020008794400087702000877020008D8
:1000E000770200087702000877020008770200080C
:1000F00077020008770200087702000877020008FC
:1001000077020008770200087702000877020008EB
:1001100077020008770200087702000877020008DB
:1001200077020008770200087702000877020008CB
:1001300077020008770200087702000877020008BB
:1001400077020008770200087702000877020008AB
:10015000770200087702000877020008770200089B
:10016000770200087702000877020008770200088B
:1001700077020008770200087702000800000000FC
:100180007702000877020008DFF80CD000F078FB57
:1001900000480047B9510008404700202C4B19681F
:1001A0000868B0E8F04F80F30988BFF36F8F4FF015
:1001B000000080F3118870470000000008480068C4
:1001C000006880F308884FF0000080F3148862B65E
:1001D00061B6BFF34F8FBFF36F8F00DF00BF00BF6B
:1001E00008ED00E0DFF80C00016841F470010160E7
:1001F000704700BF88ED00E0EFF30980BFF36F8F19
:10020000134B1A681EF0100F08BF20ED108A20E96A
:10021000F04F106009B44FF0500080F31188BFF325
:100220004F8FBFF36F8F05F07DFD4FF0000080F31F
:10023000118809BC19680868B0E8F04F1EF0100F6B
:1002400008BFB0EC108A80F30988BFF36F8F704746
:100250002C000020EFF3058070470000064880471F
:1002600006480047FEE7FEE7FEE7FEE7FEE7FEE79B
:10027000FEE7FEE7FEE7FEE74D3B000889010008C8
:100280002DE9F05F0546002092469B4688460646CB
:10029000814640241BE0284641464746224600F05E
:1002A00039FA53465A46C01A914110D3114618469E
:1002B000224600F020FA2D1A67EB01084F4622462D
:1002C0000120002100F017FA17EB00094E41201E13
:1002D000A4F10104DFDC484631462A464346BDE826
:1002E000F09F40EA01039B0703D009E008C9121FF1
:1002F00008C0042AFAD203E011F8013B00F8013BE0
:10030000521EF9D27047D2B201E000F8012B491E0B
:10031000FBD270470022F6E710B513460A460446A2
:100320001946FFF7F0FF204610BD2DE9FE4F80462D
:1003300081EA0300C00F0C46009021F0004123F039
:100340000045B8EB0200A94105D24046214690463F
:100350001C460B46024623F00040104347D0270DB1
:10036000C7F30A00C3F30A510290401A01904028D3
:100370006BDAC3F3130040F4801B0098924620B15F
:100380000023D2EB030A63EB0B0B01985946C0F133
:100390004002504600F0AFF906460D465046594619
:1003A000019A00F0C7F910EB08006141002487EAC8
:1003B000115284EAE7731A4340D0009A62B3019A5B
:1003C000012A4FEA075215DC001B61EB02014FF0D6
:1003D000004202EA0752CDE90042001C41F58011BB
:1003E00032462B4600F0FEF903B0BDE8F08F4046E0
:1003F0002146F9E7001B61EB0201001C41F5801367
:1004000000185B412018A2F5001747EB030140EAF2
:10041000D570B6196D4111E06D084FEA360645EA10
:10042000C0754FEA0752001B61EB0201001C41F549
:10043000801149084FEA30000019514132462B46DD
:1004400003B0BDE8F04F00F0BEB9009801224000B3
:100450000023D0EB020263EBE073009821464FEAE1
:10046000E074B8EB000061EB0401E9E783F00043BE
:100470005BE781F0004158E72DE9FE4F81EA030474
:1004800004F0004421F0004100944FF0000B23F0F1
:10049000004350EA01045ED052EA03045BD0C3F388
:1004A0000A54C1F30A552C44A4F2F3340194A0FB7E
:1004B0000254C1F3130141F48011C3F3130343F455
:1004C000801301FB024400FB034E840A970A44EAAE
:1004D000815447EA8357A4FB076802958D0A05FB00
:1004E00007854FEA932C04FB0C542705029D4FEA25
:1004F000065847EA1637B5EB08056EEB070C870E72
:10050000920E47EA811742EA8312A7FB0201B6EB7B
:100510000B0164EB00042B0D43EA0C335E1844EB33
:100520001C50DA465146E7FB0201C5F313044FEABB
:100530000B3343EA14534FEA0432019C43EA0603A7
:10054000A4F10C040294009CCDE900B400F04AF937
:1005500003B0BDE8F08F00200146F9E72DE9F04D2A
:1005600081EA030404F0004B21F0004514464FF0EB
:10057000000A23F0004150EA050220D054EA0102AB
:100580001DD0C5F30A570246C5F31303C1F3130088
:10059000C1F30A5640F4801543F48013A7EB060814
:1005A000101BD64608F2FD3873EB050002D308F1A4
:1005B000010801E092185B41B8F1000F03DA002056
:1005C0000146BDE8F08D00204FF4801106468446B8
:1005D0000EE0171B73EB050705D3121B63EB050336
:1005E00006434CEA010C49084FEA300092185B417F
:1005F00050EA0107EDD152EA030012D082EA04006A
:1006000083EA0501084305D0101BAB4106D2012245
:10061000002306E000224FF0004302E06FF00102E9
:1006200053101AEB06004CEB085110EB0A0041EB9B
:100630000B01BDE8F04D00F0C6B8C1F30A5210B589
:10064000C1F3130140F2FF3341F480119A4201DA01
:10065000002010BD40F233439A42A2F2334203DC41
:10066000524200F057F810BD904010BD00F000421B
:1006700030F000400AD0C10D01F56071C0F31600E2
:1006800042EA0151C2084007114370470020014669
:10069000704701F0004330B421F0004150EA0102FC
:1006A00006D00A0DA2F56072C1F31301002A02DC24
:1006B00030BC00207047440F44EAC104C100E01878
:1006C00030BC00EBC25000F047B830B50B460146D5
:1006D00000202022012409E021FA02F59D4205D3E1
:1006E00003FA02F5491B04FA02F52844151EA2F18B
:1006F0000102F1DC30BD202A04DB203A00FA02F1CD
:10070000002070479140C2F1200320FA03F31943FF
:1007100090407047202A04DB203A21FA02F00021A1
:10072000704721FA02F3D040C2F120029140084301
:1007300019467047202A06DBCB17203A41FA02F00F
:1007400043EAE07306E041FA02F3D040C2F120022E
:1007500091400843194670470029A8BF7047401CC4
:10076000490008BF20F00100704710B4B0FA80FCC7
:1007700000FA0CF050EA010404BF10BC704749B104
:10078000CCF1200421FA04F411FA0CF118BF012174
:1007900021430843A3EB0C01CB1D4FEA00614FEA54
:1007A000102042BF002010BC704700EBC350104423
:1007B0000029A4BF10BC7047401C490008BF20F0AE
:1007C000010010BC704710B5141E73F1000408DA64
:1007D000401C41F1000192185B411A4301D120F005
:1007E000010010BD2DE9F04D92469B4611B1B1FAC2
:1007F00081F202E0B0FA80F220329046FFF77BFFF0
:1008000004460F4640EA0A0041EA0B0153465A46A5
:10081000084313D0114653EA010019D0C8F1400231
:100820005046FFF777FF05460E465046594642466A
:10083000FFF761FF084305D0012004E02046394658
:10084000BDE8F08D0020054346EAE0762C433743AF
:100850000A986305E40AA0EB08000022FD0A44EAB6
:1008600047540A3002D500200146E9E70105101976
:100870006941DDE9084500196941BDE8F04DA2E78D
:10088000064C074D06E0E06840F0010394E80700DD
:1008900098471034AC42F6D3FFF77AFCB8640008EE
:1008A000D86400080EB5C10F80EAE0700844CA079A
:1008B000002140F233438DE80E000A460B46FFF755
:1008C00091FF03B000BD0EB540F23341029100210B
:1008D000CDE900110A460B46FFF784FF03B000BDC7
:1008E00070B5C1F30A5201F000450024C1F31301B1
:1008F00040F2FF3341F480119A4201DA002070BDCA
:1009000040F233439A42A2F2334203DC5242FFF7F1
:1009100001FF00E090402C43F1D0404270BD000048
:1009200055494A6822F440324A604A6843681A438B
:100930004A600268526822F4807203685A60026852
:100940005368026943EA022203685A6002685268E7
:1009500022F0407203685A600268526883681A4342
:1009600003685A600268926822F4006203689A6021
:1009700002689268C3681A4303689A603F4B826AB0
:100980009A4218D00268926822F0706203689A60F6
:1009900002689268836A1A4303689A6002689268E0
:1009A00022F0405203689A6002689268C36A1A4350
:1009B00003689A600BE00268926822F07062036834
:1009C0009A600268926822F0405203689A60026856
:1009D000926822F0020203689A6002689368027EBD
:1009E00043EA420203689A602022125CA2B10268C4
:1009F000526842F4006203685A600268526822F446
:100A0000604203685A6002685368426A521E43EAB1
:100A1000423203685A6005E00268526822F40062BC
:100A200003685A600268D26A22F470020368DA62CC
:100A30000268D36A828B521E43EA02520368DA626A
:100A40000268926822F4007203689A6002689368F0
:100A500090F8302043EA422203689A600268926864
:100A600022F4806203689A6002689368426943EAEC
:100A7000822203689A607047002301400100000F42
:100A800000BFFEE710B5024800F032FA10BD0000CA
:100A9000840400200146087810381823B0FBF3F2D4
:100AA0000848805CC865032A05D908686FF3090007
:100AB000001D886503E008686FF309008865886D8C
:100AC00070470000E0620008014600208A6A8B69D6
:100AD000CBB932B1012A0DD0022A03D0032A10D19A
:100AE0000EE000BFCB6A03F08073B3F1807F00D1CA
:100AF000012007E0CB6AB3F1C07F00D1012001E003
:100B000000E000BF34E08B69B3F5005F1AD132B169
:100B1000012A07D0022A03D0032A11D10AE000BF1C
:100B200001200EE0CB6A03F08073B3F1807F00D127
:100B3000012006E0CB6AB3F1C07F00D1012000E0C4
:100B400000BF15E032B1012A05D0022A04D0032AE1
:100B50000CD103E000BF00BF012008E0CB6A03F026
:100B60008073B3F1807F00D1012000E000BF00BF9F
:100B7000704730B50468246824F4802405682C602C
:100B8000046863608468402C04D10468A26004682F
:100B9000E16003E00468A1600468E26030BD704772
:100BA00072B600BFFEE7000038B502460020009094
:100BB00000BF92F83C00012801D1022038BD01207D
:100BC00082F83C0000BF0868092816D91068C06880
:100BD0000C780A3C04EB44050724AC40A04314689D
:100BE000E0600C780A3C04EB44048868A040146878
:100BF000E46820431468E06013E0106800690C7832
:100C000004EB44050724AC40A043146820610C7831
:100C100004EB44048868A0401468246920431468E5
:100C200020614868072817D21068406B0C79641E51
:100C300004EB84051F24AC40A0431468606308885B
:100C400080B20C79641E04EB8404A0401468646BC9
:100C500020431468606331E048680D2817D210689B
:100C6000006B0C79E41F04EB84051F24AC40A04307
:100C700014682063088880B20C79E41F04EB8404B4
:100C8000A0401468246B20431468206316E01068A9
:100C9000C06A0C790D3C04EB84051F24AC40A043D2
:100CA0001468E062088880B20C790D3C04EB84047F
:100CB000A0401468E46A20431468E062194B1A4C9F
:100CC0001068A04206D10868122803D1586840F481
:100CD00080005860144C1068A0421CD1086810288D
:100CE00002D00868112816D1586840F400005860F6
:100CF000086810280FD10D4800680D4CB0FBF4F0C7
:100D000000EB80004000009002E00098401E009040
:100D100000980028F9D100BF002082F83C0000BFF5
:100D200000BF4BE7002301400020014028000020C5
:100D300040420F0070B5044600250CB9012070BD7B
:100D40001549A06A884200D000BF206C30B9204607
:100D500000F024F80020606484F83C00206C00F06F
:100D6000100088B9206C20F4885040F00200206404
:100D70002046FFF7D5FD00206064206C20F00200C3
:100D800040F00100206400E0012500BF002084F84D
:100D90003C0000BF2846D2E70100000F10B586B026
:100DA0000446142101A8FFF7B5FA194920688842C2
:100DB0002BD100BF002000901648006840F48070DE
:100DC000144908600846006800F48070009000BF75
:100DD00000BF00BF002000900E481438006840F0AB
:100DE00001000C49143908600846006800F0010051
:100DF000009000BF00BF022001900320029000205D
:100E0000039001A9044800F067FA06B010BD000085
:100E100000200140443802400000024070B5044602
:100E2000A56D00F059FB064694F83500022808D05D
:100E30008020606500BF002084F8340000BF0120DE
:100E400070BD2068006820F01600216808602068E6
:100E5000406920F0800021684861206C08B9A06CCE
:100E600028B12068006820F0080021680860206828
:100E7000006820F001002168086010E000F02CFB01
:100E8000801B05280BD920206065032084F83500DD
:100E900000BF002084F8340000BF0320D0E72068A2
:100EA000006800F001000028E8D194F85C103F20B1
:100EB0008840A860012084F8350000BF002084F835
:100EC000340000BF00BFBBE7014691F8350002289F
:100ED00003D08020486501207047052081F8350047
:100EE0000868006820F001000A6810600020F3E73D
:100EF000F8B50446002000908C4800684FF4165165
:100F0000B0FBF1F7A56D2E6894F85C1008208840BE
:100F1000304098B12068006800F0040070B120688B
:100F2000006820F004002168086094F85C10082034
:100F30008840A860606D40F00100606594F85C1026
:100F400001208840304068B12068406900F080008E
:100F500040B194F85C1001208840A860606D40F0BA
:100F60000200606594F85C1004208840304068B14D
:100F70002068006800F0020040B194F85C10042082
:100F80008840A860606D40F00400606594F85C10D3
:100F900010208840304078B32068006800F00800D6
:100FA00050B394F85C1010208840A8602068006856
:100FB00000F4802080B12068006800F4002028B987
:100FC000206CC8B12046216C884715E0A06C98B110
:100FD0002046A16C88470FE02068006800F480700C
:100FE00028B92068006820F0080021680860206C9B
:100FF00010B12046216C884794F85C10202088406E
:101000003040002865D02068006800F010000028FB
:101010005FD094F85C1020208840A86094F83500D8
:10102000052828D12068006820F016002168086093
:101030002068406920F0800021684861206C08B970
:10104000A06C28B12068006820F0080021680860C2
:1010500094F85C103F208840A860012084F8350097
:1010600000BF002084F8340000BF206D10B120467E
:10107000216D8847F8BD2068006800F4802080B1A9
:101080002068006800F4002028B9606C10B1204688
:10109000616C88471DE0E06BD8B12046E16B884762
:1010A00017E02068006800F4807068B92068006864
:1010B00020F0100021680860012084F8350000BF8E
:1010C000002084F8340000BFE06B10B12046E16BD3
:1010D0008847606D38B3606D00F00100F0B1052005
:1010E00084F835002068006820F00100216808605D
:1010F00000BF0098401C0090B84200D905E020686D
:10110000006800F001000028F3D100BF012084F83E
:10111000350000BF002084F8340000BFE06C10B13F
:101120002046E16C884700BFA4E7000028000020AB
:101130002DE9F0410446002500F0CEF9074614B928
:101140000120BDE8F081606A00B100BF022084F890
:10115000350000BF002084F8340000BF206800681C
:1011600020F00100216808600AE000F0B5F9C01B1A
:10117000052805D920206065032084F83500E0E7C4
:101180002068006800F001000028EED120680568A2
:1011900021480540D4E901010843E1680843216979
:1011A000084361690843A1690843E1690843216A6A
:1011B00008430543606A042803D1D4E90B010843BE
:1011C0000543206805602068456925F00705606AC9
:1011D0000543606A04280DD1A06A0543E06A48B15E
:1011E0002046FFF771FC28B140206065012084F89B
:1011F0003500A6E7206845612046FFF74BFC064610
:1012000094F85C103F208840B060002060650120A9
:1012100084F83500002094E73F8010F02DE9F04776
:1012200004460D4616461F464FF00008D4F8589065
:1012300000BF94F83400012802D10220BDE8F087F5
:10124000012084F8340000BF94F83500012825D12E
:10125000022084F83500002060653B46324629466E
:101260002046FFF786FC94F85C103F208840C9F8C0
:1012700008002068006840F0160021680860206CB3
:1012800028B12068006840F00800216808602068E4
:10129000006840F001002168086006E000BF0020FF
:1012A00084F8340000BF4FF002084046C6E7000053
:1012B00070B5044600F010F906462546681C10B1CA
:1012C00004480078054400BF00F006F9801BA842DE
:1012D000FAD370BD24000020F8B502460B46002565
:1012E000002400200021D6E0012606FA01F51E6840
:1012F00006EA0504AC4274D11E7906F00306012EFD
:1013000004D01E7906F00306022E13D190684F0018
:101310000326BE40B0434F00DE68BE4030439060BD
:10132000506801268E40B0431E79C6F300168E40E9
:10133000304350601E7906F00306032E09D0D068B2
:101340004F000326BE40B0434F009E68BE4030436E
:10135000D0601E7906F00306022E13D1CF0802F1E9
:10136000200656F827004E07F70E0F26BE40B04362
:101370004F07FF0E1E69BE403043CF0802F1200622
:1013800046F8270010684F000326BE40B0431E7980
:1013900006F003064F00BE40304310605E6806F45E
:1013A0004036002E76D000BF002600963C4E3668B0
:1013B00046F480463A4F3E603E46366806F4804624
:1013C000009600BF00BF374E8F0856F827008E07E3
:1013D000370F0F26BE40B043334EB24202D1002633
:1013E00024E057E0314EB24201D101261EE0304EDA
:1013F000B24201D1022619E02E4EB24201D103269B
:1014000014E02D4EB24201D104260FE02B4EB24221
:1014100001D105260AE02A4EB24201D1062605E096
:10142000284EB24201D1072600E008268F073F0F61
:10143000BE4030431B4E8F0846F82700224E3068CE
:10144000A0435E6806F4801606B120431E4E30604D
:10145000361D3068A0435E6806F4001606B12043CE
:10146000194E361D3060184E361F3068A0435E6836
:1014700006F4003606B12043134E361F3060361F87
:101480003068A0435E6806F4803606B120430E4EF5
:10149000083E3060491C1029FFF426AFF8BD00005B
:1014A0004438024008380140000002400004024075
:1014B00000080240000C02400010024000140240EC
:1014C00000180240001C0240083C01400AB1816142
:1014D00001E00B0483617047014800687047000019
:1014E0001C00002070B504460CB9012070BD94F8B2
:1014F0003D0028B9002084F83C00204600F0DAF8CE
:10150000242084F83D002068006820F00100216854
:1015100008602068006840F4004021680860206886
:10152000006820F400402168086000F0FBFA0546DE
:101530005C496068884206D85B48854201D2012038
:1015400007E0002005E05948854201D2012000E073
:101550000020012800D1C9E75548B5FBF0F6206806
:10156000406820F03F003043216848604D49606882
:10157000884201D8701C07E04FF4967070434FF416
:101580007A71B0FBF1F0401C2168096A21F03F013B
:1015900008432168086243496068884214D8681E7D
:1015A00061684900B0FBF1F0401CC0F30B00042857
:1015B00001D204203DE0681E61684900B0FBF1F0F3
:1015C000401CC0F30B0034E0A06838B9681E6168A5
:1015D00001EB4101B0FBF1F0401C0AE0681E6168BC
:1015E00001EBC10202EB0111B0FBF1F0401C40F431
:1015F0008040C0F30B0008B901201AE0A06848B988
:10160000681E616801EB4101B0FBF1F0401CC0F3C2
:101610000B000CE0681E616801EBC10202EB0111D6
:10162000B0FBF1F0401CC0F30B0040F4804040F4EC
:1016300000402168C9694CF6FF7291430843216854
:10164000C861D4E9070108432168096821F0C00195
:10165000084321680860D4E90310084321688968B9
:1016600048F2FF329143084321688860D4E90501BC
:1016700008432168C96821F0FF0108432168C86058
:101680002068006840F001002168086000202064A4
:10169000202084F83D000020206384F83E0000BF35
:1016A00024E70000A086010080841E0000093D00A0
:1016B00040420F0010B586B00446142101A8FEF781
:1016C00029FE1B49206888422FD100BF00200090CE
:1016D0001848006840F00200164908600846006893
:1016E00000F00200009000BF00BFC0200190122057
:1016F000029000200390032004900420059001A98B
:101700000D48FFF7E9FD00BF0020009009481030A8
:10171000006840F40010074910310860084600686E
:1017200000F40010009000BF00BF06B010BD000024
:101730000054004030380240000402400348006872
:101740000349097808440149086070471C000020DB
:101750002400002010B50D48006840F400700B49CB
:1017600008600846006840F4806008600846006829
:1017700040F480700860032000F0D6F80F2000F0DD
:1017800007F800F055F8002010BD0000003C0240B2
:10179000F0B587B004460026002700BF0020009067
:1017A0001E48006840F001001C49086008460068B7
:1017B00000F00100009000BF00BF01A902A800F0E6
:1017C00089F900F0BFF946001548B6FBF0F0471E56
:1017D00014481549086040F2E7311348C16047607A
:1017E000002101618160816100F066FD054695B9C7
:1017F0000D4800F0CFFD05466DB9192000F042F804
:10180000102C07D200222146192000F04FF807487B
:10181000046000E00125284607B0F0BD44380240CE
:1018200040420F00000001402C0500202000002055
:1018300008B500BF002000901148006840F48040C7
:101840000F4908600846006800F48040009000BF1F
:1018500000BF00BF00200090081F006840F08050CB
:10186000091F08600846006800F08050009000BF23
:1018700000BF00220F21901E00F018F808BD0000E4
:10188000443802400146084600280DDB00BF00BF77
:1018900000F01F0301229A4043099B0003F1E0235B
:1018A000C3F8002100BF00BF00BF70472DE9F05F03
:1018B00080460D461646002702F0DEFE07463946F2
:1018C0002A46334601F00700C0F1070ABAF1040FB7
:1018D00002D94FF0040A01E0C0F1070AD14600F135
:1018E000040ABAF1070F02D24FF0000A01E0A0F19A
:1018F000030AD4464FF0010A0AFA09FAAAF1010ACA
:101900000AEA020A0AFA0CFA4FF0010B0BFA0CFB76
:10191000ABF1010B0BEA030B4AEA0B0421464046EC
:1019200002F0B2FEBDE8F09F00BF00F00702064BD8
:1019300019684FF6FF031940044B0B4343EA022199
:10194000014B196000BF70470CED00E00000FA0584
:1019500070B504460D460CB9012070BD58480068AA
:1019600000F00700A84209D255490D7008460068EA
:1019700000F00700A84201D00120EEE7207800F037
:10198000020002281DD1207800F00400042805D1AF
:101990004C48006840F4E0504A490860207800F064
:1019A0000800082805D14748006840F460404549D0
:1019B00008604448006820F0F000A16808434149ED
:1019C0000860207800F00100A8B36068012807D102
:1019D0003C4808380068C0F34040B8B90120BCE773
:1019E0006068022802D06068032807D135480838AB
:1019F0000068C0F3406048B90120AEE731480838BC
:101A00000068C0F3400008B90120A6E72D4800682F
:101A100020F00300616808432A490860FFF75CFD75
:101A2000064609E0FFF758FD801B41F288318842E5
:101A300002D9032091E707E02248006800F00C007B
:101A40006168B0EB810FEDD11D48006800F0070020
:101A5000A84209D91A490D700846006800F007002D
:101A6000A84201D0012078E7207800F00400042883
:101A700007D11448006820F4E050E1680843114998
:101A80000860207800F00800082808D10D48006898
:101A900020F46040216940EAC1000A49086000F072
:101AA00061F808490968C1F30311074A515CC8404D
:101AB0000649086006480068FFF76AFE00204CE708
:101AC000003C024008380240E8620008280000207C
:101AD000200000200F2202600D4A126802F003026B
:101AE00042600B4A126802F0F0028260084A1268F3
:101AF00002F4E052C260064A126802F46042D20860
:101B00000261044A126802F007020A60704700008E
:101B100008380240003C024001480068704700005D
:101B20002800002000B5FFF7F7FF04490968C1F35A
:101B30008221034A515CC84000BD000008380240C1
:101B4000F862000800B5FFF7E7FF04490968C1F330
:101B50004231034A515CC84000BD000008380240D1
:101B6000F86200082DE9F047002400250026A14670
:101B70002548006800F00C0020B1042805D0082892
:101B80003AD105E0DFF8849039E0DFF8849036E060
:101B90001D48001F006800F03F041B48001F00683C
:101BA00000F4800078B11A481749091F0968C1F389
:101BB0008811A0FB01700146224600233846FEF73B
:101BC0005FFB05460EE011480F49091F0968C1F384
:101BD0008811A0FB01700146224600233846FEF71B
:101BE0004FFB05460848001F0068C0F30140401C39
:101BF0004600B5FBF6F902E0DFF8109000BF00BF29
:101C00004846BDE8F0870000083802400024F40090
:101C100000127A00F8B504460CB90120F8BD20780E
:101C200000F00100002874D0F948006800F00C00B2
:101C300004280DD0F648006800F00C00082813D1E5
:101C4000F348001F006800F48000B0F5800F0BD14E
:101C5000EF4808380068C0F34040002859D0606859
:101C6000002856D10120D9E700BF6068B0F5803F59
:101C700008D1E7480838006840F48030E449083962
:101C800008601EE06068B0F5A02F0DD1E04808386C
:101C9000006840F48020DE49083908600846006882
:101CA00040F4803008600CE0D9480838006820F41F
:101CB0008030D749083908600846006820F4802041
:101CC000086000BF606890B1FFF706FC054606E0BB
:101CD000FFF702FC401B642801D903209EE7CC4893
:101CE00008380068C0F340400028F1D011E0FFF749
:101CF000F3FB054606E0FFF7EFFB401B642801D924
:101D000003208BE7C24808380068C0F34040002831
:101D1000F1D1207800F0020002285FD1BC480068B1
:101D200000F00C0058B1BA48006800F00C00082818
:101D30001CD1B748001F006800F48000B0B9B44857
:101D400008380068C0F3400020B1E068012801D0E5
:101D5000012063E7AE480838006820F0F8002169E8
:101D600040EAC100AA490839086037E0E06800B3DA
:101D70000120A8490860FFF7AFFB054606E0FFF722
:101D8000ABFB401B022801D9032047E7A0480838D5
:101D90000068C0F340000028F1D09D480838006872
:101DA00020F0F800216940EAC1009949083908602B
:101DB00014E0002097490860FFF78EFB054606E017
:101DC000FFF78AFB401B022801D9032026E7904831
:101DD00008380068C0F340000028F1D1207800F0F6
:101DE000080008282CD16069A8B101208A49086040
:101DF000FFF772FB054606E0FFF76EFB401B02286B
:101E000001D903200AE782486C300068C0F3400023
:101E10000028F1D014E000207F490860FFF75CFB48
:101E2000054606E0FFF758FB401B022801D90320B6
:101E3000F4E677486C300068C0F340000028F1D128
:101E4000207800F00400042870D100277048383052
:101E5000006800F0805090B900BF002000906C48EE
:101E60003830006840F080506949383108600846D1
:101E7000006800F08050009000BF00BF0127674855
:101E8000006800F48070B0B96448006840F4807065
:101E900062490860FFF720FB054606E0FFF71CFBE0
:101EA000401B022801D90320B8E65C48006800F412
:101EB00080700028F2D000BFA068012808D15448E3
:101EC0006830006840F001005149683108601DE049
:101ED000A06805280DD14E486830006840F0040025
:101EE0004B49683108600846006840F0010008600E
:101EF0000CE047486830006820F001004449683130
:101F000008600846006820F00400086000BFA06870
:101F1000A8B1FFF7E1FA054609E0FFF7DDFA401B3B
:101F200041F28831884202D9032077E626E038481A
:101F300068300068C0F340000028EED013E0FFF7DF
:101F4000CBFA054608E0FFF7C7FA401B41F288319B
:101F5000884201D9032061E62D4868300068C0F34B
:101F600040000028EFD1012F07D129483830006800
:101F700020F0805026493831086000BFA069002851
:101F800045D02348006800F00C0008285DD0A06907
:101F9000022845D100201F490866FFF79DFA054633
:101FA00006E0FFF799FA401B022801D9032035E625
:101FB000174808380068C0F340600028F1D1D4E920
:101FC00007010843616A40EA81110122A06AC2EB5D
:101FD000500041EA00412C20005D41EA00600C49BC
:101FE000091F086001200B490866FFF775FA0546CE
:101FF00006E0FFF771FA401B022801D903200DE625
:10200000034808380068C0F340600028F1D049E078
:102010000838024000004742800E474200700040EE
:10202000002021490866FFF757FA054606E0FFF74A
:1020300053FA401B022801D90320EFE51B48006832
:10204000C0F340600028F2D12CE0A069012800D143
:10205000E4E51648001D0668A069012820D006F4B2
:102060008001E06981421BD106F03F01206A814274
:1020700016D147F6C0703040616AB0EB811F0FD1B6
:1020800006F440310122A06AC2EB5000B1EB004FD0
:1020900006D106F070612C20005DB1EB006F01D01D
:1020A0000120BBE50020B9E50000474200380240AE
:1020B00010B504460CB9012010BD606A38B96068DB
:1020C000B0F5827F00D105E00021E16102E000214E
:1020D000216161610021A16294F8510028B90020BA
:1020E00084F85000204600F047F8022084F85100A0
:1020F0002068006820F0400021680860A08800F493
:102100008270218901F404410843A18901F400612E
:102110000843217C01F002010843217D01F0010107
:102120000843218B01F400710843217F01F038013D
:1021300008432021095D01F080010843218D01F44D
:1021400000510843216808600421A06901EA104099
:1021500094F8241001F010010843216848602068B9
:10216000C06920F400602168C8610020606501201A
:1021700084F8510000209FE710B586B00446142172
:1021800001A8FEF7C7F81B49206888422FD100BF7D
:10219000002000901848006840F4805016490860FC
:1021A0000846006800F48050009000BF00BF00BFE8
:1021B0000020009010481438006840F001000E49DB
:1021C000143908600846006800F00100009000BF64
:1021D00000BFA02001900220029000200390032065
:1021E00004900520059001A90448FFF775F806B092
:1021F00010BD0000003001404438024000000240A1
:102200007047704730B502460B4600BF92F83C005D
:10221000012801D1022030BD012082F83C0000BF1E
:10222000022082F83D00106844681068816824F03C
:1022300070041868044310684460184D1068A84280
:102240001BD01068B0F1804F17D0154D1068A84210
:1022500013D0144D1068A8420FD0134D1068A84237
:102260000BD0124D1068A84207D0114D1068A8423B
:1022700003D0104D1068A84205D121F080015868A4
:10228000014310688160012082F83D0000BF0020FA
:1022900082F83C0000BF00BFBDE700000000014025
:1022A0000004004000080040000C00400004014011
:1022B000004001400018004010B504460CB9012050
:1022C00010BD94F83D0028B9002084F83C00204659
:1022D00000F026F8022084F83D00211D206801F05E
:1022E00057FC012084F8460000BF84F83E0001211D
:1022F0003F200155402001554120015500BF00BF3E
:10230000012084F842004320015544200155452016
:10231000015500BF012084F83D000020D0E70000F7
:1023200038B5044618492068884218D100BF0020FB
:1023300000901648006840F0020014490860084602
:10234000006800F00200009000BF00BF00220521DD
:102350001D20FFF7ABFA1D20FFF794FA13E00C499C
:10236000206888420FD100BF002000900748006815
:1023700040F00400054908600846006800F00400C9
:10238000009000BF00BF38BD00040040403802404C
:1023900000080040014691F83D00012801D00120CD
:1023A0007047022081F83D000868C06840F00100D5
:1023B0000B68D8601A4B086898421BD00868B0F1C7
:1023C000804F17D0174B0868984213D0164B0868F7
:1023D00098420FD0154B086898420BD0144B0868F0
:1023E000984207D0134B0868984203D0124B0868F4
:1023F00098420CD10868806800F00702062A0CD0C9
:102400000868006840F001000B68186005E0086883
:10241000006840F001000B6818600020C0E7000071
:10242000000001400004004000080040000C004093
:102430000004014000400140001800402DE9F04137
:1024400004460D46002700BF94F83C00012802D145
:102450000220BDE8F081012084F83C0000BF02208A
:1024600084F83D002068866826F0770626F47F46CB
:10247000206886602868502833D00CDC202850D093
:1024800004DC00284BD0102851D149E0302849D035
:1024900040284CD139E060282DD0702807D0B0F505
:1024A000805F03D0B0F5005F41D10DE041E0D5E998
:1024B00002136A68206801F06FFC2068866846F0A5
:1024C00077062068866034E0D5E902136A682068E0
:1024D00001F062FC2068806840F4804021688860D8
:1024E00027E0EA686968206801F046FD502120680D
:1024F00001F05DFC1DE0EA686968206801F04FFDAD
:102500006021206801F053FC13E0EA6869682068E4
:1025100001F032FD4021206801F049FC09E000BFD4
:1025200000BF00BF2968206801F041FC01E00127DD
:1025300000BF00BF012084F83D0000BF002084F8E8
:102540003C0000BF384684E77047704770B50446CA
:102550002068C5682068066906F00200022819D1C3
:1025600005F00200022815D1401F216808610120F2
:1025700020772068806900F0030018B12046FFF73B
:10258000E4FF05E0204600F097F8204600F0ACF9A3
:102590000020207706F00400042819D105F004007B
:1025A000042815D1C04321680861022020772068E3
:1025B000806900F4407018B12046FFF7C6FF05E0BF
:1025C000204600F079F8204600F08EF900202077B0
:1025D00006F00800082819D105F00800082815D1D0
:1025E000C04321680861042020772068C06900F09A
:1025F000030018B12046FFF7A8FF05E0204600F0D1
:102600005BF8204600F070F90020207706F01000FB
:10261000102819D105F01000102815D1C0432168E9
:102620000861082020772068C06900F4407018B164
:102630002046FFF78AFF05E0204600F03DF82046DF
:1026400000F052F90020207706F0010048B105F0B3
:10265000010030B16FF0010021680861204600F0F0
:102660008BFB06F08000802809D105F080008028CF
:1026700005D1C043216808612046FFF7C1FD06F07F
:102680004000402809D105F04000402805D1C04352
:1026900021680861204600F083FB06F02000202816
:1026A00009D105F02000202805D1C0432168086128
:1026B0002046FFF7A6FD70BD70472DE9F0410446A6
:1026C0000D461646002700BF94F83C00012802D1B1
:1026D0000220BDE8F081012084F83C0000BF36B143
:1026E000042E1BD0082E31D00C2E5ED145E0294699
:1026F000206801F065FB2068806940F008002168CF
:1027000088612068806920F0040021688861206861
:102710008069296908432168886148E02946206862
:1027200001F086FB2068806940F4006021688861C0
:102730002068806920F48060216888612068806951
:10274000296940EA01202168886130E02946206833
:1027500001F0ACFB2068C06940F008002168C86146
:102760002068C06920F004002168C8612068C06941
:10277000296908432168C86119E02946206801F0E9
:10278000D1FB2068C06940F400602168C8612068FE
:10279000C06920F480602168C8612068C069296927
:1027A00040EA01202168C86101E0012700BF00BFA5
:1027B00000BF002084F83C0000BF384689E701468E
:1027C00091F83D00704710B504460CB9012010BDCA
:1027D00094F83D0028B9002084F83C00204600F021
:1027E00025F8022084F83D00211D206801F0D0F971
:1027F000012084F8460000BF84F83E0001213F20FC
:102800000155402001554120015500BF00BF012066
:1028100084F84200432001554420015545200155CC
:1028200000BF012084F83D000020D0E738B5044601
:102830002949206888424DD100BF002000902748D8
:10284000006840F00400254908600846006800F070
:102850000400009000BF00BF00BF002000901F4890
:102860001038006840F400101C4910390860084610
:10287000006800F40010009000BF00BF184819491C
:1028800008604FF080604860402116488160002158
:10289000C1604FF48061016149004161890081613B
:1028A0000021C1614FF40031016200214162FEF755
:1028B0003FFC08B1FEF774F900BF0A49A16208465F
:1028C000846300BF002211460E20FEF7EFFF0E20AA
:1028D000FEF7D8FF38BD0000000800404038024035
:1028E000586002408404002010B504460449206862
:1028F000884203D10421034800F0B4F910BD000060
:10290000000800403C0400207047000070B50446F9
:102910000D4615B994F83E000BE0042D02D13F207E
:10292000005D06E0082D02D14020005D01E041205D
:10293000005D012801D0012070BD1DB9022084F87E
:102940003E000EE0042D03D102213F20015508E096
:10295000082D03D102214020015502E0022141202F
:10296000015501222946206801F082F92349206897
:10297000884203D022492068884201D1012000E02A
:10298000002028B12068406C40F400402168486471
:102990001A49206888421BD02068B0F1804F17D0B8
:1029A00018492068884213D01749206888420FD000
:1029B0001649206888420BD011492068884207D008
:1029C00013492068884203D01249206888420CD1FC
:1029D0002068806800F00706062E0CD0206800688A
:1029E00040F001002168086005E02068006840F0C0
:1029F00001002168086000209EE7000000000140FF
:102A0000000401400004004000080040000C0040A9
:102A100000400140001800402DE9F04704460D46F3
:102A200016461F464FF0000815B994F83E000BE01B
:102A3000042D02D13F20005D06E0082D02D1402088
:102A4000005D01E04120005D022801D1BDE8F08772
:102A500015B994F83E000BE0042D02D13F20005D33
:102A600006E0082D02D14020005D01E04120005D1C
:102A7000012818D106B10FB90120E7E71DB90220DE
:102A800084F83E0011E0042D03D102213F200155BE
:102A90000BE0082D03D102214020015505E0022161
:102AA0004120015501E00120D0E735B1042D1FD0B0
:102AB000082D38D00C2D6CD150E06049606AC1639C
:102AC0005F49606A01645F49606AC164216801F11D
:102AD00034023B463146606AFEF7A0FB08B1012094
:102AE000B4E72068C06840F400702168C86053E013
:102AF0005249A06AC1635249A06A01645149A06A5F
:102B0000C164216801F138023B463146A06AFEF7F4
:102B100085FB08B1012099E72068C06840F4806017
:102B20002168C86038E04549E06AC1634449E06A09
:102B300001644449E06AC164216801F13C023B46FA
:102B40003146E06AFEF76AFB08B101207EE72068A3
:102B5000C06840F400602168C8601DE03749206B00
:102B6000C1633749206B01643649206BC164216819
:102B700001F140023B463146206BFEF74FFB08B1A6
:102B8000012063E72068C06840F480502168C86075
:102B900002E04FF0010800BF00BFB8F1000F4AD1BA
:102BA00001222946206801F063F8274920688842FD
:102BB00003D026492068884201D1012000E000208E
:102BC00028B12068406C40F40040216848641E49E8
:102BD000206888421BD02068B0F1804F17D01C4974
:102BE0002068884213D01B49206888420FD01A49B8
:102BF000206888420BD015492068884207D01749C1
:102C00002068884203D01649206888420DD1206888
:102C1000806800F00709B9F1060F0CD02068006841
:102C200040F001002168086005E02068006840F07D
:102C3000010021680860404608E70000933C000856
:102C4000FB3C00083B3D000800000140000401403F
:102C50000004004000080040000C0040004001401B
:102C60000018004070B504460D46002635B1042D0D
:102C70000ED0082D16D00C2D28D11DE02068C0687C
:102C800020F400702168C860606AFEF71DF91FE03B
:102C90002068C06820F480602168C860A06AFEF7E0
:102CA00013F915E02068C06820F400602168C8604E
:102CB000E06AFEF709F90BE02068C06820F4805054
:102CC0002168C860206BFEF7FFF801E0012600BF15
:102CD00000BF002E4AD100222946206800F0C8FF1C
:102CE00023492068884203D022492068884201D1C4
:102CF000012000E0002090B100BF2068006A41F28E
:102D00001111084050B92068006A8910084028B99C
:102D10002068406C20F400402168486400BF00BF78
:102D20002068006A41F21111084050B92068006A19
:102D30008910084028B92068006820F00100216847
:102D4000086000BF1DB9012084F83E000EE0042D8C
:102D500003D101213F20015508E0082D03D10121B5
:102D60004020015502E0012141200155304670BD4F
:102D7000000001400004014010B5044606492068E7
:102D8000884201D100F0D6FD04492068884201D173
:102D9000FEF7D4FC10BD0000000800400000014018
:102DA00070477047704700002DE9F84F04462068CF
:102DB00005682068C668206847694FF00009CA4660
:102DC00005F00F09B9F1000F0AD105F0200038B164
:102DD00006F0200020B1204601F044F9BDE8F88F4C
:102DE000B9F1000F7CD007F0010018B906F490701B
:102DF000002875D005F0010030B106F4807018B1DC
:102E0000606C40F00100606405F0040030B107F030
:102E1000010018B1606C40F00200606405F002002F
:102E200030B107F0010018B1606C40F0040060643C
:102E300005F0080048B106F0200010B907F00100C5
:102E400018B1606C40F008006064606C002846D0E7
:102E500005F0200028B106F0200010B1204601F056
:102E600001F920684069C0F3801A606C00F0080026
:102E700010B9BAF1000F2DD0204601F0ADF820684E
:102E8000406900F04000402820D100BF00BF216809
:102E9000143151E8001F21F040002168143141E84D
:102EA0000002002AF3D100BFE06B50B17F48E16B14
:102EB0000865E06BFEF708F888B1E06B016D8847A4
:102EC0000DE02046FFF76EFF09E009E02046FFF71E
:102ED00069FF04E02046FFF765FF002060647DE79E
:102EE000206B012878D105F01000002874D006F07E
:102EF00010000028FAD000BF002000902068006871
:102F0000009020684068009000BF00BF20684069C2
:102F100000F04000402870D1E06B006840681FFA64
:102F200080F8B8F1000F58D0A08D404555DDA4F8C9
:102F30002E80E06BC069B0F5807F43D000BF00BF3A
:102F400021680C3151E8001F21F4807021680C3198
:102F500041E80002002AF3D100BF00BF00BF216892
:102F6000143151E8001F21F001002168143141E8BB
:102F70000002002AF3D100BF00BF00BF2168143156
:102F800051E8001F21F040002168143141E800029F
:102F9000002AF3D100BF202084F8420000202063E3
:102FA00000BF00BF21680C3151E8001F21F0100064
:102FB00021680C3141E80002002AF3D100BFE06B28
:102FC000FDF72CFF02206063A08DE28D801A81B294
:102FD0002046FFF7E6FE0EE052E0A08D40450AD104
:102FE000E06BC069B0F5807F05D102206063A18DE0
:102FF0002046FFF7D6FEF1E6FFE7A08DE18D401AEF
:103000001FFA80F8E08DD0B3B8F1000F37D000BFC1
:1030100000BF21680C3151E8001F21F49070216835
:103020000C3141E80002002AF3D100BF00BF00BF0D
:103030002168143151E8001F21F00100216814318A
:1030400041E80002002AF3D100BF202084F84200AA
:103050000020206300BF00BF21680C3151E8001F31
:1030600021F0100021680C3141E80002002AF3D160
:1030700000BF0220606341462046FFF792FEADE6A6
:1030800005F0800030B106F0800018B1204601F054
:103090007DF9A3E605F0400030B106F0400018B11C
:1030A000204600F0CFFF99E600BF97E6C73F000833
:1030B00010B504460CB9012010BDA06900B100E0B4
:1030C00000BF94F8410028B9002084F84000204651
:1030D00000F02AF8242084F841002068C06820F419
:1030E00000502168C860204601F03AF82068006965
:1030F00020F49040216808612068406920F02A008F
:10310000216848612068C06840F400502168C860A8
:1031100000206064202084F8410084F842000020F0
:10312000606300BFC8E7000010B586B004461421F4
:1031300001A8FDF7EFF81F492068884238D100BF89
:10314000002000901C48006840F010001A490860F8
:103150000846006800F01000009000BF00BF00BFEC
:103160000020009014481438006840F00100124913
:10317000143908600846006800F00100009000BFA4
:1031800000BF4FF4C0600190022002900020039025
:10319000032004900720059001A90848FEF79CF839
:1031A000002204212520FEF781FB2520FEF76AFB83
:1031B00006B010BD0010014044380240000002403B
:1031C00070472DE9F84F04460E46174699464FF0D2
:1031D000000A94F84100202850D106B117B9012007
:1031E000BDE8F88F00206064212084F84100FEF7DC
:1031F00073F98246A784E784A068B0F5805F04D1A4
:10320000206910B90025B04602E035464FF00008AD
:103210001EE05346002280212046CDF8009001F0A8
:10322000E5F820B1202084F841000320D8E745B913
:10323000B8F80000C0F308002168486008F10208EF
:1032400003E02878216848606D1CE08C401EE08413
:10325000E08C0028DDD15346002240212046CDF8E5
:10326000009001F0C3F820B1202084F84100032031
:10327000B6E7202084F841000020B1E70220AFE744
:10328000704700BFFEE700001FB5002000900190CE
:10329000029003901548164908604FF4803048604A
:1032A0000021134881600161017680F82010C1621D
:1032B000104981620021C1600121C161002180F8B3
:1032C000301001214161FDF735FD08B1FDF768FCC3
:1032D0000120009001900020029069460448FDF70B
:1032E00063FC08B1FDF75CFC1FBD0000002001403D
:1032F000000300200100000F00B58FB01C220C4914
:1033000008A8FCF7EEFF002108A802F04DF80949D3
:1033100008601C2206491C3101A8FCF7E2FF0021CD
:1033200001A802F041F8044908600FB000BD000098
:1033300084620008080000201000002000B587B05B
:10334000142102A8FCF7E6FF00BF002001906E48A0
:10335000006840F010006C4908600846006800F002
:103360001000019000BF00BF00BF00200190084680
:10337000006840F0040008600846006800F004009F
:10338000019000BF00BF00BF002001900846006808
:1033900040F0800008600846006800F0800001905E
:1033A00000BF00BF00BF002001900846006840F049
:1033B000010008600846006800F00100019000BFAD
:1033C00000BF00BF002001900846006840F00200E6
:1033D00008600846006800F00200019000BF00BFCE
:1033E00000BF002001900846006840F00800086017
:1033F0000846006800F00800019000BF00BF0022EE
:1034000042F208014148FEF761F8002220214048BD
:10341000FEF75CF800224FF441413E48FEF756F8B3
:1034200000224FF440513C48FEF750F842F20800A9
:1034300002900120039000200490059002A93348D7
:10344000FDF74AFF20200290012003900020049005
:10345000059002A92E48FDF73FFF40F2022002909E
:1034600000200390049002A92A48FDF735FF4FF48D
:10347000414002900120039000200490059002A991
:103480002448FDF729FF4FF480600290002003904C
:10349000049002A92048FDF71FFF4FF480500290CE
:1034A000022003900020049005900220069002A9BB
:1034B0001948FDF711FF4FF40050029002200390CD
:1034C0000020049002200590069002A91248FDF702
:1034D00003FF4FF48070029000200390049002A933
:1034E0000E48FDF7F9FE012251030848FDF7EEFFF3
:1034F0000122D1030748FDF7E9FF012220210448FA
:10350000FDF7E4FF07B000BD303802400010024074
:103510000008024000040240000C0240000002408B
:1035200010B50B480B4908600B484860002109485A
:103530008160C1604FF4804101610021416181617E
:10354000C1610162FDF7CEFF08B1FDF729FB10BD97
:103550000054004048030020A086010010B50E482A
:103560000E4908604FF48270486000210B4881606A
:10357000C160016141614FF4007181610021C1614D
:103580000162416281620A21C162FEF791FD08B1C8
:10359000FDF706FB10BD0000003001409C03002039
:1035A00000B58DB0002009900A900B900C90079008
:1035B00008901C216846FCF7ADFE174817490860C3
:1035C000002048600021154881605921C160002118
:1035D00001618161FFF7F7F84FF48050099009A964
:1035E0000E48FEF72BFF00200790089007A90B4814
:1035F000FEF708FE602000900020019002900490E9
:10360000042269460548FFF758F804210348FFF7EC
:103610007DF90DB000BD000000040040F40300205F
:1036200000B58DB0002009900A900B900C90079087
:1036300008901C216846FCF76DFE2248224908606C
:10364000002048600021204881605321C160002192
:1036500001618161FEF730FE08B1FDF7A1FA4FF478
:103660008050099009A91848FEF7E8FE08B1FDF757
:1036700097FA1548FFF7A7F808B1FDF791FA00206F
:103680000790089007A91048FEF7BCFD08B1FDF7A8
:1036900087FA6020009000200190029004900022A0
:1036A00069460948FFF709F808B1FDF779FA0422DD
:1036B00069460548FFF701F808B1FDF771FA0DB04A
:1036C00000BD0000000800403C04002010B50B487D
:1036D0000B4908604FF4E1304860002108488160E0
:1036E000C16001610C21416100218161C161FFF76D
:1036F000DFFC08B1FDF754FA10BD000000100140D6
:10370000E404002000BFFEE700BFFEE710B52DED8A
:10371000088B54484068401C52494860084600786D
:103720000B2872D2DFE800F0060A0B0C0D11121301
:103730002263800000204B4948738FE000BF00BF28
:1037400000BF01204749487388E000BF00BF4548DB
:103750004068322809D34348407B08B9012000E083
:103760000020404948730020486077E03D484068A9
:10377000C821B0FBF1F201FB120000EE100AB8EE16
:10378000400ADFED390A80EE201AB0EE000A21EE81
:10379000000ADFED360A20EE200A10EE104A20461D
:1037A000FCF764FF41EC1B0BB0EE4B0AF0EE6B0A2A
:1037B00000F07EFFB0EE40AAF0EE60AA9FED2C0B69
:1037C00053EC102B51EC1A0BFCF756FE41EC190B85
:1037D0009FED290B53EC102BFCF7A7FD41EC180BC8
:1037E000FCF72BFF1F4908730120487336E01D4981
:1037F00049684FF41672B1FBF2F302FB1310C828AC
:1038000004D24621174A11730AE023E0B0F5C87FBD
:1038100003D23221134A117302E05A21114A117363
:103820000121104A517319E00E4840681E2810D338
:103830000C48807B08B9012000E00020094988730A
:1038400001204873002048600846817B0CA000F0EE
:10385000EBFE03E000200349487300BF00BFBDEC4E
:10386000088B10BD9C00002000004843D00F494049
:1038700000000000008048400000000000004940B7
:1038800053776974636820746F204C454420256425
:103890000D0A000010B51C480068401C1A49086059
:1038A00008460068642801D30020086000241748F7
:1038B0000078052814D2DFE800F0030506070800A9
:1038C00000241BE000BF00BF00BF1048007B0E4972
:1038D0000968884201D9012000E0002004460DE07B
:1038E0000A48007B08490968884204D90748407B98
:1038F00008B1012000E00020044600BF00BF2046C0
:1039000000F006F810BD0000000000209C00002020
:1039100010B504462CB1012251030548FDF7D6FD30
:1039200005E000224FF400510148FDF7CFFD10BD26
:10393000000C024010B5FFF7ADFF07480068401CBF
:1039400005490860084600680A2803D3002008607B
:10395000FFF7DCFE10BD0000040000202DED0A8BF7
:103960002BA000F061FE00213248FEF7CFFF9FED53
:10397000320AB0EE408A00BF00BF00BF00BF18EEA1
:10398000100AFCF773FE41EC1C0BB0EE4C0AF0EE93
:103990006C0A00F08DFEB0EE40BAF0EE60BA9FED1A
:1039A000270B53EC102B51EC1B0BFCF7BEFC41EC2E
:1039B0001A0B9FED240B53EC102BFCF7CFFD41ECC1
:1039C000190BFCF766FE08EE900A9FED200A28EE20
:1039D000800ABCEEC00A10EE100A00F10A04154875
:1039E000006844639FED1A0A38EE000AB0EE408A80
:1039F0009FED180AB4EEC08AF1EE10FA03DB9FEDDA
:103A00000E0AB0EE408A322001F0BDFCB7E700009C
:103A100050574D20427265617468696E67204C454D
:103A200044207461736B20737461727465640D0A51
:103A3000000000003C040020000000000000000026
:103A40000000F03F000000000000004000804544FE
:103A50008FC2F53DC3F5C84000BF012001F093FCC3
:103A6000FBE7000010B500BF502080F31188BFF3C2
:103A70004F8FBFF36F8F00BF02F0DEFA18B14FF027
:103A800080500449086000BF002080F3118800BF07
:103A900010BD000004ED00E000B593B0302107A890
:103AA000FCF738FC142102A8FCF734FC00BF00200E
:103AB00001902448006840F0805022490860084680
:103AC000006800F08050019000BF00BF00BF0020E0
:103AD00001901D48006840F480401B49086008467A
:103AE000006800F48040019000BF00BF01200790F3
:103AF0000004089002200D9041050E9104210F91C1
:103B0000A8211091022111910421129107A8FEF71A
:103B100081F808B1FDF744F80F20029002200390CD
:103B2000002004904FF4A05005904FF48050069070
:103B3000052102A8FDF70CFF08B1FDF731F813B01D
:103B400000BD00004038024000700040034800689B
:103B500040F47000014908607047000088ED00E003
:103B600010B50248FEF7F2FC10BD00002C05002045
:103B700010B50248FEF7EAFC10BD0000F403002077
:103B800010B50248FEF7E2FC10BD00003C04002026
:103B900010B502682B4B98420ED0B0F1804F0BD07D
:103BA000294B984208D0294B984205D0284B98427F
:103BB00002D0284B984203D122F070024B681A437E
:103BC000204B984220D0B0F1804F1DD01E4B984220
:103BD0001AD01E4B984217D01D4B984214D01D4B43
:103BE000984211D01C4B98420ED01C4B98420BD0DF
:103BF0001B4B984208D01B4B984205D01A4B984259
:103C000002D01A4B984203D122F44072CB681A4377
:103C100022F080034C6943EA04028B68C3620B689C
:103C20008362084B984202D00A4B984201D10B693B
:103C30000363036843F004030360012343610260EC
:103C400010BD0000000001400004004000080040DA
:103C5000000C0040000401400040014000440140CD
:103C60000048014000180040001C004000200040B7
:103C700030B501F01F05012404FA05F3046A9C43E2
:103C80000462046A01F01F0502FA05F52C43046280
:103C900030BD70B50546AC6B606AA84207D1012003
:103CA0002077E86918BB012084F83E001FE0A06A75
:103CB000A84207D102202077E869C0B901213F203E
:103CC000015514E0E06AA84207D104202077E86992
:103CD00068B901214020015509E0206BA84206D1B6
:103CE00008202077E86910B90121412001552046BC
:103CF000FEF7FAFD0020207770BD70B50546AC6B6D
:103D0000606AA84202D10120207710E0A06AA84290
:103D100002D1022020770AE0E06AA84202D1042002
:103D2000207704E0206BA84201D1082020772046AC
:103D3000FEF7EAFD0020207770BD70B50546AC6B3C
:103D4000606AA84204D10120207784F83E001DE07B
:103D5000A06AA84205D10220207701213F20015509
:103D600014E0E06AA84205D1042020770121402018
:103D700001550BE0206BA84205D1082020770121D6
:103D80004120015502E0012084F83D002046FEF765
:103D9000DBFB0020207770BD30B50C46816821F434
:103DA0007F4142EA032525432943816030BD0A460D
:103DB000816821F0700142F0070319438160704768
:103DC00030B5026A056A25F0010505624368846919
:103DD00024F0700424F003040D682C4322F0020246
:103DE0008D682A43104DA84200D103E00F4DA84230
:103DF00006D100BF22F00802CD682A4322F0040257
:103E0000094DA84202D0094DA84207D123F480737E
:103E100023F400734D692B438D692B434360846108
:103E20004D684563026230BD00000140000401405E
:103E300030B5026A056A25F0100505624368846999
:103E400024F4E04424F440740D6844EA052422F08C
:103E500020028D6842EA0512124DA84200D103E00B
:103E6000114DA84207D100BF22F08002CD6842EA7E
:103E7000051222F040020B4DA84202D00A4DA84282
:103E800009D123F4806323F400634D6943EA850379
:103E90008D6943EA8503436084614D6885630262EE
:103EA00030BD0000000001400004014030B5026A4E
:103EB000056A25F4807505624368C46924F07004BE
:103EC00024F003040D682C4322F400728D6842EA4A
:103ED0000522124DA84200D103E0114DA84207D19E
:103EE00000BF22F40062CD6842EA052222F480621B
:103EF0000A4DA84202D00A4DA84209D123F48053AA
:103F000023F400534D6943EA05138D6943EA051311
:103F10004360C4614D68C563026230BD000001406A
:103F20000004014030B5036A056A25F48055056236
:103F30004468C26922F4E04222F440720D6842EA09
:103F4000052223F400538D6843EA0533084DA84247
:103F500002D0084DA84204D124F480444D6944EABB
:103F600085144460C2614D680564036230BD000081
:103F7000000001400004014030B50B461446026ABF
:103F8000056A25F001050562816921F0F00141EA29
:103F9000041122F00A021A438161026230BD30B579
:103FA0000B461446026A056A25F010050562816910
:103FB00021F4704141EA043122F0A00242EA0312E6
:103FC0008161026230BD70B50446A56B0020E885B2
:103FD0002846FEF7E7FE70BD00BF00BF02680C3246
:103FE00052E8002F22F4907102680C3242E800136C
:103FF000002BF3D100BF00BF00BF0268143252E8AB
:10400000002F22F001010268143242E80013002B55
:10401000F3D100BF016B01290ED100BF00BF0268C0
:104020000C3252E8002F22F0100102680C3242E8F4
:104030000013002BF3D100BF202180F84210002193
:104040000163704710B504462068C06820F0400046
:104050002168C860202084F841002046FFF710F94D
:10406000002010BDF8B504460025002694F8420053
:10407000222873D1A068B0F5805F0BD1206948B9C0
:10408000A66A20684068C0F308003080A06A801CDF
:10409000A06214E0A56AA068B0F5805F03D0A068B4
:1040A00028B9206918B920684068287004E02068A1
:1040B000406800F07F002870A06A401CA062E08D7C
:1040C000401E80B2E085002846D12068C06820F0FC
:1040D00020002168C8602068C06820F480702168D2
:1040E000C8602068406920F00100216848612020F4
:1040F00084F8420000206063206B012826D1002054
:10410000206300BF00BF21680C3151E8001F21F07F
:10411000100021680C3141E80002002AF3D100BFF1
:104120002068006800F0100010280AD100BF0020AD
:10413000009020680068009020684068009000BFF0
:1041400000BFA18D2046FEF72CFE02E02046FFF7BF
:1041500037F80020F8BD01E00020FBE70220F9E776
:104160002DE9F84F04462068006920F44050E168CA
:104170000843216808612169A06808436169084310
:10418000E169084300902068C06849F20C618843E7
:10419000009908432168C8602068406920F4407095
:1041A000A16908432168486176492068884203D0A4
:1041B00075492068884203D1FDF7C4FC814602E0BE
:1041C000FDF7B0FC8146E069B0F5004F6CD10220EC
:1041D0006168A0FB015003461920A9FB007001464D
:1041E0002A463846FCF74CF86421B0FBF1F04FEA60
:1041F000001A02206168A0FB01510B461920A9FB9F
:1042000000712A463846FCF73BF883460220616875
:10421000A0FB015003461920A9FB00712A4638462D
:10422000FCF72EF86421B0FBF1F000EBC00101EBCC
:104230000010ABEB8000322101EBC0006421B0FB29
:10424000F1F000F0F8000AEB400A02206168A0FBE0
:10425000015003461920A9FB007001462A46384642
:10426000FCF70EF8834602206168A0FB015003466C
:104270001920A9FB00712A463846FCF701F8642191
:10428000B0FBF1F000EBC00101EB0010ABEB8000E4
:10429000322101EBC0006421B0FBF1F000F0070017
:1042A0005044216888606AE004206168A0FB0150E6
:1042B00003461920A9FB007001462A463846FBF741
:1042C000DFFF824604206168A0FB015003461920ED
:1042D000A9FB007001462A463846FBF7D1FF64214E
:1042E000B0FBF1F000EBC00101EB0010AAEB800085
:1042F000322101EB00106421B0FBF1F000F0F00A74
:1043000004206168A0FB017003461920A9FB00513D
:104310003A462846FBF7B4FF6421B0FBF1F00AEB04
:10432000001A04206168A0FB01510B461920A9FB6B
:1043300000712A463846FBF7A3FF834604206168D4
:10434000A0FB015003461920A9FB007001462A4634
:104350003846FBF795FF6421B0FBF1F000EBC0019C
:1043600001EB0010ABEB8000322101EB0010642167
:10437000B0FBF1F000F00F00504421688860BDE808
:10438000F88F00000010014000140140014691F830
:104390004100212828D18868B0F5805F0BD10869D9
:1043A00048B90A6A1088C0F308000B685860086AA8
:1043B000801C086205E00B6A581C086218780B68BC
:1043C0005860C88C401E80B2C88458B90868C0685C
:1043D00020F080000B68D8600868C06840F040009A
:1043E0000B68D860002070470220FCE72DE9F843F5
:1043F00004460D4617469846089E31E0701C70B37F
:10440000FDF76AF8A0EB0800B04200D816B9032007
:10441000BDE8F8832068C06800F00400F8B1802D82
:104420001ED0402D1CD020680068C0F3C000B0B181
:1044300000BF00200090206800680090206840685D
:10444000009000BF00BF2046FFF7C6FD0820606453
:1044500000BF002084F8400000BF0120D8E7FFE73C
:10446000206800682840A84201D1012000E0002017
:10447000B842C3D00020CBE710B50248FEF794FC49
:1044800010BD0000E404002000BFFEE710B50020CE
:104490000EE0002100EB4002084B1A44517000EB83
:1044A0004002995400EB40021A449170411C88B2BA
:1044B0000228EEDB00F0A4F810BD0000140000207C
:1044C00070B5002000212FE001EB41021C4CA25CE2
:1044D000120401EB41041A4D2C44647842EA042290
:1044E00001EB41042C44A47842EA0403172216E0AD
:1044F0006C2800D315E023FA02F404F0010434B16F
:1045000043260446401C0F4D25F8146005E0222682
:104510000446401C0B4D25F81460541E62B2002A5C
:10452000E6DA00BF4A1C91B20229CDDB04E000218B
:10453000044A22F81010401C6C28F8D370BD00000B
:10454000140000207405002010B5FFF79FFF10BD78
:1045500030B502280BDA00EB4004054D2C446170A5
:1045600000EB40042A5500EB40042C44A37030BDFE
:10457000140000202DE9F04105460C4600260027D6
:10458000B046092C2FD2DFE804F005090D12171CE4
:104590002024290000260027B04628E0FF26FF2718
:1045A000B04624E0FF2600274FF000081FE0FF265A
:1045B000A5274FF000081AE0FF26FF274FF000085C
:1045C00015E00026FF27B04611E00026FF27B84679
:1045D0000DE0002600274FF0FF0808E09426002792
:1045E0004FF0D30803E000260027B04600BF00BF0D
:1045F00043463A4631462846FFF7AAFFBDE8F08118
:1046000010B500BF0648FEF7DAF80228FAD0FFF727
:1046100057FF6C23034A04210148FEF7FDF910BD42
:104620003C040020740500200FB4054B10B503A90D
:10463000044A029800F0CAFC10BC5DF814FB0000AC
:104640009D5100089400002003B401984100009897
:1046500050EAC12018BF04204A0D18BF40F00100E5
:1046600040F2FF72B2EB515F08BF40F00200012838
:1046700008BF052002B0704702480068C0F302205E
:10468000704700000CED00E010B5002804DB0A07BD
:10469000130E054A135406E00A07140E034A00F0ED
:1046A0000F031B1FD45410BD00E400E018ED00E020
:1046B00010B52F499FED2C1B2DED020B84B00598F2
:1046C00020F000408842DCBF00209DED040B32DD6D
:1046D0002849884209D1049840B94FF0010000F000
:1046E0006FFC00F03DFC06B010BD05DB9DED040B3A
:1046F00000F02AFC06B010BD68469DED040B00F0EA
:104700003BF810F0030011D0012818D09DED021BDA
:104710009DED000B02281AD000F04AFA51EC100B64
:1047200081F0004106B041EC100B10BD9DED021B65
:104730009DED000B012000F06FFB06B010BD9DED5C
:10474000021B9DED000B00F033FA06B010BD0120F6
:1047500000F062FB51EC100B81F0004106B041EC1F
:10476000100B10BD00000000000000000000000061
:10477000FB21E93F0000F07F2DE9F14F04462DEDCC
:10478000020B2DED088B8AB09FEDE70B80ED020B3D
:10479000139EE74826F0004585420ADC9DED120B8A
:1047A000002084ED000B0AB0BDEC088B03B0BDE81F
:1047B000F08FE0489FEDE0AB9FEDE1BBA84247DD05
:1047C000E14F9FEDE39B9FEDE48B9DED120B53ECCE
:1047D0001A2B51EC100B002E1CDDFBF747FE41ECB1
:1047E000100BBD4208D053EC1B2B51EC100BFBF708
:1047F0003DFEC4E900010BE053EC192B51EC100B0A
:10480000FBF734FE53EC182BFBF730FEC4E9000134
:104810000120C8E7FBF789FD41EC100BBD4208D031
:1048200053EC1B2B51EC100BFBF77FFDC4E900018F
:104830000BE053EC192B51EC100BFBF776FD53EC0E
:10484000182BFBF772FDC4E900014FF0FF30AAE717
:10485000C348A84279DB9DED120B51EC100B00F020
:1048600091FC41EC180B9FEDC00B53EC102BFBF7A8
:1048700003FE9FEDBF1B53EC112BFBF756FDFCF71E
:104880002FF80746FCF70EF841EC190B53EC1A2BE6
:10489000FBF7F2FD53EC182BFBF7EBFD41EC180B8B
:1048A00053EC1B2B51EC190BFBF7E6FDDFF8C8A20C
:1048B00041EC100B4FEA15580125FA4453EC102B2C
:1048C00051EC180BFBF7D2FD032DC4E900013DD0DC
:1048D000C1F30A5005EB4511A8EB000011398142E4
:1048E00034DA0AEB051BB0EE48AA9BED000BF0EEA4
:1048F00068AA53EC102B51EC190BFBF7BDFD41ECF2
:104900001B0B51EC1A0B53EC1B2BFBF7AFFD41ECCF
:10491000180B51EC1A0B53EC182BFBF7A7FD53ECBB
:104920001B2BFBF7A3FD9BED020B41EC1A0B53EC89
:10493000102B51EC190BFBF79FFD53EC1A2BFBF7D7
:1049400095FD41EC100B6D1CB8E70EE0002EA8BFE2
:104950003846BFF628AF94ED000B51EC100B81F0F8
:104960000041C4E9000178421DE7C6F3130040F49A
:10497000801EC6F30A50A0F2F530471100F01F0563
:10498000C5F12000DDF848B008900020069007909F
:104990000520EC467949002D07EB0002794408BF59
:1049A00051F8221009D051F8223001EB8201AB40BE
:1049B0004A68089922FA01F11943A1FB0E26A1FBCE
:1049C0000B131A449A4234BF0123002303EB060859
:1049D0000CEB8003D3E901A60E448E4234BF0121C3
:1049E000002192448A4411B1924502D903E09245D4
:1049F00001D2012100E00021C3E901A641444CF8A5
:104A00002010011EA0F10100C4DC029800F100504A
:104A1000850F0298DDE903678000DDF81480FBF75D
:104A200041FF41EC1A0B3046FBF74DFF9FED541B45
:104A300053EC112BFBF720FD41EC1B0B3846FBF729
:104A400042FF9FED511B53EC112BFBF715FD41EC81
:104A5000180B4046FBF737FF9FED4D1B53EC112B16
:104A6000FBF70AFD41EC190B51EC180B53EC192B19
:104A7000FBF75BFC53EC1B2BFBF757FC53EC1A2B9F
:104A8000FBF753FCCDE90801002008909DED080BD1
:104A900053EC1A2B51EC100BFBF7E8FC53EC1B2BDF
:104AA000FBF7E4FC53EC182BFBF7E0FC53EC192B61
:104AB000FBF7DFFC9FED381B53EC112BFBF7DCFC05
:104AC0009FED370B41EC180B53EC102B9DED080BB1
:104AD00051EC100BFBF7D0FC53EC182BFBF725FC2B
:104AE0009FED310B41EC180B53EC102B9DED080B97
:104AF00051EC100BFBF7C0FC53EC182BFBF715FC2B
:104B000041EC100B139810F0004F06D06D4251ECA1
:104B1000100B81F0004141EC100B284684ED000B96
:104B200041E600000000000000000000000000005E
:104B3000FB21E93F7CD9024000004054FB21F93FB2
:104B40003163621A61B4D03DFB21F93F00000000DF
:104B50000000601A61B4D03D7370032E8A19A33B24
:104B6000FB2139410000000083C8C96D305FE43F7C
:104B7000000000000000E03F721A0000C0190000B1
:104B8000000000000000103E000000000000103C8B
:104B9000000000000000103A182D4454FB21F93D9C
:104BA0003326A611460B113C00000054FB21F93DB1
:104BB00010B52DED040B2DED088B82B0B0EE419AAF
:104BC000F0EE619A0B9820F000449FED4BABB4F1EE
:104BD000795F11DA9DED0A0B51EC100BFBF780FEAB
:104BE000002801BFB0EE4A0AF0EE6A0A02B0BDEC3E
:104BF000088B04BF04B010BD9DED0A0B53EC102BC5
:104C000051EC100BFBF738FC41EC180B3C4806212B
:104C1000B0EE480AF0EE680A784400F081F853ECF0
:104C2000182B51EC100BFBF727FC9DED0A0B41EC08
:104C30001B0B53EC192B51EC100BFBF71DFC41EC3B
:104C4000190B53EC1B2B51EC180BFBF715FC53EC19
:104C5000192BFBF70BFC9FED2C0B41EC190B53ECC4
:104C6000102B51EC180BFBF707FC41EC100B2848FC
:104C7000844210DA53EC192B51EC100BFBF7F6FBC6
:104C800053EC1A2BFBF7F5FB41EC100B02B0BDEC1B
:104C9000088B04B010BD1F48A042BCBF9FED1E1B77
:104CA0008DED001B06DBA4F50010019000200090A4
:104CB0009DED001B51EC100B53EC112BFBF7D6FBB9
:104CC0009DED000B41EC180B53EC102B51EC1A0B23
:104CD000FBF7CCFB41EC1A0B53EC192B51EC180BE6
:104CE000FBF7C4FB53EC1A2BFBF7C3FB41EC100B97
:104CF000CCE7000000000000000000000000F03FD2
:104D0000E416000000000000000000000000E03F8A
:104D10003333D33F0000E93F000000000000D23FE2
:104D200070B504462DED028B4D1E00EBC500B0EEB4
:104D3000408AF0EE608A90ED000B35F0060017D047
:104D400053EC182B51EC100BFBF796FB41EC100BBE
:104D50006D1E04EBC50090ED001B51EC100B53ECE5
:104D6000112BFBF7E2FA41EC100B35F00600E7D10E
:104D7000022D36D0042D1CD0062D1CBFBDEC028B9D
:104D800070BD53EC182B51EC100BFBF775FB94ED39
:104D90000A1B53EC112BFBF7C8FA53EC182BFBF74B
:104DA0006BFB94ED081B53EC112BFBF7BEFA41ECA7
:104DB000100B53EC182B51EC100BFBF75DFB94ED33
:104DC000061B53EC112BFBF7B0FA53EC182BFBF737
:104DD00053FB94ED040B53EC102BFBF7A6FA41ECBC
:104DE000100B53EC182B51EC100BFBF745FB94ED1B
:104DF000021B53EC112BFBF798FA53EC182BFBF723
:104E00003BFB94ED001B53EC112BFBF78EFABDEC32
:104E1000028B41EC100B70BD31B504462DED040B37
:104E20002DED0A8BB0EE41BAF0EE61BA0B989DED14
:104E30000A0B20F00040B0F1795F0DDA51EC100B55
:104E4000FFF702FC042808BF00F09AF89DED0A0B5A
:104E5000BDEC0A8B05B030BD53EC102B51EC100BA0
:104E6000FBF70AFB41EC180B9DED0A0B53EC182BDA
:104E700051EC100BFBF700FB41EC190B2C48B0EE8A
:104E8000480AF0EE680A05217844FFF749FF9FEDD4
:104E90002ACBB0EE40AAF0EE60AA9CB353EC1C2BD8
:104EA00051EC190BFBF7E8FA41EC1C0B53EC1A2BF5
:104EB00051EC190BFBF7E0FA9FED210B41EC190BBC
:104EC00053EC102B51EC1B0BFBF7D6FA53EC192BC0
:104ED000FBF7CCFA53EC182BFBF7CEFA53EC1B2B59
:104EE000FBF7C4FA53EC1C2BFBF7C0FA9DED0A1B31
:104EF00053EC112BFBF7BDFABDEC0A8B05B041EC6E
:104F0000100B30BDFFE753EC1A2B51EC180BFBF7DD
:104F1000B3FA53EC1C2BFBF708FA53EC192BFBF7F5
:104F2000ABFA9DED0A1B53EC112BFBF7FEF9E3E7FF
:104F30006C15000000000000495555555555C5BF7A
:104F4000000000000000E03F10B553EC102B51ECC6
:104F5000100BFBF7EAF941EC100B10BD000000004C
:104F60009FED050B10B553EC102B51EC100BFBF71C
:104F7000F5FA41EC100B10BD00000000000000002D
:104F80009FED050B10B553EC102B51EC100BFBF7FC
:104F900073FA41EC100B10BD00000000000000107F
:104FA00002E008C8121F08C1002AFAD170477047F2
:104FB000002001E001C1121F002AFBD17047000050
:104FC0000149086070470000980000202DE9FF4F5C
:104FD0008BB09A460F460546002606E025280BD0E2
:104FE00052460D9990476D1C761C28780028F5D103
:104FF0000FB03046BDE8F08F0024A0460122604982
:1050000000E0044315F8013F203B02FA03F0084298
:10501000F7D128782E2817D115F8010F44F0040491
:105020002A280ED06FF02F022878A0F1300109292C
:105030000AD808EB880102EB410100EB01086D1C66
:10504000F2E757F8048B6D1C287869283ED006DCFF
:105050000028CDD063280BD0642804D136E0732813
:1050600010D075284BD052460D999047761C85E09C
:1050700017F8040B8DF8000000208DF80100E946B8
:10508000012003E057F8049B4FF0FF3061074FF019
:10509000000401D40AE0641C44450DDA8442FADBC2
:1050A00019F804100029F6D106E0641C8442FCDBE8
:1050B00019F804100029F8D1264404E019F8010B6E
:1050C00052460D999047641EF8D257E001CF4FF039
:1050D0000A0B002802DA40422D2102E0210504D506
:1050E0002B218DF82410012103E0E10705D02021B8
:1050F000F7E70DF1200908910CE00021F9E701CF55
:105100004FF00A0BF9E75946FBF7DFFA01F13002DD
:1051100009F8012D0028F6D1ADEB090000F1200BB4
:10512000600701D44FF00108D84502DDA8EB0B0061
:1051300000E000208046002406E009A85246005DF9
:105140000D999047641C761C08988442F5DB04E0B6
:10515000302052460D999047761CB8F10001A8F115
:105160000108F5DC05E019F8010B52460D9990474E
:10517000761CBBF10001ABF1010BF4DC6D1C34E7D4
:105180000928010082B0CDE9000121F00040019022
:105190009DED000B02B051EC100B704713B50C469F
:1051A0004FF0FF33012269460248FEF70AF80098E3
:1051B0001CBD0000E404002086B0FCF7CBFAFEF72B
:1051C0006BFCFEF7BBF8FEF781FAFEF75DF8FEF721
:1051D000C5F9FEF7A5F9FEF7E3F9FEF721FA3DA0C0
:1051E000FFF722FAFFF7B0F940A0FFF71DFA44A03D
:1051F000FFF71AFA02210020FFF7BCF90521012070
:10520000FFF7B8F9FFF7FCF945A0FFF70DFA002406
:105210003CE04FF47A70FCF74BF8611C46A0FFF7B6
:1052200003FAFFF733F94FF4FA70FCF741F864B969
:1052300000231A46FF211846FFF78AF90023FF22B0
:1052400019460120FFF784F91AE0012C0CD1FF2345
:10525000002211461046FFF77BF90023FF2211467A
:105260000120FFF775F90BE0FF231A4619460020CD
:10527000FFF76EF98023002219460120FFF768F935
:10528000FFF7BEF930A0FFF7CFF9641C032CC0DB99
:105290003148006840F080702F49086000202F4995
:1052A00048600846006840F00100086014222CA104
:1052B00001A8FBF716F84FF0FF33192201A92D487A
:1052C000FDF77FFF00BFFEF717F800F068F800BF9A
:1052D000FEE70000BFAACABCB3F5CABCBBAF5753B8
:1052E00032383132422E2E2E0D0A000057533238FA
:1052F000313242B3F5CABCBBAFCDEAB3C90D0A0027
:10530000C9E8D6C34C454430CEAABAECC9ABA3AC6D
:105310004C454431CEAAC2CCC9AB0D0A00000000F6
:1053200057533238313242D1D5C9ABB8FCD0C2CD97
:10533000EAB3C90D0A000000B2E2CAD4D1ADBBB7CE
:105340002025640D0A000000D1D5C9ABC9E8D6C339
:10535000CDEAB3C90D0A0000FCED00E0001000E04A
:1053600055415254B3F5CABCBBAFCDEAB3C90D0A1F
:1053700000000000E404002001460020842901D040
:10538000CA1C1044704770B5044625460DB1294625
:1053900000E00121084600F037FC002070BD10B588
:1053A00000F060FC002010BD7FB504460D4660692A
:1053B00098B1A06988B1B4F90800FFF7DDFF06468F
:1053C000D4E90510CDE9006102902B462269D4E9A9
:1053D000001000F0D3FD039013E0B4F90800FFF7CC
:1053E000CBFF064603A8CDE90060238A9AB22B467C
:1053F000D4E9001000F090FD012802D0002004B094
:1054000070BD0398FBE700002DE9F04105460E460C
:105410001C4807681C480068001D00F0F1FA50B9EC
:105420001948006890F82C10012088401749096835
:10543000814316480160681C38B936B112480168CA
:10544000091D134800F026FB1AE07C190E4800687D
:105450004460BC4207D20C480168091D0D48006831
:1054600000F0FEFA0CE008480168091D0A480068CF
:1054700000F0F6FA09480068844201D20748046047
:10548000BDE8F081400000202C00002044000020F6
:105490002807002034000020300000205C0000209D
:1054A00010B5044600F002FB23480068401C224966
:1054B00008602248006840B9204804600846006837
:1054C00001280DD100F03EF90AE01D48006838B906
:1054D0001A480068C06AE16A884201D81748046027
:1054E00018480068401C1749086094F82C100120E7
:1054F000884015490968084313490860E16A01EBCF
:105500008101124A02EB8100211D00F0C3FA00F074
:10551000F7FA0B48006868B108480068C06AE16A99
:10552000884207D24FF0805009490860BFF34F8F7F
:10553000BFF36F8F10BD00003C0000202C00002046
:105540004800002058000020440000204C060020A5
:1055500004ED00E010B516E000F0A8FA0C48C068B1
:10556000C468201D00F04CFA0A480068401E094932
:10557000086009480068401E0749086000F0C0FA4A
:10558000204600F00BF8044800680028E4D110BD64
:10559000140700203C0000203800002010B504460D
:1055A00094F8510030B9206B00F0C8FA204600F0A2
:1055B000C5FA1AE094F85100012803D1204600F002
:1055C000BDFA12E094F85100022801D1012000E058
:1055D000002050B900BF502080F31188BFF34F8FD7
:1055E000BFF36F8F00BF00BFFEE710BD30B54FF4B3
:1055F0007053174800F007042CB1C01D20F00700BD
:10560000134C041B1B1B0246124C22600024114D3C
:105610006C60D018083820F007000F4C2060002480
:105620000D4D2D686C600C4D2D682C601146441A90
:105630004C60094C24680C60084D4C682C60084D87
:105640004C682C604FF00044064D2C6030BD0000CB
:105650003C07002068000020700000207800002037
:10566000740000208400002000BFFFF773FF06488D
:1056700000680128F9D94FF0805004490860BFF351
:105680004F8FBFF36F8FF0E74C06002004ED00E072
:105690002DE9FF5F81460E469246DDE90E7B109CA8
:1056A000AAF10100216B01EB800828F0070808F03F
:1056B000070008B9012000E0002050B900BF5020C9
:1056C00080F31188BFF34F8FBFF36F8F00BF00BF10
:1056D000FEE786B1002507E0715D04F13400415515
:1056E000705D00B902E06D1C102DF5D300BF0021E4
:1056F0004320015502E0002084F83400072F00D336
:105700000627E76267640020A064201D00F0A5F969
:1057100004F1180000F0A1F92461C7F10700A061AD
:1057200064620020E06484F8500049464046039AD1
:1057300000F050F92060BBF1000F01D0CBF8004021
:10574000BDE8FF9F10B5002407E004EB84010F4A79
:1057500002EB810000F074F9641C072CF5D30C48AF
:1057600000F06EF90B4800F06BF90B4800F068F997
:105770000A4800F065F90A4800F062F9044809494E
:10578000086004480849086010BD00004C0600206D
:10579000D8060020EC060020000700201407002097
:1057A00028070020300000203400002010B50146FA
:1057B000164800E0006803688B42FBD3024643684A
:1057C00013448B4204D143684C6823444360014630
:1057D0000A464B6813440468A34211D10C4C036879
:1057E0002468A34208D04B680468646823444B6073
:1057F00003681B680B6005E0054B1B680B6001E04C
:1058000003680B60884200D0016010BD6800002072
:10581000700000200A490968096809B9012100E0FF
:10582000002121B14FF0FF31064A116006E0044922
:105830000968C968C868034A416811607047000078
:10584000300000205C0000200E480068401C08B9B1
:10585000012000E0002050B900BF502080F31188E3
:10586000BFF34F8FBFF36F8F00BF00BFFEE700BFD6
:10587000502080F31188BFF34F8FBFF36F8F00BFAD
:1058800000BFFEE7880000202DE9F04104464FF0FC
:10589000000800F03FFA4948006808B9FFF7A6FE83
:1058A000474800682040002870D1D4B1083404F083
:1058B0000700B0B104F00700C0F10800044404F090
:1058C000070008B9012000E0002050B900BF5020B7
:1058D00080F31188BFF34F8FBFF36F8F00BF00BFFE
:1058E000FEE7002C52D03748006884424ED8364E2E
:1058F0003046056801E02E462D686868A04202D255
:1059000028680028F7D12D48006885423ED03068CD
:1059100000F10808286830606868001B102819D951
:105920002F1907F0070008B9012000E0002050B946
:1059300000BF502080F31188BFF34F8FBFF36F8FEC
:1059400000BF00BFFEE76868001B78606C603846E7
:10595000FFF72CFF1B4968680968081A1949086095
:105960000846006819490968884203D2154800684A
:105970001649086012496868096808436860002091
:10598000286013480068401C1149086000F0F8FBCB
:1059900008F0070008B9012000E0002050B900BF5E
:1059A000502080F31188BFF34F8FBFF36F8F00BF7C
:1059B00000BFFEE74046BDE8F08100007000002017
:1059C000840000207400002068000020780000207F
:1059D0007C000020001F4FF080730360001F21F047
:1059E00001030360001F054B036014380260001FB1
:1059F0006FF0020303602038704700004958000828
:105A000001460A69D1E901309860D1E90103586083
:105A10005068884201D18868506000200861106891
:105A2000401E106010687047034B0360034B0B600F
:105A30008023136070470000AC00002000010020AC
:105A400000F1080141604FF0FF31816000F1080171
:105A5000C160016100210160704700210161704750
:105A600010B502460B685C1C0CB9106907E002F126
:105A7000080000E04068446824689C42FAD9446801
:105A80004C604C68A160886041600A611468641CC5
:105A9000146010BD42684A6093688B6093685960D7
:105AA0009160086103685B1C0360704700BF502071
:105AB00080F31188BFF34F8FBFF36F8F00BF0E4885
:105AC0000068401C0C49086008460068012812D193
:105AD0000A480068C0B208B9012000E0002050B9AF
