:020000040800F2
:10000000A04400205D0200080124000857220008D7
:10001000FD23000891090008C12A00080000000023
:100020000000000000000000000000009D0100082A
:100030009509000800000000F901000811240008DB
:1000400077020008770200087702000877020008AC
:10005000770200087702000877020008770200089C
:10006000770200087702000877020008770200088C
:10007000770200087702000877020008770200087C
:10008000770200087702000877020008770200086C
:10009000770200087702000877020008770200085C
:1000A000770200080D250008770200087702000893
:1000B000770200087702000877020008770200083C
:1000C000770200087702000877020008770200082C
:1000D00077020008B12A00087702000877020008BA
:1000E000770200087702000877020008770200080C
:1000F00077020008770200087702000877020008FC
:1001000077020008770200087702000877020008EB
:1001100077020008770200087702000877020008DB
:1001200077020008770200087702000877020008CB
:1001300077020008770200087702000877020008BB
:1001400077020008770200087702000877020008AB
:10015000770200087702000877020008770200089B
:10016000770200087702000877020008770200088B
:1001700077020008770200087702000800000000FC
:100180007702000877020008DFF80CD000F0CEFA02
:10019000004800470D340008A04400202C4B19688B
:1001A0000868B0E8F04F80F30988BFF36F8F4FF015
:1001B000000080F3118870470000000008480068C4
:1001C000006880F308884FF0000080F3148862B65E
:1001D00061B6BFF34F8FBFF36F8F00DF00BF00BF6B
:1001E00008ED00E0DFF80C00016841F470010160E7
:1001F000704700BF88ED00E0EFF30980BFF36F8F19
:10020000134B1A681EF0100F08BF20ED108A20E96A
:10021000F04F106009B44FF0500080F31188BFF325
:100220004F8FBFF36F8F03F049FE4FF0000080F354
:10023000118809BC19680868B0E8F04F1EF0100F6B
:1002400008BFB0EC108A80F30988BFF36F8F704746
:1002500014000020EFF30580704700000648804737
:1002600006480047FEE7FEE7FEE7FEE7FEE7FEE79B
:10027000FEE7FEE7FEE7FEE7F92400088901000833
:100280002DE9F05F0546002092469B4688460646CB
:10029000814640241BE0284641464746224600F05E
:1002A0007CF853465A46C01A914110D3114618465D
:1002B000224600F063F82D1A67EB01084F462246EC
:1002C0000120002100F05AF817EB00094E41201ED2
:1002D000A4F10104DFDC484631462A464346BDE826
:1002E000F09F40EA01039B0703D009E008C9121FF1
:1002F00008C0042AFAD203E011F8013B00F8013BE0
:10030000521EF9D27047D2B201E000F8012B491E0B
:10031000FBD270470022F6E710B513460A460446A2
:100320001946FFF7F0FF204610BD00F0004230F004
:1003300000400AD0C10D01F56071C0F3160042EA19
:100340000151C20840071143704700200146704721
:1003500030B50B46014600202022012409E021FA95
:1003600002F59D4205D303FA02F5491B04FA02F592
:100370002844151EA2F10102F1DC30BD202A04DB65
:10038000203A00FA02F1002070479140C2F12003A8
:1003900020FA03F3194390407047202A04DB203AE7
:1003A00021FA02F00021704721FA02F3D040C2F195
:1003B000200291400843194670472DE9FE4F8046C0
:1003C00081EA0300C00F0C46009021F0004123F0A9
:1003D0000045B8EB0200A94105D2404621469046AF
:1003E0001C460B46024623F00040104347D0270D21
:1003F000C7F30A00C3F30A510290401A0190402843
:100400006BDAC3F3130040F4801B0098924620B1CE
:100410000023D2EB030A63EB0B0B01985946C0F1A2
:1004200040025046FFF7AAFF06460D465046594681
:10043000019A00F08DF910EB08006141002487EA71
:10044000115284EAE7731A4340D0009A62B3019ACA
:10045000012A4FEA075215DC001B61EB02014FF045
:10046000004202EA0752CDE90042001C41F580112A
:1004700032462B4600F08DF903B0BDE8F08F4046C0
:100480002146F9E7001B61EB0201001C41F58013D6
:1004900000185B412018A2F5001747EB030140EA62
:1004A000D570B6196D4111E06D084FEA360645EA80
:1004B000C0754FEA0752001B61EB0201001C41F5B9
:1004C000801149084FEA30000019514132462B464D
:1004D00003B0BDE8F04F00F04DB900980122400094
:1004E0000023D0EB020263EBE073009821464FEA51
:1004F000E074B8EB000061EB0401E9E783F000432E
:100500005BE781F0004158E72DE9FE4F81EA0304E3
:1005100004F0004421F0004100944FF0000B23F060
:10052000004350EA01045ED052EA03045BD0C3F3F7
:100530000A54C1F30A552C44A4F2F3340194A0FBED
:100540000254C1F3130141F48011C3F3130343F4C4
:10055000801301FB024400FB034E840A970A44EA1D
:10056000815447EA8357A4FB076802958D0A05FB6F
:1005700007854FEA932C04FB0C542705029D4FEA94
:10058000065847EA1637B5EB08056EEB070C870EE1
:10059000920E47EA811742EA8312A7FB0201B6EBEB
:1005A0000B0164EB00042B0D43EA0C335E1844EBA3
:1005B0001C50DA465146E7FB0201C5F313044FEA2B
:1005C0000B3343EA14534FEA0432019C43EA060317
:1005D000A4F10C040294009CCDE900B400F0D9F819
:1005E00003B0BDE8F08F00200146F9E72DE9F04D9A
:1005F00081EA030404F0004B21F0004514464FF05B
:10060000000A23F0004150EA050220D054EA01021A
:100610001DD0C5F30A570246C5F31303C1F31300F7
:10062000C1F30A5640F4801543F48013A7EB060883
:10063000101BD64608F2FD3873EB050002D308F113
:10064000010801E092185B41B8F1000F03DA0020C5
:100650000146BDE8F08D00204FF480110646844627
:100660000EE0171B73EB050705D3121B63EB0503A5
:1006700006434CEA010C49084FEA300092185B41EE
:1006800050EA0107EDD152EA030012D082EA0400D9
:1006900083EA0501084305D0101BAB4106D20122B5
:1006A000002306E000224FF0004302E06FF0010259
:1006B00053101AEB06004CEB085110EB0A0041EB0B
:1006C0000B01BDE8F04D00F055B8C1F30A52C1F37B
:1006D000130140F2FF3341F480119A4202DA002004
:1006E0000146704740F233439A42A2F2334202DCA1
:1006F0005242FFF752BEFFF741BE000030B5041E64
:1007000071F1000404DB4FF00044404264EB01014E
:10071000141E73F1000405DB1C464FF000435242E7
:1007200063EB0403994208BF904230BD064C074D6D
:1007300006E0E06840F0010394E8070098471034B1
:10074000AC42F6D3FFF724FD5C4400087C4400086B
:10075000202A06DBCB17203A41FA02F043EAE07385
:1007600006E041FA02F3D040C2F120029140084372
:100770001946704710B5141E73F1000408DA401CC6
:1007800041F1000192185B411A4301D120F00100B0
:1007900010BD2DE9F04D92469B4611B1B1FA81F2A0
:1007A00002E0B0FA80F220329046FFF7E7FD0446FF
:1007B0000F4640EA0A0041EA0B0153465A460843F5
:1007C00013D0114653EA010019D0C8F14002504637
:1007D000FFF7E3FD05460E46504659464246FFF7F1
:1007E000CDFD084305D0012004E020463946BDE890
:1007F000F08D0020054346EAE0762C4337430A9803
:100800006305E40AA0EB08000022FD0A44EA47540D
:100810000A3002D500200146E9E7010510196941B7
:10082000DDE9084500196941BDE8F04DA2E7000087
:1008300055494A6822F440324A604A6843681A437C
:100840004A600268526822F4807203685A60026843
:100850005368026943EA022203685A6002685268D8
:1008600022F0407203685A600268526883681A4333
:1008700003685A600268926822F4006203689A6012
:1008800002689268C3681A4303689A603F4B826AA1
:100890009A4218D00268926822F0706203689A60E7
:1008A00002689268836A1A4303689A6002689268D1
:1008B00022F0405203689A6002689268C36A1A4341
:1008C00003689A600BE00268926822F07062036825
:1008D0009A600268926822F0405203689A60026847
:1008E000926822F0020203689A6002689368027EAE
:1008F00043EA420203689A602022125CA2B10268B5
:10090000526842F4006203685A600268526822F436
:10091000604203685A6002685368426A521E43EAA2
:10092000423203685A6005E00268526822F40062AD
:1009300003685A600268D26A22F470020368DA62BD
:100940000268D36A828B521E43EA02520368DA625B
:100950000268926822F4007203689A6002689368E1
:1009600090F8302043EA422203689A600268926855
:1009700022F4806203689A6002689368426943EADD
:10098000822203689A607047002301400100000F33
:1009900000BFFEE7704772B600BFFEE710B507481C
:1009A00000F0B4F90A21054800F048F920B90348DD
:1009B00000F0CCF880B210BD0020FCE7D40200208B
:1009C00038B502460020009000BF92F83C00012894
:1009D00001D1022038BD012082F83C0000BF086828
:1009E000092816D91068C0680C780A3C04EB440545
:1009F0000724AC40A0431468E0600C780A3C04EB88
:100A000044048868A0401468E46820431468E060E7
:100A100013E0106800690C7804EB44050724AC402F
:100A2000A043146820610C7804EB44048868A0405B
:100A3000146824692043146820614868072817D285
:100A40001068406B0C79641E04EB84051F24AC40D5
:100A5000A04314686063088880B20C79641E04EBBC
:100A60008404A0401468646B20431468606331E020
:100A700048680D2817D21068006B0C79E41F04EB4E
:100A800084051F24AC40A04314682063088880B20A
:100A90000C79E41F04EB8404A0401468246B204309
:100AA0001468206316E01068C06A0C790D3C04EBF2
:100AB00084051F24AC40A0431468E062088880B21B
:100AC0000C790D3C04EB8404A0401468E46A2043D4
:100AD0001468E062194B1A4C1068A04206D10868ED
:100AE000122803D1586840F480005860144C1068F4
:100AF000A0421CD10868102802D00868112816D11D
:100B0000586840F400005860086810280FD10D485C
:100B100000680D4CB0FBF4F000EB8000400000904A
:100B200002E00098401E009000980028F9D100BF14
:100B3000002082F83C0000BF00BF4BE700230140CB
:100B4000002001401000002040420F0001460868CC
:100B5000C06C704770B5044600250CB9012070BD0B
:100B60001549A06A884200D000BF206C30B92046E9
:100B700000F024F80020606484F83C00206C00F051
:100B8000100088B9206C20F4885040F002002064E6
:100B90002046FFF74DFE00206064206C20F002002C
:100BA00040F00100206400E0012500BF002084F82F
:100BB0003C0000BF2846D2E70100000F10B586B008
:100BC0000446142101A8FFF7A5FB194920688842B3
:100BD0002BD100BF002000901648006840F48070C0
:100BE000144908600846006800F48070009000BF57
:100BF00000BF00BF002000900E481438006840F08D
:100C000001000C49143908600846006800F0010032
:100C1000009000BF00BF022001900320029000203E
:100C2000039001A9044800F095F906B010BD00003A
:100C300000200140443802400000024070B50446E4
:100C40000D4600262068806800F48060B0F5806F53
:100C500011D12068806800F48070B0F5807F0AD1DF
:100C6000206C40F02000206400BF002084F83C008D
:100C700000BF012070BD00F06DFA064618E0681C48
:100C8000B0B125B100F066FA801BA84210D92068E7
:100C9000006800F0020002280AD0206C40F0040036
:100CA000206400BF002084F83C0000BF0320E1E77F
:100CB0002068006800F002000228E0D16FF0120006
:100CC00021680860206C40F400702064206880680F
:100CD00000F04050B8B9207EA8B92068C06A00F47E
:100CE000700020B12068806800F4806058B9206CE2
:100CF00020F480702064206C00F4805018B9206CBF
:100D000040F0010020640020B4E7000008B501466F
:100D10000020009000BF91F83C00012801D1022082
:100D200008BD012081F83C0000BF0868806800F021
:100D30000100A0B90868806840F001000B68986065
:100D40003F4800683F4BB0FBF3F000EB40000090E1
:100D500002E00098401E009000980028F9D1086831
:100D6000806800F00100002860D0086C40F2016348
:100D7000984340F4807008640868406800F480601C
:100D800028B1086C20F4005040F480500864086CCE
:100D900000F48050B0F5805F04D1486C20F006006C
:100DA000486401E00020486400BF002081F83C0056
:100DB00000BF254A6FF022000B681860506800F0F1
:100DC0001F0018BB214B0868984213D0204B0868BD
:100DD000984204D1101D006800F01F0050B11D4B57
:100DE000086898422AD11848001D006800F01F00CA
:100DF000102823D20868806800F04050F0B90868D5
:100E0000806840F080400B68986017E00F4B0868DE
:100E1000984213D10868806800F0405070B90868A3
:100E2000806840F080400B68986007E0086C40F0F4
:100E300010000864486C40F00100486400206FE72F
:100E40001000002040420F0000230140002001401C
:100E5000002101400022014070B50446A56D00F05C
:100E600079F9064694F83500022808D0802060659C
:100E700000BF002084F8340000BF012070BD20684E
:100E8000006820F01600216808602068406920F0A2
:100E9000800021684861206C08B9A06C28B12068E6
:100EA000006820F00800216808602068006820F0D1
:100EB00001002168086010E000F04CF9801B052853
:100EC0000BD920206065032084F8350000BF002086
:100ED00084F8340000BF0320D0E72068006800F0E9
:100EE00001000028E8D194F85C103F208840A860F9
:100EF000012084F8350000BF002084F8340000BFD2
:100F000000BFBBE7014691F83500022803D08020DE
:100F1000486501207047052081F8350008680068A1
:100F200020F001000A6810600020F3E770B5044665
:100F300000F010F906462546681C10B104480078F8
:100F4000054400BF00F006F9801BA842FAD370BD2B
:100F50000C000020F8B502460B46002500240020B6
:100F60000021D6E0012606FA01F51E6806EA05040E
:100F7000AC4274D11E7906F00306012E04D01E790E
:100F800006F00306022E13D190684F000326BE40E0
:100F9000B0434F00DE68BE40304390605068012689
:100FA0008E40B0431E79C6F300168E403043506029
:100FB0001E7906F00306032E09D0D0684F000326E1
:100FC000BE40B0434F009E68BE403043D0601E79A3
:100FD00006F00306022E13D1CF0802F1200656F8C0
:100FE00027004E07F70E0F26BE40B0434F07FF0EF7
:100FF0001E69BE403043CF0802F1200646F82700A4
:1010000010684F000326BE40B0431E7906F0030669
:101010004F00BE40304310605E6806F44036002E3C
:1010200076D000BF002600963C4E366846F48046D7
:101030003A4F3E603E46366806F48046009600BF52
:1010400000BF374E8F0856F827008E07370F0F2640
:10105000BE40B043334EB24202D1002624E057E0F6
:10106000314EB24201D101261EE0304EB24201D1D2
:10107000022619E02E4EB24201D1032614E02D4E75
:10108000B24201D104260FE02B4EB24201D1052617
:101090000AE02A4EB24201D1062605E0284EB242AD
:1010A00001D1072600E008268F073F0FBE403043DE
:1010B0001B4E8F0846F82700224E3068A0435E681A
:1010C00006F4801606B120431E4E3060361D30688F
:1010D000A0435E6806F4001606B12043194E361D83
:1010E0003060184E361F3068A0435E6806F4003644
:1010F00006B12043134E361F3060361F3068A043C0
:101100005E6806F4803606B120430E4E083E30601D
:10111000491C1029FFF426AFF8BD000044380240F6
:10112000083801400000024000040240000802406C
:10113000000C02400010024000140240001802405F
:10114000001C0240083C01400AB1816101E00B042F
:101150008361704701480068704700000400002068
:10116000034800680349097808440149086070474A
:10117000040000200C00002010B50D48006840F469
:1011800000700B4908600846006840F48060086001
:101190000846006840F480700860032000F0D6F82C
:1011A0000F2000F007F800F055F8002010BD0000F7
:1011B000003C0240F0B587B004460026002700BF7F
:1011C000002000901E48006840F001001C490860A3
:1011D0000846006800F00100009000BF00BF01A9B0
:1011E00002A800F089F900F0BFF946001548B6FBE7
:1011F000F0F0471E14481549086040F2E7311348E3
:10120000C1604760002101618160816100F064FC80
:10121000054695B90D4800F093FC05466DB91920B7
:1012200000F042F8102C07D200222146192000F0CD
:101230004FF80748046000E00125284607B0F0BDDC
:101240004438024040420F00000001406403002087
:101250000800002008B500BF002000901148006879
:1012600040F480400F4908600846006800F4804060
:10127000009000BF00BF00BF00200090081F006862
:1012800040F08050091F08600846006800F0805058
:10129000009000BF00BF00220F21901E00F018F840
:1012A00008BD0000443802400146084600280DDB16
:1012B00000BF00BF00F01F0301229A4043099B00BA
:1012C00003F1E023C3F8002100BF00BF00BF704757
:1012D0002DE9F05F80460D461646002701F002FC1E
:1012E000074639462A46334601F00700C0F1070A8F
:1012F000BAF1040F02D94FF0040A01E0C0F1070A65
:10130000D14600F1040ABAF1070F02D24FF0000AE9
:1013100001E0A0F1030AD4464FF0010A0AFA09FAE3
:10132000AAF1010A0AEA020A0AFA0CFA4FF0010BC2
:101330000BFA0CFBABF1010B0BEA030B4AEA0B04B3
:101340002146404601F0D6FBBDE8F09F00BF00F00B
:101350000702064B19684FF6FF031940044B0B4375
:1013600043EA0221014B196000BF70470CED00E019
:101370000000FA0570B504460D460CB9012070BD99
:101380005848006800F00700A84209D255490D707E
:101390000846006800F00700A84201D00120EEE7EF
:1013A000207800F0020002281DD1207800F004000F
:1013B000042805D14C48006840F4E0504A490860D0
:1013C000207800F00800082805D14748006840F45C
:1013D0006040454908604448006820F0F000A1687A
:1013E000084341490860207800F00100A8B3606814
:1013F000012807D13C4808380068C0F34040B8B91C
:101400000120BCE76068022802D06068032807D189
:10141000354808380068C0F3406048B90120AEE79D
:10142000314808380068C0F3400008B90120A6E739
:101430002D48006820F00300616808432A490860CD
:10144000FFF788FE064609E0FFF784FE801B41F2A5
:101450008831884202D9032091E707E022480068DA
:1014600000F00C006168B0EB810FEDD11D48006801
:1014700000F00700A84209D91A490D700846006813
:1014800000F00700A84201D0012078E7207800F0A2
:101490000400042807D11448006820F4E050E168F3
:1014A000084311490860207800F00800082808D196
:1014B0000D48006820F46040216940EAC1000A49F3
:1014C000086000F061F808490968C1F30311074A90
:1014D000515CC8400649086006480068FFF76AFE8C
:1014E00000204CE7003C0240083802403844000825
:1014F00010000020080000200F2202600D4A126830
:1015000002F0030242600B4A126802F0F0028260AD
:10151000084A126802F4E052C260064A126802F4F5
:101520006042D2080261044A126802F007020A60AF
:101530007047000008380240003C02400148006843
:10154000704700001000002000B5FFF7F7FF0449C6
:101550000968C1F38221034A515CC84000BD000004
:10156000083802404844000800B5FFF7E7FF044987
:101570000968C1F34231034A515CC84000BD000014
:1015800008380240484400082DE9F04700240025AF
:101590000026A1462548006800F00C0020B1042870
:1015A00005D008283AD105E0DFF8849039E0DFF86B
:1015B000849036E01D48001F006800F03F041B487F
:1015C000001F006800F4800078B11A481749091F0D
:1015D0000968C1F38811A0FB01700146224600236F
:1015E0003846FEF74DFE05460EE011480F49091F2B
:1015F0000968C1F38811A0FB01700146224600234F
:101600003846FEF73DFE05460848001F0068C0F357
:101610000140401C4600B5FBF6F902E0DFF81090EF
:1016200000BF00BF4846BDE8F08700000838024010
:101630000024F40000127A00F8B504460CB9012029
:10164000F8BD207800F00100002874D0F948006847
:1016500000F00C0004280DD0F648006800F00C00E3
:10166000082813D1F348001F006800F48000B0F58B
:10167000800F0BD1EF4808380068C0F340400028C5
:1016800059D06068002856D10120D9E700BF6068B2
:10169000B0F5803F08D1E7480838006840F4803052
:1016A000E449083908601EE06068B0F5A02F0DD14C
:1016B000E0480838006840F48020DE4908390860B6
:1016C0000846006840F4803008600CE0D9480838CB
:1016D000006820F48030D74908390860084600685F
:1016E00020F48020086000BF606890B1FFF732FDF1
:1016F000054606E0FFF72EFD401B642801D90320B4
:101700009EE7CC4808380068C0F340400028F1D07C
:1017100011E0FFF71FFD054606E0FFF71BFD401B2C
:10172000642801D903208BE7C24808380068C0F359
:1017300040400028F1D1207800F0020002285FD15B
:10174000BC48006800F00C0058B1BA48006800F0CE
:101750000C0008281CD1B748001F006800F4800066
:10176000B0B9B44808380068C0F3400020B1E06860
:10177000012801D0012063E7AE480838006820F056
:10178000F800216940EAC100AA490839086037E039
:10179000E06800B30120A8490860FFF7DBFC0546BC
:1017A00006E0FFF7D7FC401B022801D9032047E7DA
:1017B000A04808380068C0F340000028F1D09D48D8
:1017C0000838006820F0F800216940EAC100994912
:1017D0000839086014E0002097490860FFF7BAFC58
:1017E000054606E0FFF7B6FC401B022801D903209E
:1017F00026E7904808380068C0F340000028F1D17F
:10180000207800F0080008282CD16069A8B10120D8
:101810008A490860FFF79EFC054606E0FFF79AFC40
:10182000401B022801D903200AE782486C30006877
:10183000C0F340000028F1D014E000207F49086088
:10184000FFF788FC054606E0FFF784FC401B0228F2
:1018500001D90320F4E677486C300068C0F34000FB
:101860000028F1D1207800F00400042870D100276E
:1018700070483830006800F0805090B900BF0020F8
:1018800000906C483830006840F080506949383129
:1018900008600846006800F08050009000BF00BF5C
:1018A00001276748006800F48070B0B96448006898
:1018B00040F4807062490860FFF74CFC054606E082
:1018C000FFF748FC401B022801D90320B8E65C481A
:1018D000006800F480700028F2D000BFA0680128E2
:1018E00008D154486830006840F00100514968311F
:1018F00008601DE0A06805280DD14E4868300068DA
:1019000040F004004B49683108600846006840F028
:10191000010008600CE047486830006820F00100D2
:101920004449683108600846006820F004000860F7
:1019300000BFA068A8B1FFF70DFC054609E0FFF75E
:1019400009FC401B41F28831884202D9032077E626
:1019500026E0384868300068C0F340000028EED028
:1019600013E0FFF7F7FB054608E0FFF7F3FB401B2A
:1019700041F28831884201D9032061E62D48683060
:101980000068C0F340000028EFD1012F07D129489B
:101990003830006820F0805026493831086000BF98
:1019A000A069002845D02348006800F00C000828F2
:1019B0005DD0A069022845D100201F490866FFF7C5
:1019C000C9FB054606E0FFF7C5FB401B022801D90D
:1019D000032035E6174808380068C0F34060002847
:1019E000F1D1D4E907010843616A40EA811101227B
:1019F000A06AC2EB500041EA00412C20005D41EAA0
:101A000000600C49091F086001200B490866FFF7B8
:101A1000A1FB054606E0FFF79DFB401B022801D90C
:101A200003200DE6034808380068C0F34060002832
:101A3000F1D049E00838024000004742800E47429A
:101A400000700040002021490866FFF783FB05462F
:101A500006E0FFF77FFB401B022801D90320EFE5DA
:101A60001B480068C0F340600028F2D12CE0A06958
:101A7000012800D1E4E51648001D0668A069012888
:101A800020D006F48001E06981421BD106F03F01BD
:101A9000206A814216D147F6C0703040616AB0EBCF
:101AA000811F0FD106F440310122A06AC2EB500021
:101AB000B1EB004F06D106F070612C20005DB1EB58
:101AC000006F01D00120BBE50020B9E500004742CE
:101AD000003802407047704710B504460CB9012029
:101AE00010BD94F83D0028B9002084F83C00204641
:101AF00000F025F8022084F83D00211D206800F048
:101B00000DFD012084F8460000BF84F83E0001214D
:101B10003F200155402001554120015500BF00BF25
:101B2000012084F8420043200155442001554520FE
:101B3000015500BF012084F83D000020D0E7704728
:101B4000014691F83D00012801D001207047022094
:101B500081F83D000868C06840F001000B68D8605B
:101B60001A4B086898421BD00868B0F1804F17D014
:101B7000174B0868984213D0164B086898420FD04C
:101B8000154B086898420BD0144B0868984207D050
:101B9000134B0868984203D0124B086898420CD146
:101BA0000868806800F00702062A0CD00868006800
:101BB00040F001000B68186005E00868006840F01C
:101BC00001000B6818600020C0E700000000014021
:101BD0000004004000080040000C004000040140E8
:101BE0000040014000180040704770B5044620686E
:101BF000C5682068066906F00200022819D105F0C0
:101C00000200022815D1401F2168086101202077B9
:101C10002068806900F0030018B12046FFF7E4FF58
:101C200005E0204600F097F8204600F095F80020E7
:101C3000207706F00400042819D105F004000428D8
:101C400015D1C0432168086102202077206880698F
:101C500000F4407018B12046FFF7C6FF05E02046AB
:101C600000F079F8204600F077F80020207706F0A1
:101C70000800082819D105F00800082815D1C0432C
:101C800021680861042020772068C06900F0030003
:101C900018B12046FFF7A8FF05E0204600F05BF8EA
:101CA000204600F059F80020207706F01000102898
:101CB00019D105F01000102815D1C0432168086122
:101CC000082020772068C06900F4407018B12046D1
:101CD000FFF78AFF05E0204600F03DF8204600F0BF
:101CE0003BF80020207706F0010048B105F0010024
:101CF00030B16FF0010021680861204600F02EF835
:101D000006F08000802809D105F08000802805D1E8
:101D1000C043216808612046FFF7DCFE06F0400062
:101D2000402809D105F04000402805D1C043216872
:101D30000861204600F01EF806F02000202809D196
:101D400005F02000202805D1C04321680861204605
:101D5000FFF7C1FE70BD70477047000010B5044624
:101D600003492068884201D1FFF7FAF910BD00004D
:101D70000000014070477047704700002DE9F84FA0
:101D80000446206805682068C668206847694FF0E7
:101D90000009CA4605F00F09B9F1000F0AD105F094
:101DA000200038B106F0200020B1204600F075FC7C
:101DB000BDE8F88FB9F1000F7CD007F0010018B929
:101DC00006F49070002875D005F0010030B106F4DB
:101DD000807018B1606C40F00100606405F0040090
:101DE00030B107F0010018B1606C40F0020060648F
:101DF00005F0020030B107F0010018B1606C40F04E
:101E00000400606405F0080048B106F0200010B935
:101E100007F0010018B1606C40F008006064606C6D
:101E2000002846D005F0200028B106F0200010B1AF
:101E3000204600F032FC20684069C0F3801A606CD4
:101E400000F0080010B9BAF1000F2DD0204600F0C4
:101E5000DEFB2068406900F04000402820D100BF30
:101E600000BF2168143151E8001F21F040002168B3
:101E7000143141E80002002AF3D100BFE06B50B1F9
:101E80007F48E16B0865E06BFFF73CF888B1E06BD9
:101E9000016D88470DE02046FFF76EFF09E009E07D
:101EA0002046FFF769FF04E02046FFF765FF0020AA
:101EB00060647DE7206B012878D105F010000028D0
:101EC00074D006F010000028FAD000BF0020009067
:101ED00020680068009020684068009000BF00BF44
:101EE0002068406900F04000402870D1E06B006835
:101EF00040681FFA80F8B8F1000F58D0A08D404517
:101F000055DDA4F82E80E06BC069B0F5807F43D02A
:101F100000BF00BF21680C3151E8001F21F4807020
:101F200021680C3141E80002002AF3D100BF00BF54
:101F300000BF2168143151E8001F21F00100216821
:101F4000143141E80002002AF3D100BF00BF00BFF6
:101F50002168143151E8001F21F04000216814313C
:101F600041E80002002AF3D100BF202084F842009B
:101F70000020206300BF00BF21680C3151E8001F22
:101F800021F0100021680C3141E80002002AF3D151
:101F900000BFE06BFEF760FF02206063A08DE28D62
:101FA000801A81B22046FFF7E6FE0EE052E0A08DD7
:101FB00040450AD1E06BC069B0F5807F05D10220B1
:101FC0006063A18D2046FFF7D6FEF1E6FFE7A08D06
:101FD000E18D401A1FFA80F8E08DD0B3B8F1000F00
:101FE00037D000BF00BF21680C3151E8001F21F439
:101FF000907021680C3141E80002002AF3D100BF43
:1020000000BF00BF2168143151E8001F21F001001A
:102010002168143141E80002002AF3D100BF2020DA
:1020200084F842000020206300BF00BF21680C310B
:1020300051E8001F21F0100021680C3141E8000236
:10204000002AF3D100BF0220606341462046FFF71B
:1020500092FEADE605F0800030B106F0800018B1C8
:10206000204600F0AFFCA3E605F0400030B106F0DA
:10207000400018B1204600F000FB99E600BF97E64B
:10208000FD25000810B504460CB9012010BDA0695B
:1020900000B100E000BF94F8410028B9002084F8A6
:1020A0004000204600F02AF8242084F841002068EF
:1020B000C06820F400502168C860204600F06CFB26
:1020C0002068006920F49040216808612068406918
:1020D00020F02A00216848612068C06840F4005060
:1020E0002168C86000206064202084F8410084F8E2
:1020F00042000020606300BFC8E7000010B586B052
:102100000446142101A8FEF705F91F4920688842FA
:1021100038D100BF002000901C48006840F010003B
:102120001A4908600846006800F01000009000BFDF
:1021300000BF00BF0020009014481438006840F031
:1021400001001249143908600846006800F00100D7
:10215000009000BF00BF4FF4C060019002200290C9
:1021600000200390032004900720059001A908484F
:10217000FEF7F0FE002204212520FFF7A9F8252014
:10218000FFF792F806B010BD00100140443802403D
:102190000000024070472DE9F84F04460E461746EE
:1021A00099464FF0000A94F84100202850D106B11A
:1021B00017B90120BDE8F88F00206064212084F861
:1021C0004100FEF7C7FF8246A784E784A068B0F508
:1021D000805F04D1206910B90025B04602E0354681
:1021E0004FF000081EE05346002280212046CDF823
:1021F000009000F017FC20B1202084F8410003205B
:10220000D8E745B9B8F80000C0F308002168486075
:1022100008F1020803E02878216848606D1CE08C12
:10222000401EE084E08C0028DDD15346002240218E
:102230002046CDF8009000F0F5FB20B1202084F876
:1022400041000320B6E7202084F841000020B1E7D8
:102250000220AFE7704700BFFEE700001FB5002077
:1022600000900190029003901548164908604FF4C1
:10227000803048600021134881600161017680F858
:102280002010C162104981620021C1600121C16139
:10229000002180F8301001214161FEF75BFC08B19C
:1022A000FEF779FB01200090019000200290694622
:1022B0000448FEF785FB08B1FEF76DFB1FBD00006B
:1022C00000200140D40200200100000F00B587B0BB
:1022D0001C2206496846FEF704F80021684601F012
:1022E0002FF90349086007B000BD00001C44000836
:1022F0000000002000B587B0142102A8FEF70AF8FC
:1023000000BF002001902D48006840F010002B49CC
:1023100008600846006800F01000019000BF00BF90
:1023200000BF002001900846006840F004000860EB
:102330000846006800F00400019000BF00BF00BF25
:10234000002001900846006840F0800008600846C0
:10235000006800F08000019000BF00BF00BF0020B7
:1023600001900846006840F00100086008460068D7
:1023700000F00100019000BF00BF00BF00200190ED
:102380000846006840F0020008600846006800F057
:102390000200019000BF00BF002208210848FEF79C
:1023A000D3FE0820029001200390002004900590A5
:1023B00002A90348FEF7CEFD07B000BD3038024049
:1023C0000010024010B50B480B4908604FF4E13093
:1023D0004860002108488160C16001610C214161B1
:1023E00000218161C161FFF74DFE08B1FEF7D3FA0C
:1023F00010BD0000001001401C03002000BFFEE7DC
:1024000000BFFEE700BF012001F089F8FBE70000F4
:1024100010B500BF502080F31188BFF34F8FBFF37A
:102420006F8F00BF01F0D4FE18B14FF08050044907
:10243000086000BF002080F3118800BF10BD0000BD
:1024400004ED00E000B593B0302107A8FDF762FF6E
:10245000142102A8FDF75EFF00BF00200190244870
:10246000006840F08050224908600846006800F08B
:102470008050019000BF00BF00BF002001901D48A8
:10248000006840F480401B4908600846006800F47A
:102490008040019000BF00BF012007900004089019
:1024A00002200D9041050E9104210F91A821109159
:1024B000022111910421129107A8FFF7BDF808B17C
:1024C000FEF769FA0F20029002200390002004908A
:1024D0004FF4A05005904FF480500690052102A8BB
:1024E000FEF748FF08B1FEF756FA13B000BD000032
:1024F00040380240007000400348006840F470001B
:10250000014908607047000088ED00E010B50248FE
:10251000FFF76BFB10BD00006403002010B50268DC
:102520002B4B98420ED0B0F1804F0BD0294B9842E4
:1025300008D0294B984205D0284B984202D0284B0E
:10254000984203D122F070024B681A43204B984204
:1025500020D0B0F1804F1DD01E4B98421AD01E4B98
:10256000984217D01D4B984214D01D4B984211D061
:102570001C4B98420ED01C4B98420BD01B4B9842E0
:1025800008D01B4B984205D01A4B984202D01A4BE8
:10259000984203D122F44072CB681A4322F08003A0
:1025A0004C6943EA04028B68C3620B688362084B80
:1025B000984202D00A4B984201D10B690363036829
:1025C00043F00403036001234361026010BD000077
:1025D000000001400004004000080040000C0040E2
:1025E0000004014000400140004401400048014017
:1025F00000180040001C00400020004070B5044658
:10260000A56B0020E8852846FFF7B6FB70BD00BF2C
:1026100000BF02680C3252E8002F22F49071026869
:102620000C3242E80013002BF3D100BF00BF00BF03
:102630000268143252E8002F22F0010102681432BD
:1026400042E80013002BF3D100BF016B01290ED12A
:1026500000BF00BF02680C3252E8002F22F01001C8
:1026600002680C3242E80013002BF3D100BF202196
:1026700080F8421000210163704710B504462068BD
:10268000C06820F040002168C860202084F8410024
:102690002046FFF7DFFD002010BDF8B504460025F9
:1026A000002694F84200222873D1A068B0F5805F1C
:1026B0000BD1206948B9A66A20684068C0F30800B9
:1026C0003080A06A801CA06214E0A56AA068B0F502
:1026D000805F03D0A06828B9206918B920684068D5
:1026E000287004E02068406800F07F002870A06A2D
:1026F000401CA062E08D401E80B2E085002846D1DB
:102700002068C06820F020002168C8602068C06888
:1027100020F480702168C8602068406920F00100C2
:1027200021684861202084F8420000206063206B0B
:10273000012826D10020206300BF00BF21680C3192
:1027400051E8001F21F0100021680C3141E800021F
:10275000002AF3D100BF2068006800F010001028A4
:102760000AD100BF00200090206800680090206817
:102770004068009000BF00BFA18D2046FFF7FBFA24
:1027800002E02046FFF706FD0020F8BD01E0002032
:10279000FBE70220F9E700002DE9F84F0446206826
:1027A000006920F44050E16808432168086121690C
:1027B000A068084361690843E16908430090206804
:1027C000C06849F20C618843009908432168C860D9
:1027D0002068406920F44070A1690843216848617D
:1027E00076492068884203D075492068884203D121
:1027F000FEF7BAFE814602E0FEF7A6FE8146E069DA
:10280000B0F5004F6CD102206168A0FB0150034677
:102810001920A9FB007001462A463846FDF730FD15
:102820006421B0FBF1F04FEA001A02206168A0FBBE
:1028300001510B461920A9FB00712A463846FDF7C5
:102840001FFD834602206168A0FB0150034619204A
:10285000A9FB00712A463846FDF712FD6421B0FB42
:10286000F1F000EBC00101EB0010ABEB8000322176
:1028700001EBC0006421B0FBF1F000F0F8000AEBBE
:10288000400A02206168A0FB015003461920A9FB01
:10289000007001462A463846FDF7F2FC83460220C6
:1028A0006168A0FB015003461920A9FB00712A466C
:1028B0003846FDF7E5FC6421B0FBF1F000EBC00108
:1028C00001EB0010ABEB8000322101EBC000642172
:1028D000B0FBF1F000F007005044216888606AE026
:1028E00004206168A0FB015003461920A9FB007079
:1028F00001462A463846FDF7C3FC8246042061683B
:10290000A0FB015003461920A9FB007001462A468E
:102910003846FDF7B5FC6421B0FBF1F000EBC001D7
:1029200001EB0010AAEB8000322101EB00106421C2
:10293000B0FBF1F000F0F00A04206168A0FB017028
:1029400003461920A9FB00513A462846FDF798FC9A
:102950006421B0FBF1F00AEB001A04206168A0FBCF
:1029600001510B461920A9FB00712A463846FDF794
:1029700087FC834604206168A0FB015003461920B0
:10298000A9FB007001462A463846FDF779FC642110
:10299000B0FBF1F000EBC00101EB0010ABEB8000ED
:1029A000322101EB00106421B0FBF1F000F00F00C8
:1029B000504421688860BDE8F88F00000010014095
:1029C00000140140014691F84100212828D188686F
:1029D000B0F5805F0BD1086948B90A6A1088C0F366
:1029E00008000B685860086A801C086205E00B6AE2
:1029F000581C086218780B685860C88C401E80B25A
:102A0000C88458B90868C06820F080000B68D86096
:102A10000868C06840F040000B68D860002070472C
:102A20000220FCE72DE9F84304460D461746984678
:102A3000089E31E0701C70B3FEF78CFBA0EB080021
:102A4000B04200D816B90320BDE8F8832068C068FA
:102A500000F00400F8B1802D1ED0402D1CD020685D
:102A60000068C0F3C000B0B100BF00200090206833
:102A70000068009020684068009000BF00BF2046BA
:102A8000FFF7C5FD0820606400BF002084F8400007
:102A900000BF0120D8E7FFE7206800682840A8426F
:102AA00001D1012000E00020B842C3D00020CBE7D4
:102AB00010B50248FFF762F910BD00001C030020AA
:102AC00000BFFEE70FB4054B10B503A9044A0298F6
:102AD00000F0F6F810BC5DF814FB0000F1330008BC
:102AE0007C00002002480068C0F30220704700000C
:102AF0000CED00E010B5002804DB0A07130E054AB0
:102B0000135406E00A07140E034A00F00F031B1FBC
:102B1000D45410BD00E400E018ED00E002E008C865
:102B2000121F08C1002AFAD170477047002001E047
:102B300001C1121F002AFBD1704700002DE9FF5F81
:102B400082B00021DDE90430020DDDF840B003431E
:102B500018D044F61050A2F2FF32424315141198D7
:102B600001281FD0A5EB0B00401C5FEA000A4FF0C4
:102B700000064E4FDFF83891B046504615D5CAF1E1
:102B8000000413E0119801244AA3012801D16FEA3F
:102B90000B010298119AC0E90031C0E9024206B067
:102BA000BDE8F09FCBF10000DFE704460021404A7A
:102BB000491842EB0450CDE9001012E0E00707D0BD
:102BC00032463B4640464946FDF79EFC80468946D4
:102BD00032463B4610461946FDF796FC06460F4620
:102BE0006410002CEAD1DDE90401DDE90023BAF12B
:102BF000000F06DAFDF788FC42464B46FDF784FCE1
:102C000005E0FDF7F3FC42464B46FDF7EFFC0446BA
:102C10000E460022284BFDF771FD03D84FF0FF3020
:102C2000014607E00022254B20463146FDF7C5FB53
:102C3000FDF74BFD102409E0002C0ADB0A220023DB
:102C4000FDF71EFB039B30321A55641E50EA010249
:102C5000F2D1641C039AC4F111031444119A012A9D
:102C600003D0012208430DD10AE0084304D000201C
:102C70004FF0110B119072E7A3EB0B056D1E0DE0E9
:102C80005B4504DD4FF0000205F1010504E003DAC5
:102C90004FF00002A5F10105002AECD0029811992D
:102CA000C0E90231C0E9004579E7000000001440A6
:102CB0000000F03F300000000000F0430000E03F63
:102CC0002DE9FF4F95B09B468946064600250FE249
:102CD000252877D100242746F84A0121059400E0F1
:102CE000044316F8013F203B01FA03F01042F7D1EC
:102CF00030782A2811D06FF02F033078A0F13002FD
:102D0000092A16D8059A44F0020402EB820203EB6A
:102D100042021044761C0590EFE759F8042B059207
:102D2000002A03DA504244F40054059044F00204AF
:102D3000761C30782E2816D116F8010F44F00404C2
:102D40002A280DD06FF02F023078A0F13003092B24
:102D500009D807EB870302EB4303C718761CF3E798
:102D600059F8047B761C30786C280FD006DC4C2890
:102D700017D068280DD06A2814D104E0742810D028
:102D80007A280FD10DE044F400140AE044F48014D2
:102D900001E044F440147278824202D104F58014B8
:102DA000761C761C307866280BD013DC582877D038
:102DB00009DC002875D04528F6D04628F4D04728ED
:102DC0001AD19DE118E0632835D0642879D06528B0
:102DD00012D195E1702873D008DC6728F1D06928FA
:102DE0006FD06E280DD06F2806D1B5E073282CD097
:102DF000752875D0782874D05A46179990476D1C5D
:102E000075E1C4F30250022809D003280DD0D9F887
:102E1000001004280DD00D6009F1040967E1D9F80C
:102E20000010EA17C1E90052F6E7D9F800100D804A
:102E3000F2E70D70F0E719F8041B8DF80010002080
:102E40008DF80100EA46012003E059F804AB4FF089
:102E5000FF3061074FF0000102D40DE008F10101DD
:102E60008846B9420FDA8045F8DB1AF808100029C5
:102E7000F4D108E008F1010188468142FADB1AF832
:102E800008100029F6D105985B46A0EB08072146FB
:102E90003846179A00F094FA284400EB080507E03A
:102EA0004DE029E10DE01AF8010B5A4617999047B9
:102EB000B8F10108F7D25B4621463846179A13E16C
:102EC00042E00A220092C4F302524FF0000A022AA2
:102ED00008D059F804CB032A4FEAEC710AD00DE070
:102EE00029E02AE009F1070121F00702F2E802C116
:102EF000914609E00FFA8CFC4FEAEC71042A03D1E9
:102F00004FFA8CFC4FEAEC71002907DA0A460021DF
:102F1000DCF1000C61EB02012D2202E0220504D558
:102F20002B228DF80420012203E0E20701D02022A9
:102F3000F7E7904659E00A2102E010220DE0102147
:102F40004FF0000A00910BE010224FF0000A44F00D
:102F500004040827009203E008224FF0000A0092C0
:102F6000C4F30252022A05D059F804CB0021032AE7
:102F700008D009E009F1070121F00702F2E802C1D7
:102F8000914605E01FFA8CFC042A01D10CF0FF0CDD
:102F90004FF00008220728D5702806D0009B83F048
:102FA000100353EA0A0305D00EE040228DF80420F6
:102FB000012208E05CEA010206D030228DF80420EC
:102FC0008DF8050002229046009B83F0080353EA27
:102FD0000A030AD15CEA010201D1620705D5302259
:102FE0008DF804204FF001087F1E582804D034A02B
:102FF00003900EA802900DE036A0F9E75346604614
:10300000009AFDF73DF984460398825C0298401EC1
:10301000029002705CEA0100F0D1029806A9081A39
:1030200000F1200A600702D524F4803400E0012773
:10303000574502DDA7EB0A0000E0002000EB0A0183
:10304000009005984144401A0590E00306D45B4681
:103050002146179A059800F0B3F90544002706E0C9
:1030600001A85A46C05D179990476D1C7F1C4745C3
:10307000F6DBE0030CD55B462146179A059800F075
:103080009FF9054404E030205A46179990476D1C7B
:103090000099481E00900029F5DC08E0029802998A
:1030A0005A460078491C0291179990476D1CBAF155
:1030B0000001AAF1010AF1DC65E100000928010024
:1030C000303132333435363738396162636465669E
:1030D0000000000030313233343536373839414260
:1030E000434445460000000000F058F90544761CB2
:1030F000307800287FF4ECAD19B02846BDE8F08F99
:10310000620700D4062709F1070222F0070CFCE849
:103110000223E14603F000485FEA080C02D00FF2F8
:10312000702C0DE05FEA045C02D50FF2682C07E01A
:103130005FEAC47C02D00FF2602C01E0AFF2700CA9
:103140004FF0FF3823F00043CDF850C065280CD075
:1031500006DC452809D046281DD047283DD13DE052
:10316000662818D067287ED138E00021112F01DBB6
:10317000112000E0781CCDE9000106A90EA8FFF798
:10318000DDFCDDE90F010E9A03910021009207F1A9
:10319000010A04914DE04FF000400097CDE9011085
:1031A00006A90EA8FFF7CAFCDDE90F0203920E9BE9
:1031B00011990022DDF80CA00093049211B9791C3A
:1031C00000EB010AB7EB0A0004D4C0F1FF3007F1AD
:1031D000010A0490AAEB0700019044E0012F00DAF5
:1031E00001270021112F01DD112000E03846CDE933
:1031F000000106A90EA8FFF7A1FCDDE90F010E9A58
:103200000391002104910092BA4621070CD403993E
:10321000514500DA8A46BAF1010F05DD009AAAF19C
:103220000101515C302908D0B84202DA10F1040FD4
:1032300006DA0121CDE9011015E0AAF10101E9E763
:10324000002805DC049901440491AAEB000102E086
:10325000411C514500DD8A460499401A401C0190EA
:103260004FF000400290200704D40198504501DB44
:10327000CDF8048000208DF84F0002980DF14F0723
:10328000B0F1004F25D02B200E9002984FF002088D
:1032900000280CDA404202902D200E9007E00A210F
:1032A0000298FDF755F83031029007F8011DB8F18A
:1032B0000001A8F10108F2DC02980028EFD1791E84
:1032C0000E980870307800F0200040F0450007F8B4
:1032D000020D12A8C01B00F107081498007800B175
:1032E000012000EB0A01019801EBE07105984144CF
:1032F000401A401E0590E00306D45B462146179A0B
:10330000059800F05DF805441498007818B15A4605
:10331000179990476D1CE00324D55B462146179A08
:10332000059800F04DF805441CE00498002807DBE0
:10333000DDE90301884203DD0098405C179901E054
:10334000179930205A469047049805F10105401C12
:1033500004900198401E019004D12E205A461799DE
:1033600090476D1CBAF10001AAF1010ADDDC05E00D
:1033700017F8010B5A46179990476D1CB8F10001D8
:10338000A8F10108F4DC5B462146179A0598ABE6E4
:103390002D0000002B000000200000002DE9F0416E
:1033A000044600251E461746880404D405E0394625
:1033B0002020B0476D1C641EF9D52846BDE8F08179
:1033C0002DE9F041044600251E469046C80301D56C
:1033D000302700E02027880404D505E04146384620
:1033E000B0476D1C641EF9D52846BDE8F081000089
:1033F00013B50C464FF0FF33012269460248FEF731
:10340000CAFE00981CBD00001C0300202DED028B9D
:103410008AB0FDF7B1FEFFF715F8FEF76BFFFEF778
:10342000D1FFFEF71BFF1C221CA103A8FCF759FFCC
:103430004FF0FF33192203A91F48FEF7ACFE1FA06F
:10344000FFF740FB002421E0FDF7A8FA054600EE57
:10345000105AB8EE400ADFED1F0A20EE200ADFED19
:103460001E0A80EE201A11EE106A3046FCF75DFF4E
:1034700041EC180B8DED008B2A46611C17A0FFF75D
:1034800021FB4FF4FA70FDF751FD641C642CDBDB6B
:10349000FEF71CFF00F04FF800BFFEE748656C6CBC
:1034A0006F2055415254202D20B3F5CABCBBAFCD7F
:1034B000EAB3C90D0A0000001C03002053544D3329
:1034C0003220B4AEBFDACAB5D1E9BFAACABC200D5A
:1034D0000A0000003333534000F07F45C6F4B6AF16
:1034E000B2E2CAD4202564202D20414443205661F5
:1034F0006C75653A202568752028566F6C74616775
:10350000653A20252E32662056290D0A000000005B
:1035100001460020842901D0CA1C1044704770B5B0
:10352000044625460DB1294600E00121084600F079
:1035300037FC002070BD10B500F060FC002010BD0D
:103540007FB504460D46606998B1A06988B1B4F9A9
:103550000800FFF7DDFF0646D4E90510CDE900615C
:1035600002902B462269D4E9001000F0D3FD0390AD
:1035700013E0B4F90800FFF7CBFF064603A8CDE936
:103580000060238A9AB22B46D4E9001000F090FD27
:10359000012802D0002004B070BD0398FBE70000B2
:1035A0002DE9F04105460E461C4807681C48006896
:1035B000001D00F0F1FA50B91948006890F82C107D
:1035C0000120884017490968814316480160681C3A
:1035D00038B936B112480168091D134800F026FBBE
:1035E0001AE07C190E4800684460BC4207D20C48BF
:1035F0000168091D0D48006800F0FEFA0CE008485B
:103600000168091D0A48006800F0F6FA09480068D8
:10361000844201D207480460BDE8F0812800002000
:10362000140000202C000020880400201C00002032
:10363000180000204400002010B5044600F002FBF2
:1036400023480068401C224908602248006840B9AD
:10365000204804600846006801280DD100F03EF9BA
:103660000AE01D48006838B91A480068C06AE16A73
:10367000884201D81748046018480068401C174960
:10368000086094F82C100120884015490968084307
:1036900013490860E16A01EB8101124A02EB8100E3
:1036A000211D00F0C3FA00F0F7FA0B48006868B17A
:1036B00008480068C06AE16A884207D24FF080502B
:1036C00009490860BFF34F8FBFF36F8F10BD000033
:1036D00024000020140000203000002040000020C2
:1036E0002C000020AC03002004ED00E010B516E033
:1036F00000F0A8FA0C48C068C468201D00F04CFA1D
:103700000A480068401E0949086009480068401ED0
:103710000749086000F0C0FA204600F00BF80448A2
:1037200000680028E4D110BD7404002024000020AB
:103730002000002010B5044694F8510030B9206BE9
:1037400000F0C8FA204600F0C5FA1AE094F85100DB
:10375000012803D1204600F0BDFA12E094F8510090
:10376000022801D1012000E0002050B900BF502004
:1037700080F31188BFF34F8FBFF36F8F00BF00BF7F
:10378000FEE710BD30B54FF47053174800F0070442
:103790002CB1C01D20F00700134C041B1B1B02465C
:1037A000124C22600024114D6C60D018083820F0B3
:1037B00007000F4C206000240D4D2D686C600C4DEF
:1037C0002D682C601146441A4C60094C24680C602A
:1037D000084D4C682C60084D4C682C604FF000443C
:1037E000064D2C6030BD00009C04002050000020DD
:1037F00058000020600000205C0000206C000020C9
:1038000000BFFFF773FF064800680128F9D94FF0A1
:10381000805004490860BFF34F8FBFF36F8FF0E70C
:10382000AC03002004ED00E02DE9FF5F81460E4669
:103830009246DDE90E7B109CAAF10100216B01EBA1
:10384000800828F0070808F0070008B9012000E008
:10385000002050B900BF502080F31188BFF34F8F74
:10386000BFF36F8F00BF00BFFEE786B1002507E002
:10387000715D04F134004155705D00B902E06D1CCA
:10388000102DF5D300BF00214320015502E0002098
:1038900084F83400072F00D30627E762676400200E
:1038A000A064201D00F0A5F904F1180000F0A1F9B2
:1038B0002461C7F10700A06164620020E06484F81D
:1038C000500049464046039A00F050F92060BBF191
:1038D000000F01D0CBF80040BDE8FF9F10B50024D9
:1038E00007E004EB84010F4A02EB810000F074F959
:1038F000641C072CF5D30C4800F06EF90B4800F05F
:103900006BF90B4800F068F90A4800F065F90A48BD
:1039100000F062F904480949086004480849086051
:1039200010BD0000AC030020380400204C0400202F
:103930006004002074040020880400201800002087
:103940001C00002010B50146164800E0006803681E
:103950008B42FBD30246436813448B4204D1436835
:103960004C682344436001460A464B68134404688C
:10397000A34211D10C4C03682468A34208D04B68C1
:103980000468646823444B6003681B680B6005E0AF
:10399000054B1B680B6001E003680B60884200D098
:1039A000016010BD50000020580000200A4909683D
:1039B000096809B9012100E0002121B14FF0FF3170
:1039C000064A116006E004490968C968C868034AE4
:1039D000416811607047000018000020440000207A
:1039E0000E480068401C08B9012000E0002050B9D2
:1039F00000BF502080F31188BFF34F8FBFF36F8F4C
:103A000000BF00BFFEE700BF502080F31188BFF366
:103A10004F8FBFF36F8F00BF00BFFEE77000002025
:103A20002DE9F04104464FF0000800F03FFA494804
:103A3000006808B9FFF7A6FE474800682040002844
:103A400070D1D4B1083404F00700B0B104F007001D
:103A5000C0F10800044404F0070008B9012000E0A8
:103A6000002050B900BF502080F31188BFF34F8F62
:103A7000BFF36F8F00BF00BFFEE7002C52D0374866
:103A8000006884424ED8364E3046056801E02E4626
:103A90002D686868A04202D228680028F7D12D4816
:103AA000006885423ED0306800F108082868306020
:103AB0006868001B102819D92F1907F0070008B9EA
:103AC000012000E0002050B900BF502080F3118891
:103AD000BFF34F8FBFF36F8F00BF00BFFEE7686873
:103AE000001B78606C603846FFF72CFF1B49686844
:103AF0000968081A194908600846006819490968E0
:103B0000884203D21548006816490860124968685F
:103B10000968084368600020286013480068401C5A
:103B20001149086000F0F8FB08F0070008B901200F
:103B300000E0002050B900BF502080F31188BFF38F
:103B40004F8FBFF36F8F00BF00BFFEE74046BDE859
:103B5000F0810000580000206C0000205C00002074
:103B6000500000206000002064000020001F4FF083
:103B700080730360001F21F001030360001F054BE9
:103B8000036014380260001F6FF0020303602038E6
:103B900070470000E139000801460A69D1E90130A7
:103BA0009860D1E9010358605068884201D1886863
:103BB0005060002008611068401E10601068704757
:103BC000034B0360034B0B608023136070470000BE
:103BD00080000020D400002000F1080141604FF077
:103BE000FF31816000F10801C160016100210160C5
:103BF000704700210161704710B502460B685C1CDC
:103C00000CB9106907E002F1080000E04068446860
:103C100024689C42FAD944684C604C68A160886072
:103C200041600A611468641C146010BD42684A60F7
:103C300093688B60936859609160086103685B1CAE
:103C40000360704700BF502080F31188BFF34F8F8F
:103C5000BFF36F8F00BF0E480068401C0C4908601E
:103C600008460068012812D10A480068C0B208B9A5
:103C7000012000E0002050B900BF502080F31188DF
:103C8000BFF34F8FBFF36F8F00BF00BFFEE77047DA
:103C90007000002004ED00E00D48006850B900BF3E
:103CA000502080F31188BFF34F8FBFF36F8F00BF99
:103CB00000BFFEE706480068401E05490860084648
:103CC000006820B9002080F3118800BF00BF704752
:103CD0007000002070B506463546002E44D0083DE1
:103CE0002C46224960680968084008B1012000E0BC
:103CF000002050B900BF502080F31188BFF34F8FD0
:103D0000BFF36F8F00BF00BFFEE7206808B9012036
:103D100000E0002050B900BF502080F31188BFF3AD
:103D20004F8FBFF36F8F00BF00BFFEE70F49606882
:103D300009680840C0B12068B0B90C4960680968DA
:103D40008843606000F0B2F8094960680968084477
:103D5000074908602046FFF7F5FD06480068401C4B
:103D60000449086000F0D8FA70BD00006C00002023
:103D70005C0000206800002000204FF0E021086176
:103D80008861064800684FF47A71B0FBF1F0401E7C
:103D90004FF0E021486107200861704710000020C3
:103DA00070B504460025D4B11248006808B9012056
:103DB00000E0002050B900BF502080F31188BFF30D
:103DC0004F8FBFF36F8F00BF00BFFEE700F06EF8AC
:103DD00000212046FFF7E4FB00F09EFA05463DB9BE
:103DE0004FF0805004490860BFF34F8FBFF36F8FCF
:103DF00070BD00004C00002004ED00E010B586B05E
:103E000000200590049003AA04A905A8FFF7D8FE96
:103E10000022DDE904101346CDE9002102901CA127
:103E20001D48039A00F076F91C49086008460068AE
:103E300008B1012400E00024012C15D100BF50205E
:103E400080F31188BFF34F8FBFF36F8F00BF4FF028
:103E5000FF30134908600120124908600020124910
:103E6000086000F071F810E0601C08B1012000E06B
:103E7000002050B900BF502080F31188BFF34F8F4E
:103E8000BFF36F8F00BF00BFFEE706B010BD00009C
:103E900049444C450000000001380008480000205B
:103EA0004400002030000020280000200248006864
:103EB000401C0149086070474C0000201D48006804
:103EC00018B101201C49086032E000201A4908603E
:103ED0001A480068B0FA80F0C0F11F0101EB8100C0
:103EE000174A52F8200008B1012000E0002050B924
:103EF00000BF502080F31188BFF34F8FBFF36F8F47
:103F000000BF00BFFEE701EB81020D4B03EB820017
:103F100042685268426000F108024368934202D14D
:103F20004268526842604268D268064B1A6000BF1D
:103F3000704700004C000020380000202C000020BA
:103F4000AC030020140000201CB552480068524900
:103F5000884201D0012000E0002050B900BF50206D
:103F600080F31188BFF34F8FBFF36F8F00BF00BF87
:103F7000FEE7484800684849491E884201D00120B0
:103F800000E0002050B900BF502080F31188BFF33B
:103F90004F8FBFF36F8F00BF00BFFEE73F4908465A
:103FA00000780190FF200A461070084600780090C3
:103FB0009DF8000000F0F0009DF80020904201D133
:103FC000012000E0002050B900BF502080F311888C
:103FD000BFF34F8FBFF36F8F00BF00BFFEE79DF8A9
:103FE000000000F050002E4A107007202D4A10608B
:103FF00009E02C480068401E2A4A10609DF8000025
:104000004006000E00909DF8000000F0800080281F
:10401000EFD024480068C0F10700042801D1012036
:1040200000E0002050B900BF502080F31188BFF39A
:104030004F8FBFF36F8F00BF00BFFEE719480068C6
:104040000002184A10601046008800F4E06010601A
:10405000124A019810700F482030006840F4700038
:104060000C49203108600846006840F07040086044
:10407000FFF782FE00200C490860FCF7B3F80B48FC
:10408000006840F0404009490860FCF797F80020BC
:104090001CBD000000ED00E071C20F4100E400E033
:1040A00074000020780000207000002034EF00E051
:1040B0002DE9FF4F85B0804689461746DDE912ABF2
:1040C000B800FFF7ADFC064656B15420FFF7A8FC38
:1040D00004460CB1266304E03046FFF7FBFD00E028
:1040E00000248CB1002084F85100CDE900ABCDE96B
:1040F00002403A4649464046089BFFF795FB20465A
:10410000FFF79AFA012501E04FF0FF35284609B084
:10411000BDE8F08F2DE9F04F85B0074688469146FF
:104120009A46DDE90EB6109C0EB1012000E0002099
:1041300050B900BF502080F31188BFF34F8FBFF3F9
:104140006F8F00BF00BFFEE70CB1012000E0002030
:1041500050B900BF502080F31188BFF34F8FBFF3D9
:104160006F8F00BF00BFFEE75420039003985428D0
:1041700001D1012000E0002050B900BF502080F3A1
:104180001188BFF34F8FBFF36F8F00BF00BFFEE7F3
:1041900000BFB4B1AEB125462C462E63022085F88F
:1041A0005100002004A953464A46CDE900B1CDE9AB
:1041B000025041463846FFF737FB2846FFF73CFAE6
:1041C00001E000200490049805B0BDE8F08F0000E5
:1041D0002DE9F0414FF000084448006800287CD1E8
:1041E00043480068451C4248056015BB41480068CB
:1041F000006808B9012000E0002050B900BF50203D
:1042000080F31188BFF34F8FBFF36F8F00BF00BFE4
:10421000FEE738480768384800683649086036487D
:10422000076036480068401C34490860FFF7BEFB51
:1042300000BF3348006885423CD300BF2D4800686A
:10424000006808B9012000E0002020B14FF0FF30E5
:104250002B4908602DE027480068C068C46866687C
:10426000B54202D22648066023E0201DFFF794FCE9
:10427000A06A18B104F11800FFF78EFC94F82C1016
:10428000012088401F49096808431E490860E16A07
:1042900001EB81011C4A02EB8100211DFFF7C6FCE6
:1042A0001A49E06A0968C96A8842C7D34FF0010811
:1042B000C4E700BF15480068C06A00EB80001249DF
:1042C00051F82000012801D94FF00108104800687A
:1042D00008B14FF0010805E0FFE70E480068401CF8
:1042E0000C4908604046BDE8F08100004C00002009
:1042F00028000020180000201C0000203C000020A6
:10430000440000202C000020AC03002014000020FA
:10431000380000203400002070B500240026364804
:10432000006850B900BF502080F31188BFF34F8F51
:10433000BFF36F8F00BF00BFFEE7FFF783FC2E487F
:104340000068401E2C4908600846006800284FD1CC
:104350002A48006800284BD024E02948C068C46877
:1043600004F11800FFF718FC201DFFF715FC94F866
:104370002C1001208840234909680843214908601E
:10438000E16A01EB8101204A02EB8100211DFFF768
:104390004DFC1E49E06A0968C96A884202D30120BF
:1043A0001B4908601648006808B9012000E0002099
:1043B0000028D2D00CB1FFF7F9FA1648056865B1AC
:1043C00000BFFFF705FF10B10120114908606D1E05
:1043D000002DF6D100200F4908600D48006838B163
:1043E000012630070C490860BFF34F8FBFF36F8F72
:1043F000FFF752FC304670BD4C0000202400002026
:10440000600400202C000020AC03002014000020D9
:10441000380000203400002004ED00E05044000883
:1044200005240008000000000000000080000000DB
:10443000000000000000000000000000000000007C
:10444000010203040607080900000000010203043A
:1044500064656661756C745461736B007C4400081C
:1044600000000020800000001C2B0008FC44000815
:1044700080000020204400002C2B000800000000D9
:104480000000000010000000010000000024F40003
:10449000000000000000000000000000000000001C
:1044A000000000000000000000000000000000000C
:1044B00000000000000000000000000000000000FC
:1044C00000000000000000000000000000000000EC
:1044D00000000000000000000000000000000000DC
:1044E000000000000000000000000000AAAAAAAA24
:0C44F000000000000000000000000000C0
:040000050800018965
:00000001FF
