:020000040800F2
:10000000105000205D0200084D2C000887280008D1
:10001000492C000881050008613500080000000037
:100020000000000000000000000000009D0100082A
:100030007306000800000000F9010008512C0008B8
:1000400077020008770200087702000877020008AC
:10005000770200087702000877020008770200089C
:10006000770200087702000877020008770200088C
:10007000770200087702000885050008770200086B
:10008000770200087702000877020008770200086C
:10009000770200087702000877020008770200085C
:1000A000770200084D2D000877020008770200084B
:1000B00077020008770200085D2D0008770200082B
:1000C000770200087702000877020008770200082C
:1000D000770200085135000877020008770200080F
:1000E000770200087702000877020008770200080C
:1000F00077020008770200087702000877020008FC
:1001000077020008770200087702000877020008EB
:1001100077020008770200087702000877020008DB
:1001200077020008770200087702000877020008CB
:1001300077020008770200087702000877020008BB
:1001400077020008770200087702000877020008AB
:10015000770200087702000877020008770200089B
:10016000770200087702000877020008770200088B
:1001700077020008770200087702000800000000FC
:100180007702000877020008DFF80CD000F00AF9C7
:100190000048004715AF0208105000202C4B19688A
:1001A0000868B0E8F04F80F30988BFF36F8F4FF015
:1001B000000080F3118870470000000008480068C4
:1001C000006880F308884FF0000080F3148862B65E
:1001D00061B6BFF34F8FBFF36F8F00DF00BF00BF6B
:1001E00008ED00E0DFF80C00016841F470010160E7
:1001F000704700BF88ED00E0EFF30980BFF36F8F19
:10020000134B1A681EF0100F08BF20ED108A20E96A
:10021000F04F106009B44FF0500080F31188BFF325
:100220004F8FBFF36F8F30F08DFA4FF0000080F3E7
:10023000118809BC19680868B0E8F04F1EF0100F6B
:1002400008BFB0EC108A80F30988BFF36F8F704746
:1002500010000020EFF3058070470000064880473B
:1002600006480047FEE7FEE7FEE7FEE7FEE7FEE79B
:10027000FEE7FEE7FEE7FEE7392D000889010008EA
:100280002DE9F05F0546002092469B4688460646CB
:10029000814640241BE0284641464746224600F05E
:1002A00071F853465A46C01A914110D31146184668
:1002B000224600F058F82D1A67EB01084F462246F7
:1002C0000120002100F04FF817EB00094E41201EDD
:1002D000A4F10104DFDC484631462A464346BDE826
:1002E000F09F40EA01039B0703D009E008C9121FF1
:1002F00008C0042AFAD203E011F8013B00F8013BE0
:10030000521EF9D27047D2B201E000F8012B491E0B
:10031000FBD270470022F6E710B513460A460446A2
:100320001946FFF7F0FF204610BD421C10F8011BD4
:100330000029FBD1801A704710B5002200E0521C42
:10034000835C8C5CA34201D1002BF8D1D8B2E1B21E
:10035000401A10BD034611F8012B00F8012B002AAA
:10036000F9D118467047202A04DB203A00FA02F13E
:10037000002070479140C2F1200320FA03F3194393
:1003800090407047202A04DB203A21FA02F0002135
:10039000704721FA02F3D040C2F120029140084395
:1003A00019467047064C074D06E0E06840F001032F
:1003B00094E8070098471034AC42F6D3FFF7E8FE04
:1003C000645103088451030870B58C1810F8015B60
:1003D00015F0070301D110F8013B2A1106D110F8DE
:1003E000012B03E010F8016B01F8016B5B1EF9D1E2
:1003F0002B0705D40023521E0DD401F8013BFAE768
:1004000010F8013BCB1A921C03E013F8015B01F8D2
:10041000015B521EF9D5A142D8D3002070BD000067
:1004200055494A6822F440324A604A6843681A4390
:100430004A600268526822F4807203685A60026857
:100440005368026943EA022203685A6002685268EC
:1004500022F0407203685A600268526883681A4347
:1004600003685A600268926822F4006203689A6026
:1004700002689268C3681A4303689A603F4B826AB5
:100480009A4218D00268926822F0706203689A60FB
:1004900002689268836A1A4303689A6002689268E5
:1004A00022F0405203689A6002689268C36A1A4355
:1004B00003689A600BE00268926822F07062036839
:1004C0009A600268926822F0405203689A6002685B
:1004D000926822F0020203689A6002689368027EC2
:1004E00043EA420203689A602022125CA2B10268C9
:1004F000526842F4006203685A600268526822F44B
:10050000604203685A6002685368426A521E43EAB6
:10051000423203685A6005E00268526822F40062C1
:1005200003685A600268D26A22F470020368DA62D1
:100530000268D36A828B521E43EA02520368DA626F
:100540000268926822F4007203689A6002689368F5
:1005500090F8302043EA422203689A600268926869
:1005600022F4806203689A6002689368426943EAF1
:10057000822203689A607047002301400100000F47
:1005800000BFFEE710B5024800F01CFA10BD0000E5
:100590009C0300200146087810381823B0FBF3F2C2
:1005A0000848805CC865032A05D908686FF309000C
:1005B000001D886503E008686FF309008865886D91
:1005C00070470000100B0308014600208A6A8B69FF
:1005D000CBB932B1012A0DD0022A03D0032A10D19F
:1005E0000EE000BFCB6A03F08073B3F1807F00D1CF
:1005F000012007E0CB6AB3F1C07F00D1012001E008
:1006000000E000BF34E08B69B3F5005F1AD132B16E
:10061000012A07D0022A03D0032A11D10AE000BF21
:1006200001200EE0CB6A03F08073B3F1807F00D12C
:10063000012006E0CB6AB3F1C07F00D1012000E0C9
:1006400000BF15E032B1012A05D0022A04D0032AE6
:100650000CD103E000BF00BF012008E0CB6A03F02B
:100660008073B3F1807F00D1012000E000BF00BFA4
:100670007047704772B600BFFEE7000038B502460B
:100680000020009000BF92F83C00012801D1022018
:1006900038BD012082F83C0000BF0868092816D93F
:1006A0001068C0680C780A3C04EB44050724AC4091
:1006B000A0431468E0600C780A3C04EB44048868AA
:1006C000A0401468E46820431468E06013E01068F8
:1006D00000690C7804EB44050724AC40A04314687F
:1006E00020610C7804EB44048868A04014682469F5
:1006F0002043146820614868072817D21068406BAF
:100700000C79641E04EB84051F24AC40A0431468DC
:100710006063088880B20C79641E04EB8404A040F6
:100720001468646B20431468606331E048680D28E6
:1007300017D21068006B0C79E41F04EB84051F24AA
:10074000AC40A04314682063088880B20C79E41F91
:1007500004EB8404A0401468246B204314682063D5
:1007600016E01068C06A0C790D3C04EB84051F2468
:10077000AC40A0431468E062088880B20C790D3C5C
:1007800004EB8404A0401468E46A20431468E06227
:10079000194B1A4C1068A04206D10868122803D1E0
:1007A000586840F480005860144C1068A0421CD176
:1007B0000868102802D00868112816D1586840F43B
:1007C00000005860086810280FD10D4800680D4CD3
:1007D000B0FBF4F000EB80004000009002E00098D5
:1007E000401E009000980028F9D100BF002082F838
:1007F0003C0000BF00BF4BE7002301400020014048
:100800000C00002040420F0070B5044600250CB9D2
:10081000012070BD1549A06A884200D000BF206C3D
:1008200030B9204600F024F80020606484F83C00D1
:10083000206C00F0100088B9206C20F4885040F043
:10084000020020642046FFF7EBFD00206064206C6E
:1008500020F0020040F00100206400E0012500BF0C
:10086000002084F83C0000BF2846D2E70100000FBA
:1008700010B586B00446142101A8FFF74BFD1949B5
:10088000206888422BD100BF0020009016480068E5
:1008900040F48070144908600846006800F48070D5
:1008A000009000BF00BF00BF002000900E48143829
:1008B000006840F001000C491439086008460068DF
:1008C00000F00100009000BF00BF02200190032053
:1008D00002900020039001A9044800F01DFA06B020
:1008E00010BD0000002001404438024000000240DA
:1008F00070B50446A56D00F00FFB064694F8350070
:10090000022808D08020606500BF002084F83400F1
:1009100000BF012070BD2068006820F0160021682B
:1009200008602068406920F0800021684861206CE0
:1009300008B9A06C28B12068006820F00800216880
:1009400008602068006820F001002168086010E05D
:1009500000F0E2FA801B05280BD9202060650320F7
:1009600084F8350000BF002084F8340000BF032065
:10097000D0E72068006800F001000028E8D194F872
:100980005C103F208840A860012084F8350000BF3B
:10099000002084F8340000BF00BFBBE7014691F897
:1009A0003500022803D080204865012070470520CB
:1009B00081F835000868006820F001000A681060BE
:1009C0000020F3E7F8B50446002000908C4800684A
:1009D0004FF41651B0FBF1F7A56D2E6894F85C103A
:1009E00008208840304098B12068006800F004007A
:1009F00070B12068006820F004002168086094F855
:100A00005C1008208840A860606D40F001006065BF
:100A100094F85C1001208840304068B1206840693B
:100A200000F0800040B194F85C1001208840A8607C
:100A3000606D40F00200606594F85C10042088400E
:100A4000304068B12068006800F0020040B194F8BE
:100A50005C1004208840A860606D40F00400606570
:100A600094F85C1010208840304078B3206800680B
:100A700000F0080050B394F85C1010208840A86083
:100A80002068006800F4802080B12068006800F4CD
:100A9000002028B9206CC8B12046216C884715E099
:100AA000A06C98B12046A16C88470FE020680068D0
:100AB00000F4807028B92068006820F008002168E0
:100AC0000860206C10B12046216C884794F85C10B7
:100AD000202088403040002865D02068006800F061
:100AE000100000285FD094F85C1020208840A86097
:100AF00094F83500052828D12068006820F01600F9
:100B0000216808602068406920F080002168486101
:100B1000206C08B9A06C28B12068006820F008009B
:100B20002168086094F85C103F208840A86001208C
:100B300084F8350000BF002084F8340000BF206D29
:100B400010B12046216D8847F8BD2068006800F488
:100B5000802080B12068006800F4002028B9606C13
:100B600010B12046616C88471DE0E06BD8B120468B
:100B7000E16B884717E02068006800F4807068B96E
:100B80002068006820F0100021680860012084F8C7
:100B9000350000BF002084F8340000BFE06B10B1C6
:100BA0002046E16B8847606D38B3606D00F001004E
:100BB000F0B1052084F835002068006820F00100BD
:100BC0002168086000BF0098401C0090B84200D91E
:100BD00005E02068006800F001000028F3D100BFA4
:100BE000012084F8350000BF002084F8340000BFE5
:100BF000E06C10B12046E16C884700BFA4E700001C
:100C00000C0000202DE9F0410446002500F084F995
:100C1000074614B90120BDE8F081606A00B100BF49
:100C2000022084F8350000BF002084F8340000BFA3
:100C30002068006820F00100216808600AE000F0E8
:100C40006BF9C01B052805D920206065032084F8B6
:100C50003500E0E72068006800F001000028EED1D0
:100C60002068056821480540D4E901010843E1688E
:100C700008432169084361690843A1690843E169A0
:100C80000843216A08430543606A042803D1D4E974
:100C90000B0108430543206805602068456925F07D
:100CA0000705606A0543606A04280DD1A06A054300
:100CB000E06A48B12046FFF787FC28B14020606514
:100CC000012084F83500A6E7206845612046FFF73B
:100CD00061FC064694F85C103F208840B06000201C
:100CE0006065012084F83500002094E73F8010F013
:100CF00070B5044600F010F906462546681C10B190
:100D000004480078054400BF00F006F9801BA842A3
:100D1000FAD370BD08000020F8B502460B46002546
:100D2000002400200021D6E0012606FA01F51E6805
:100D300006EA0504AC4274D11E7906F00306012EC2
:100D400004D01E7906F00306022E13D190684F00DE
:100D50000326BE40B0434F00DE68BE403043906083
:100D6000506801268E40B0431E79C6F300168E40AF
:100D7000304350601E7906F00306032E09D0D06878
:100D80004F000326BE40B0434F009E68BE40304334
:100D9000D0601E7906F00306022E13D1CF0802F1AF
:100DA000200656F827004E07F70E0F26BE40B04328
:100DB0004F07FF0E1E69BE403043CF0802F12006E8
:100DC00046F8270010684F000326BE40B0431E7946
:100DD00006F003064F00BE40304310605E6806F424
:100DE0004036002E76D000BF002600963C4E366876
:100DF00046F480463A4F3E603E46366806F48046EA
:100E0000009600BF00BF374E8F0856F827008E07A8
:100E1000370F0F26BE40B043334EB24202D10026F8
:100E200024E057E0314EB24201D101261EE0304E9F
:100E3000B24201D1022619E02E4EB24201D1032660
:100E400014E02D4EB24201D104260FE02B4EB242E7
:100E500001D105260AE02A4EB24201D1062605E05C
:100E6000284EB24201D1072600E008268F073F0F27
:100E7000BE4030431B4E8F0846F82700224E306894
:100E8000A0435E6806F4801606B120431E4E306013
:100E9000361D3068A0435E6806F4001606B1204394
:100EA000194E361D3060184E361F3068A0435E68FC
:100EB00006F4003606B12043134E361F3060361F4D
:100EC0003068A0435E6806F4803606B120430E4EBB
:100ED000083E3060491C1029FFF426AFF8BD000021
:100EE000443802400838014000000240000402403B
:100EF00000080240000C02400010024000140240B2
:100F000000180240001C0240083C01400AB1816107
:100F100001E00B04836170470148006870470000DE
:100F20000000002070B504460CB9012070BD94F893
:100F30003D0028B9002084F83C00204600F0DAF893
:100F4000242084F83D002068006820F0010021681A
:100F500008602068006840F400402168086020684C
:100F6000006820F400402168086000F0FBFA0546A4
:100F70005C496068884206D85B48854201D20120FE
:100F800007E0002005E05948854201D2012000E039
:100F90000020012800D1C9E75548B5FBF0F62068CC
:100FA000406820F03F003043216848604D49606848
:100FB000884201D8701C07E04FF4967070434FF4DC
:100FC0007A71B0FBF1F0401C2168096A21F03F0101
:100FD00008432168086243496068884214D8681E43
:100FE00061684900B0FBF1F0401CC0F30B0004281D
:100FF00001D204203DE0681E61684900B0FBF1F0B9
:10100000401CC0F30B0034E0A06838B9681E61686A
:1010100001EB4101B0FBF1F0401C0AE0681E616881
:1010200001EBC10202EB0111B0FBF1F0401C40F4F6
:101030008040C0F30B0008B901201AE0A06848B94D
:10104000681E616801EB4101B0FBF1F0401CC0F388
:101050000B000CE0681E616801EBC10202EB01119C
:10106000B0FBF1F0401CC0F30B0040F4804040F4B2
:1010700000402168C9694CF6FF729143084321681A
:10108000C861D4E9070108432168096821F0C0015B
:10109000084321680860D4E903100843216889687F
:1010A00048F2FF329143084321688860D4E9050182
:1010B00008432168C96821F0FF0108432168C8601E
:1010C0002068006840F0010021680860002020646A
:1010D000202084F83D000020206384F83E0000BFFB
:1010E00024E70000A086010080841E0000093D0066
:1010F00040420F0010B586B00446142101A8FFF746
:1011000009F91B49206888422FD100BF00200090B8
:101110001848006840F00200164908600846006858
:1011200000F00200009000BF00BFC020019012201C
:10113000029000200390032004900420059001A950
:101140000D48FFF7E9FD00BF00200090094810306E
:10115000006840F400100749103108600846006834
:1011600000F40010009000BF00BF06B010BD0000EA
:101170000054004030380240000402400348006838
:1011800003490978084401490860704700000020BD
:101190000800002010B50D48006840F400700B49AD
:1011A00008600846006840F48060086008460068EF
:1011B00040F480700860032000F0D6F80F2000F0A3
:1011C00007F800F055F8002010BD0000003C024078
:1011D000F0B587B004460026002700BF002000902D
:1011E0001E48006840F001001C490860084600687D
:1011F00000F00100009000BF00BF01A902A800F0AC
:1012000089F900F0BFF946001548B6FBF0F0471E1B
:1012100014481549086040F2E7311348C16047603F
:10122000002101618160816100F066FD054695B98C
:101230000D4800F0C1FD05466DB9192000F042F8D7
:10124000102C07D200222146192000F04FF8074841
:10125000046000E00125284607B0F0BD4438024094
:1012600040420F0000000140440400200400002020
:1012700008B500BF002000901148006840F480408D
:101280000F4908600846006800F48040009000BFE5
:1012900000BF00BF00200090081F006840F0805091
:1012A000091F08600846006800F08050009000BFE9
:1012B00000BF00220F21901E00F018F808BD0000AA
:1012C000443802400146084600280DDB00BF00BF3D
:1012D00000F01F0301229A4043099B0003F1E02321
:1012E000C3F8002100BF00BF00BF70472DE9F05FC9
:1012F00080460D461646002702F08CF9074639460F
:101300002A46334601F00700C0F1070ABAF1040F7C
:1013100002D94FF0040A01E0C0F1070AD14600F1FA
:10132000040ABAF1070F02D24FF0000A01E0A0F15F
:10133000030AD4464FF0010A0AFA09FAAAF1010A8F
:101340000AEA020A0AFA0CFA4FF0010B0BFA0CFB3C
:10135000ABF1010B0BEA030B4AEA0B0421464046B2
:1013600002F060F9BDE8F09F00BF00F00702064BF5
:1013700019684FF6FF031940044B0B4343EA02215F
:10138000014B196000BF70470CED00E00000FA054A
:1013900070B504460D460CB9012070BD5848006870
:1013A00000F00700A84209D255490D7008460068B0
:1013B00000F00700A84201D00120EEE7207800F0FD
:1013C000020002281DD1207800F00400042805D175
:1013D0004C48006840F4E0504A490860207800F02A
:1013E0000800082805D14748006840F46040454996
:1013F00008604448006820F0F000A16808434149B3
:101400000860207800F00100A8B36068012807D1C7
:101410003C4808380068C0F34040B8B90120BCE738
:101420006068022802D06068032807D13548083870
:101430000068C0F3406048B90120AEE73148083881
:101440000068C0F3400008B90120A6E72D480068F5
:1014500020F00300616808432A490860FFF75CFD3B
:10146000064609E0FFF758FD801B41F288318842AB
:1014700002D9032091E707E02248006800F00C0041
:101480006168B0EB810FEDD11D48006800F00700E6
:10149000A84209D91A490D700846006800F00700F3
:1014A000A84201D0012078E7207800F00400042849
:1014B00007D11448006820F4E050E168084311495E
:1014C0000860207800F00800082808D10D4800685E
:1014D00020F46040216940EAC1000A49086000F038
:1014E00061F808490968C1F30311074A515CC84013
:1014F0000649086006480068FFF76AFE00204CE7CE
:10150000003C024008380240180B03080C00002081
:10151000040000200F2202600D4A126802F003024C
:1015200042600B4A126802F0F0028260084A1268B8
:1015300002F4E052C260064A126802F46042D20825
:101540000261044A126802F007020A607047000054
:1015500008380240003C0240014800687047000023
:101560000C00002000B5FFF7F7FF04490968C1F33C
:101570008221034A515CC84000BD00000838024087
:10158000280B030800B5FFF7E7FF04490968C1F31A
:101590004231034A515CC84000BD00000838024097
:1015A000280B03082DE9F047002400250026A1465A
:1015B0002548006800F00C0020B1042805D0082858
:1015C0003AD105E0DFF8849039E0DFF8849036E026
:1015D0001D48001F006800F03F041B48001F006802
:1015E00000F4800078B11A481749091F0968C1F34F
:1015F0008811A0FB01700146224600233846FEF701
:101600003FFE05460EE011480F49091F0968C1F366
:101610008811A0FB01700146224600233846FEF7E0
:101620002FFE05460848001F0068C0F30140401C1B
:101630004600B5FBF6F902E0DFF8109000BF00BFEE
:101640004846BDE8F0870000083802400024F40056
:1016500000127A00F8B504460CB90120F8BD2078D4
:1016600000F00100002874D0F948006800F00C0078
:1016700004280DD0F648006800F00C00082813D1AB
:10168000F348001F006800F48000B0F5800F0BD114
:10169000EF4808380068C0F34040002859D060681F
:1016A000002856D10120D9E700BF6068B0F5803F1F
:1016B00008D1E7480838006840F48030E449083928
:1016C00008601EE06068B0F5A02F0DD1E048083832
:1016D000006840F48020DE49083908600846006848
:1016E00040F4803008600CE0D9480838006820F4E5
:1016F0008030D749083908600846006820F4802007
:10170000086000BF606890B1FFF706FC054606E080
:10171000FFF702FC401B642801D903209EE7CC4858
:1017200008380068C0F340400028F1D011E0FFF70E
:10173000F3FB054606E0FFF7EFFB401B642801D9E9
:1017400003208BE7C24808380068C0F340400028F7
:10175000F1D1207800F0020002285FD1BC48006877
:1017600000F00C0058B1BA48006800F00C000828DE
:101770001CD1B748001F006800F48000B0B9B4481D
:1017800008380068C0F3400020B1E068012801D0AB
:10179000012063E7AE480838006820F0F8002169AE
:1017A00040EAC100AA490839086037E0E06800B3A0
:1017B0000120A8490860FFF7AFFB054606E0FFF7E8
:1017C000ABFB401B022801D9032047E7A04808389B
:1017D0000068C0F340000028F1D09D480838006838
:1017E00020F0F800216940EAC100994908390860F1
:1017F00014E0002097490860FFF78EFB054606E0DD
:10180000FFF78AFB401B022801D9032026E79048F6
:1018100008380068C0F340000028F1D1207800F0BB
:10182000080008282CD16069A8B101208A49086005
:10183000FFF772FB054606E0FFF76EFB401B022830
:1018400001D903200AE782486C300068C0F34000E9
:101850000028F1D014E000207F490860FFF75CFB0E
:10186000054606E0FFF758FB401B022801D903207C
:10187000F4E677486C300068C0F340000028F1D1EE
:10188000207800F00400042870D100277048383018
:10189000006800F0805090B900BF002000906C48B4
:1018A0003830006840F08050694938310860084697
:1018B000006800F08050009000BF00BF012767481B
:1018C000006800F48070B0B96448006840F480702B
:1018D00062490860FFF720FB054606E0FFF71CFBA6
:1018E000401B022801D90320B8E65C48006800F4D8
:1018F00080700028F2D000BFA068012808D15448A9
:101900006830006840F001005149683108601DE00E
:10191000A06805280DD14E486830006840F00400EA
:101920004B49683108600846006840F001000860D3
:101930000CE047486830006820F0010044496831F5
:1019400008600846006820F00400086000BFA06836
:10195000A8B1FFF7E1FA054609E0FFF7DDFA401B01
:1019600041F28831884202D9032077E626E03848E0
:1019700068300068C0F340000028EED013E0FFF7A5
:10198000CBFA054608E0FFF7C7FA401B41F2883161
:10199000884201D9032061E62D4868300068C0F311
:1019A00040000028EFD1012F07D1294838300068C6
:1019B00020F0805026493831086000BFA069002817
:1019C00045D02348006800F00C0008285DD0A069CD
:1019D000022845D100201F490866FFF79DFA0546F9
:1019E00006E0FFF799FA401B022801D9032035E6EB
:1019F000174808380068C0F340600028F1D1D4E9E6
:101A000007010843616A40EA81110122A06AC2EB22
:101A1000500041EA00412C20005D41EA00600C4981
:101A2000091F086001200B490866FFF775FA054693
:101A300006E0FFF771FA401B022801D903200DE6EA
:101A4000034808380068C0F340600028F1D049E03E
:101A50000838024000004742800E474200700040B4
:101A6000002021490866FFF757FA054606E0FFF710
:101A700053FA401B022801D90320EFE51B480068F8
:101A8000C0F340600028F2D12CE0A069012800D109
:101A9000E4E51648001D0668A069012820D006F478
:101AA0008001E06981421BD106F03F01206A81423A
:101AB00016D147F6C0703040616AB0EB811F0FD17C
:101AC00006F440310122A06AC2EB5000B1EB004F96
:101AD00006D106F070612C20005DB1EB006F01D0E3
:101AE0000120BBE50020B9E5000047420038024074
:101AF00010B504460CB9012010BD606A38B96068A1
:101B0000B0F5827F00D105E00021E16102E0002113
:101B1000216161610021A16294F8510028B900207F
:101B200084F85000204600F047F8022084F8510065
:101B30002068006820F0400021680860A08800F458
:101B40008270218901F404410843A18901F40061F4
:101B50000843217C01F002010843217D01F00101CD
:101B60000843218B01F400710843217F01F0380103
:101B700008432021095D01F080010843218D01F413
:101B800000510843216808600421A06901EA10405F
:101B900094F8241001F0100108432168486020687F
:101BA000C06920F400602168C861002060650120E0
:101BB00084F8510000209FE710B586B00446142138
:101BC00001A8FEF7A7FB1B49206888422FD100BF60
:101BD000002000901848006840F4805016490860C2
:101BE0000846006800F48050009000BF00BF00BFAE
:101BF0000020009010481438006840F001000E49A1
:101C0000143908600846006800F00100009000BF29
:101C100000BFA0200190022002900020039003202A
:101C200004900520059001A90448FFF775F806B057
:101C300010BD000000300140443802400000024066
:101C40007047704730B502460B4600BF92F83C0023
:101C5000012801D1022030BD012082F83C0000BFE4
:101C6000022082F83D00106844681068816824F002
:101C700070041868044310684460184D1068A84246
:101C80001BD01068B0F1804F17D0154D1068A842D6
:101C900013D0144D1068A8420FD0134D1068A842FD
:101CA0000BD0124D1068A84207D0114D1068A84201
:101CB00003D0104D1068A84205D121F0800158686A
:101CC000014310688160012082F83D0000BF0020C0
:101CD00082F83C0000BF00BFBDE7000000000140EB
:101CE0000004004000080040000C004000040140D7
:101CF000004001400018004010B504460CB9012016
:101D000010BD94F83D0028B9002084F83C0020461E
:101D100000F026F8022084F83D00211D206801F023
:101D200025F8012084F8460000BF84F83E00012118
:101D30003F200155402001554120015500BF00BF03
:101D4000012084F8420043200155442001554520DC
:101D5000015500BF012084F83D000020D0E70000BD
:101D600008B5134A0168914221D100BF00210091BA
:101D70001049096841F004010E4A116011460968D2
:101D800001F00401009100BF00BF00BF00210091DD
:101D900008491039096841F40011064A103A1160E7
:101DA0001146096801F40011009100BF00BF08BD91
:101DB0000008004040380240014691F83D000128EB
:101DC00001D001207047022081F83D000868C068FA
:101DD00040F001000B68D8601A4B086898421BD08D
:101DE0000868B0F1804F17D0174B0868984213D09D
:101DF000164B086898420FD0154B086898420BD0D4
:101E0000144B0868984207D0134B0868984203D0D7
:101E1000124B086898420CD10868806800F00702ED
:101E2000062A0CD00868006840F001000B681860B2
:101E300005E00868006840F001000B6818600020A9
:101E4000C0E700000000014000040040000800401E
:101E5000000C004000040140004001400018004018
:101E60002DE9F04104460D46002700BF94F83C00E0
:101E7000012802D10220BDE8F081012084F83C0055
:101E800000BF022084F83D002068866826F07706AF
:101E900026F47F46206886602868502833D00CDC02
:101EA000202850D004DC00284BD0102851D149E024
:101EB000302849D040284CD139E060282DD07028F6
:101EC00007D0B0F5805F03D0B0F5005F41D10DE0E1
:101ED00041E0D5E902136A68206800F0C8FF206875
:101EE000866846F077062068866034E0D5E90213FC
:101EF0006A68206800F0BBFF2068806840F480407A
:101F00002168886027E0EA686968206801F0A0F825
:101F10005021206800F0B6FF1DE0EA68696820687B
:101F200001F0A9F86021206800F0ACFF13E0EA6836
:101F30006968206801F08CF84021206800F0A2FF59
:101F400009E000BF00BF00BF2968206800F09AFFC9
:101F500001E0012700BF00BF012084F83D0000BF61
:101F6000002084F83C0000BF384684E7704770B515
:101F700004462068C5682068066906F00200022849
:101F800019D105F00200022815D1401F216808610F
:101F9000012020772068806900F0030018B12046F6
:101FA000FFF7E4FF05E0204600F097F8204600F038
:101FB0004BF90020207706F00400042819D105F021
:101FC0000400042815D1C04321680861022020774D
:101FD0002068806900F4407018B12046FFF7C6FF02
:101FE00005E0204600F079F8204600F02DF90020A9
:101FF000207706F00800082819D105F00800082805
:1020000015D1C04321680861042020772068C06989
:1020100000F0030018B12046FFF7A8FF05E02046B6
:1020200000F05BF8204600F00FF90020207706F062
:102030001000102819D105F01000102815D1C04348
:1020400021680861082020772068C06900F440708A
:1020500018B12046FFF78AFF05E0204600F03DF862
:10206000204600F0F1F80020207706F0010048B18A
:1020700005F0010030B16FF00100216808612046D1
:1020800000F07CF906F08000802809D105F080007E
:10209000802805D1C043216808612046FFF7D0FDA4
:1020A00006F04000402809D105F04000402805D145
:1020B000C04321680861204600F074F906F0200052
:1020C000202809D105F02000202805D1C04321682F
:1020D00008612046FFF7B5FD70BD70472DE9F0415E
:1020E00004460D461646002700BF94F83C00012820
:1020F00002D10220BDE8F081012084F83C0000BF3D
:1021000036B1042E1BD0082E31D00C2E5ED145E006
:102110002946206800F0C0FE2068806940F0080071
:10212000216888612068806920F004002168886146
:1021300020688069296908432168886148E0294648
:10214000206800F0E1FE2068806940F400602168AA
:1021500088612068806920F4806021688861206837
:102160008069296940EA01202168886130E02946B8
:10217000206800F007FF2068C06940F0080021686F
:10218000C8612068C06920F004002168C861206827
:10219000C069296908432168C86119E02946206897
:1021A00000F02CFF2068C06940F400602168C8611D
:1021B0002068C06920F480602168C8612068C06917
:1021C000296940EA01202168C86101E0012700BFB8
:1021D00000BF00BF002084F83C0000BF384689E7FC
:1021E00010B504460CB9012010BD94F83D0028B983
:1021F000002084F83C00204600F025F8022084F8F6
:102200003D00211D206800F0B1FD012084F846004A
:1022100000BF84F83E0001213F20015540200155B8
:102220004120015500BF00BF012084F84200432037
:102230000155442001554520015500BF012084F877
:102240003D000020D0E7704710B5044604492068DF
:10225000884203D10421034800F006F810BD0000B5
:10226000000800405403002070B504460D460026C7
:1022700035B1042D0ED0082D16D00C2D28D11DE01F
:102280002068C06820F400702168C860606AFEF7AA
:1022900085FB1FE02068C06820F480602168C8606A
:1022A000A06AFEF77BFB15E02068C06820F40060A0
:1022B0002168C860E06AFEF771FB0BE02068C06827
:1022C00020F480502168C860206BFEF767FB01E0B6
:1022D000012600BF00BF002E4AD1002229462068F7
:1022E00000F0B4FD23492068884203D022492068C9
:1022F000884201D1012000E0002090B100BF206899
:10230000006A41F21111084050B92068006A891032
:10231000084028B92068406C20F4004021684864D7
:1023200000BF00BF2068006A41F21111084050B997
:102330002068006A8910084028B92068006820F0E9
:1023400001002168086000BF1DB9012084F83E002B
:102350000EE0042D03D101213F20015508E0082D96
:1023600003D101214020015502E001214120015506
:10237000304670BD000001400004014010B5044625
:1023800006492068884201D1FEF7F8FE044920681A
:10239000884202D1012027F011FF10BD000001404A
:1023A0000008004070477047704700002DE9F84F63
:1023B0000446206805682068C668206847694FF0B1
:1023C0000009CA4605F00F09B9F1000F0AD105F05E
:1023D000200038B106F0200020B1204600F0AEFE0B
:1023E000BDE8F88FB9F1000F7CD007F0010018B9F3
:1023F00006F49070002875D005F0010030B106F4A5
:10240000807018B1606C40F00100606405F0040059
:1024100030B107F0010018B1606C40F00200606458
:1024200005F0020030B107F0010018B1606C40F017
:102430000400606405F0080048B106F0200010B9FF
:1024400007F0010018B1606C40F008006064606C37
:10245000002846D005F0200028B106F0200010B179
:10246000204600F06BFE20684069C0F3801A606C63
:1024700000F0080010B9BAF1000F2DD0204600F08E
:1024800017FE2068406900F04000402820D100BFBE
:1024900000BF2168143151E8001F21F0400021687D
:1024A000143141E80002002AF3D100BFE06B50B1C3
:1024B0007F48E16B0865E06BFEF770FA88B1E06B6E
:1024C000016D88470DE02046FFF76EFF09E009E047
:1024D0002046FFF769FF04E02046FFF765FF002074
:1024E00060647DE7206B012878D105F0100000289A
:1024F00074D006F010000028FAD000BF0020009031
:1025000020680068009020684068009000BF00BF0D
:102510002068406900F04000402870D1E06B0068FE
:1025200040681FFA80F8B8F1000F58D0A08D4045E0
:1025300055DDA4F82E80E06BC069B0F5807F43D0F4
:1025400000BF00BF21680C3151E8001F21F48070EA
:1025500021680C3141E80002002AF3D100BF00BF1E
:1025600000BF2168143151E8001F21F001002168EB
:10257000143141E80002002AF3D100BF00BF00BFC0
:102580002168143151E8001F21F040002168143106
:1025900041E80002002AF3D100BF202084F8420065
:1025A0000020206300BF00BF21680C3151E8001FEC
:1025B00021F0100021680C3141E80002002AF3D11B
:1025C00000BFE06BFEF794F902206063A08DE28DFE
:1025D000801A81B22046FFF7E6FE0EE052E0A08DA1
:1025E00040450AD1E06BC069B0F5807F05D102207B
:1025F0006063A18D2046FFF7D6FEF1E6FFE7A08DD0
:10260000E18D401A1FFA80F8E08DD0B3B8F1000FC9
:1026100037D000BF00BF21680C3151E8001F21F402
:10262000907021680C3141E80002002AF3D100BF0C
:1026300000BF00BF2168143151E8001F21F00100E4
:102640002168143141E80002002AF3D100BF2020A4
:1026500084F842000020206300BF00BF21680C31D5
:1026600051E8001F21F0100021680C3141E8000200
:10267000002AF3D100BF0220606341462046FFF7E5
:1026800092FEADE605F0800030B106F0800018B192
:10269000204600F0E7FEA3E605F0400030B106F06A
:1026A000400018B1204600F039FD99E600BF97E6DA
:1026B0009F30000810B504460CB9012010BDA06978
:1026C00000B100E000BF94F8410028B9002084F870
:1026D0004000204600F02AF8242084F841002068B9
:1026E000C06820F400502168C860204600F0A4FDB6
:1026F0002068006920F490402168086120684069E2
:1027000020F02A00216848612068C06840F4005029
:102710002168C86000206064202084F8410084F8AB
:1027200042000020606300BFC8E7000010B586B01B
:102730000446142101A8FDF7EDFD1F4920688842D9
:1027400038D100BF002000901C48006840F0100005
:102750001A4908600846006800F01000009000BFA9
:1027600000BF00BF0020009014481438006840F0FB
:1027700001001249143908600846006800F00100A1
:10278000009000BF00BF4FF4C06001900220029093
:1027900000200390032004900720059001A9084819
:1027A000FEF7BAFA002204212520FEF79FFD25201E
:1027B000FEF788FD06B010BD00100140443802400D
:1027C0000000024070472DE9F84F04460E461746B8
:1027D00099464FF0000A94F84100202850D106B1E4
:1027E00017B90120BDE8F88F00206064212084F82B
:1027F0004100FEF791FB8246A784E784A068B0F50C
:10280000805F04D1206910B90025B04602E035464A
:102810004FF000081EE05346002280212046CDF8EC
:10282000009000F04FFE20B1202084F841000320EA
:10283000D8E745B9B8F80000C0F30800216848603F
:1028400008F1020803E02878216848606D1CE08CDC
:10285000401EE084E08C0028DDD153460022402158
:102860002046CDF8009000F02DFE20B1202084F805
:1028700041000320B6E7202084F841000020B1E7A2
:102880000220AFE7704700BFFEE700001FB5002041
:1028900000900190029003901548164908604FF48B
:1028A000803048600021134881600161017680F822
:1028B0002010C162104981620021C1600121C16103
:1028C000002180F8301001214161FDF79DFF08B122
:1028D000FDF7D0FE01200090019000200290694693
:1028E0000448FDF7CBFE08B1FDF7C4FE1FBD000094
:1028F00000200140600200200100000F00B587B0F9
:10290000142102A8FDF706FD00BF002001906E48CB
:10291000006840F010006C4908600846006800F04C
:102920001000019000BF00BF00BF002001900846CA
:10293000006840F0040008600846006800F00400E9
:10294000019000BF00BF00BF002001900846006852
:1029500040F0800008600846006800F080000190A8
:1029600000BF00BF00BF002001900846006840F093
:10297000010008600846006800F00100019000BFF7
:1029800000BF00BF002001900846006840F0020030
:1029900008600846006800F00200019000BF00BF18
:1029A00000BF002001900846006840F00800086061
:1029B0000846006800F00800019000BF00BF002238
:1029C00042F208014148FEF7A1FA002220214048C6
:1029D000FEF79CFA00224FF441413E48FEF796FA7A
:1029E00000224FF440513C48FEF790FA42F20800B2
:1029F00002900120039000200490059002A9334822
:102A0000FEF78AF920200290012003900020049014
:102A1000059002A92E48FEF77FF940F202200290AD
:102A200000200390049002A92A48FEF775F94FF49C
:102A3000414002900120039000200490059002A9DB
:102A40002448FEF769F94FF480600290002003905B
:102A5000049002A92048FEF75FF94FF480500290DD
:102A6000022003900020049005900220069002A905
:102A70001948FEF751F94FF40050029002200390DC
:102A80000020049002200590069002A91248FEF74B
:102A900043F94FF48070029000200390049002A943
:102AA0000E48FEF739F9012251030848FEF72EFAC5
:102AB0000122D1030748FEF729FA01222021044808
:102AC000FEF724FA07B000BD303802400010024083
:102AD0000008024000040240000C024000000240D6
:102AE00010B50B480B4908600B48486000210948A5
:102AF0008160C1604FF480410161002141618161C9
:102B0000C1610162FEF70EFA08B1FDF7B3FD10BD19
:102B100000540040A8020020A086010010B50E4815
:102B20000E4908604FF48270486000210B488160B4
:102B3000C160016141614FF4007181610021C16197
:102B40000162416281620A21C162FEF7D1FF08B1D0
:102B5000FDF790FD10BD000000300140FC02002098
:102B600000B58DB000F0FEFC002009900A900B909B
:102B70000C90079008901C216846FDF7CBFB22487B
:102B800022490860002048600021204881606821B7
:102B9000C160002101618161FFF7AEF808B1FDF766
:102BA00069FD4FF48050099009A91848FFF758F9BA
:102BB00008B1FDF75FFD1548FFF712FB08B1FDF7FF
:102BC00059FD00200790089007A91048FFF73AF830
:102BD00008B1FDF74FFD60200090002001900290A9
:102BE0000490042269460948FFF778FA08B1FDF716
:102BF00041FD002269460548FFF770FA08B1FDF76C
:102C000039FD0DB000BD0000000800405403002055
:102C100010B50B480B4908604FF4E13048600021C3
:102C200008488160C16001610C214161002181611E
:102C3000C161FFF73FFD08B1FDF71CFD10BD0000AD
:102C400000100140FC03002000BFFEE700BFFEE7CC
:102C500010B500BF502080F31188BFF34F8FBFF332
:102C60006F8F00BF2DF08CFE18B14FF080500449DB
:102C7000086000BF002080F3118800BF10BD000075
:102C800004ED00E000B593B0302107A8FDF742FB4A
:102C9000142102A8FDF73EFB00BF0020019024484C
:102CA000006840F08050224908600846006800F043
:102CB0008050019000BF00BF00BF002001901D4860
:102CC000006840F480401B4908600846006800F432
:102CD0008040019000BF00BF0120079000040890D1
:102CE00002200D9041050E9104210F91A821109111
:102CF000022111910421129107A8FEF7ABFC08B143
:102D0000FDF7B8FC0F2002900220039000200490F1
:102D10004FF4A05005904FF480500690052102A872
:102D2000FEF736FB08B1FDF7A5FC13B000BD0000AF
:102D300040380240007000400348006840F47000D2
:102D4000014908607047000088ED00E010B50248B6
:102D5000FFF70DF910BD00004404002010B5024833
:102D6000FFF705F910BD00005403002010B50268FC
:102D70002B4B98420ED0B0F1804F0BD0294B98428C
:102D800008D0294B984205D0284B984202D0284BB6
:102D9000984203D122F070024B681A43204B9842AC
:102DA00020D0B0F1804F1DD01E4B98421AD01E4B40
:102DB000984217D01D4B984214D01D4B984211D009
:102DC0001C4B98420ED01C4B98420BD01B4B984288
:102DD00008D01B4B984205D01A4B984202D01A4B90
:102DE000984203D122F44072CB681A4322F0800348
:102DF0004C6943EA04028B68C3620B688362084B28
:102E0000984202D00A4B984201D10B6903630368D0
:102E100043F00403036001234361026010BD00001E
:102E2000000001400004004000080040000C004089
:102E300000040140004001400044014000480140BE
:102E400000180040001C00400020004030B501F098
:102E50001F05012404FA05F3046A9C430462046A12
:102E600001F01F0502FA05F52C43046230BD30B5B0
:102E70000C46816821F47F4142EA0325254329431A
:102E8000816030BD0A46816821F0700142F007037D
:102E9000194381607047000030B5026A056A25F069
:102EA000010505624368846924F0700424F003047A
:102EB0000D682C4322F002028D682A43104DA8426F
:102EC00000D103E00F4DA84206D100BF22F0080256
:102ED000CD682A4322F00402094DA84202D0094DD0
:102EE000A84207D123F4807323F400734D692B4368
:102EF0008D692B43436084614D684563026230BD38
:102F0000000001400004014030B5026A056A25F066
:102F1000100505624368846924F4E04424F4407495
:102F20000D6844EA052422F020028D6842EA051269
:102F3000124DA84200D103E0114DA84207D100BFB5
:102F400022F08002CD6842EA051222F040020B4DC9
:102F5000A84202D00A4DA84209D123F4806323F489
:102F600000634D6943EA85038D6943EA8503436045
:102F700084614D688563026230BD0000000001403D
:102F80000004014030B5026A056A25F480750562C7
:102F90004368C46924F0700424F003040D682C43D2
:102FA00022F400728D6842EA0522124DA84200D137
:102FB00003E0114DA84207D100BF22F40062CD68A2
:102FC00042EA052222F480620A4DA84202D00A4D4C
:102FD000A84209D123F4805323F400534D6943EAF6
:102FE00005138D6943EA05134360C4614D68C563E9
:102FF000026230BD000001400004014030B5036AA8
:10300000056A25F4805505624468C26922F4E042ED
:1030100022F440720D6842EA052223F400538D68C1
:1030200043EA0533084DA84202D0084DA84204D116
:1030300024F480444D6944EA85144460C2614D68BB
:103040000564036230BD000000000140000401403F
:1030500030B50B461446026A056A25F00105056283
:10306000816921F0F00141EA041122F00A021A43B9
:103070008161026230BD30B50B461446026A056AB2
:1030800025F010050562816921F4704141EA04319F
:1030900022F0A00242EA03128161026230BD70B5E3
:1030A0000446A56B0020E8852846FFF77DF970BD32
:1030B00000BF00BF02680C3252E8002F22F490716A
:1030C00002680C3242E80013002BF3D100BF00BFAE
:1030D00000BF0268143252E8002F22F0010102689A
:1030E000143242E80013002BF3D100BF016B012919
:1030F0000ED100BF00BF02680C3252E8002F22F050
:10310000100102680C3242E80013002BF3D100BF1B
:10311000202180F8421000210163704710B5044659
:103120002068C06820F040002168C860202084F832
:1031300041002046FFF7A6FB002010BDF8B504466D
:103140000025002694F84200222873D1A068B0F52B
:10315000805F0BD1206948B9A66A20684068C0F337
:1031600008003080A06A801CA06214E0A56AA068F4
:10317000B0F5805F03D0A06828B9206918B920682D
:103180004068287004E02068406800F07F002870E4
:10319000A06A401CA062E08D401E80B2E08500283D
:1031A00046D12068C06820F020002168C8602068EF
:1031B000C06820F480702168C8602068406920F0F1
:1031C000010021684861202084F8420000206063EB
:1031D000206B012826D10020206300BF00BF21689A
:1031E0000C3151E8001F21F0100021680C3141E83A
:1031F0000002002AF3D100BF2068006800F0100030
:1032000010280AD100BF00200090206800680090BC
:1032100020684068009000BF00BFA18D2046FFF7E6
:10322000C2F802E02046FFF7CDFA0020F8BD01E029
:103230000020FBE70220F9E72DE9F84F044620685B
:10324000006920F44050E168084321680861216961
:10325000A068084361690843E16908430090206859
:10326000C06849F20C618843009908432168C8602E
:103270002068406920F44070A169084321684861D2
:1032800076492068884203D075492068884203D176
:10329000FEF778F9814602E0FEF764F98146E069BD
:1032A000B0F5004F6CD102206168A0FB01500346CD
:1032B0001920A9FB007001462A463846FCF7E0FFBA
:1032C0006421B0FBF1F04FEA001A02206168A0FB14
:1032D00001510B461920A9FB00712A463846FCF71C
:1032E000CFFF834602206168A0FB015003461920EE
:1032F000A9FB00712A463846FCF7C2FF6421B0FBE7
:10330000F1F000EBC00101EB0010ABEB80003221CB
:1033100001EBC0006421B0FBF1F000F0F8000AEB13
:10332000400A02206168A0FB015003461920A9FB56
:10333000007001462A463846FCF7A2FF8346022069
:103340006168A0FB015003461920A9FB00712A46C1
:103350003846FCF795FF6421B0FBF1F000EBC001AB
:1033600001EB0010ABEB8000322101EBC0006421C7
:10337000B0FBF1F000F007005044216888606AE07B
:1033800004206168A0FB015003461920A9FB0070CE
:1033900001462A463846FCF773FF824604206168DE
:1033A000A0FB015003461920A9FB007001462A46E4
:1033B0003846FCF765FF6421B0FBF1F000EBC0017B
:1033C00001EB0010AAEB8000322101EB0010642118
:1033D000B0FBF1F000F0F00A04206168A0FB01707E
:1033E00003461920A9FB00513A462846FCF748FF3E
:1033F0006421B0FBF1F00AEB001A04206168A0FB25
:1034000001510B461920A9FB00712A463846FCF7EA
:1034100037FF834604206168A0FB01500346192052
:10342000A9FB007001462A463846FCF729FF6421B3
:10343000B0FBF1F000EBC00101EB0010ABEB800042
:10344000322101EB00106421B0FBF1F000F00F001D
:10345000504421688860BDE8F88F000000100140EA
:1034600000140140014691F84100212828D18868C4
:10347000B0F5805F0BD1086948B90A6A1088C0F3BB
:1034800008000B685860086A801C086205E00B6A37
:10349000581C086218780B685860C88C401E80B2AF
:1034A000C88458B90868C06820F080000B68D860EC
:1034B0000868C06840F040000B68D8600020704782
:1034C0000220FCE72DE9F84304460D4617469846CE
:1034D000089E31E0701C70B3FDF71EFDA0EB0800E4
:1034E000B04200D816B90320BDE8F8832068C06850
:1034F00000F00400F8B1802D1ED0402D1CD02068B3
:103500000068C0F3C000B0B100BF00200090206888
:103510000068009020684068009000BF00BF20460F
:10352000FFF7C6FD0820606400BF002084F840005B
:1035300000BF0120D8E7FFE7206800682840A842C4
:1035400001D1012000E00020B842C3D00020CBE729
:1035500010B50248FEF72AFF10BD0000FC03002052
:1035600000BFFEE708B500BF0020009025480068B6
:1035700040F00400234908600846006800F0040099
:10358000009000BF00BF00BF002000901D48103811
:10359000006840F400101B491039086008460068B4
:1035A00000F40010009000BF00BF174817490860E2
:1035B0004FF0806048604021144881600021C16064
:1035C0004FF48061016149004161890081610021FE
:1035D000C1614FF40031016200214162FDF712FB2D
:1035E00008B1FDF747F800BF0849094881628863C0
:1035F00000BF002211460E20FDF778FE0E20FDF7D9
:1036000061FE08BD40380240586002409C03002023
:103610005403002002480068C0F3022070470000F5
:103620000CED00E010B5002804DB0A07130E054A74
:10363000135406E00A07140E034A00F00F031B1F81
:10364000D45410BD00E400E018ED00E002E008C82A
:10365000121F08C1002AFAD170477047002001E00C
:1036600001C1121F002AFBD1704770B50446002526
:1036700008E02168481C20600878303805EB850197
:1036800000EB41052168087800F004F80028F0D12B
:10369000284670BD0146302903DB392901DC0120B1
:1036A00070470020FCE7000010B54021074801F0FA
:1036B000E3FA00221E21064826F0E8FD05490860CD
:1036C00002F000FE00200449087010BD401A0020DE
:1036D00091630008E8010020E401002030B50346B2
:1036E000B1F90040B2F90050AC4202DDB1F900403E
:1036F00001E0B2F900401C80B1F90240B2F9025079
:10370000AC4202DDB1F9024001E0B2F902405C8056
:10371000B1F90440B2F90450AC4202DAB1F9044004
:1037200001E0B2F904409C80B1F90640B2F90650BC
:10373000AC4202DAB1F9064001E0B2F90640DC80A1
:103740000120B3F90040B3F90450AC4205DCB3F9F1
:103750000240B3F90650AC4200DD002030BDF8B5A0
:1037600004460D4616460027B4F90000B5F90010CE
:10377000884212DBB4F90200B5F9021088420CDB72
:10378000B4F90400B5F90410884206DCB4F9060067
:10379000B5F90610884200DC01270FB90020F8BDFA
:1037A0000EB90120FBE72088ADF800006088ADF875
:1037B000020032466946284600F0A7F808B9002002
:1037C000EDE7A088ADF800006088ADF80200324651
:1037D0006946284600F099F808B90020DFE72088FC
:1037E000ADF80000E088ADF8020032466946284690
:1037F00000F08BF808B90020D1E7A088ADF80000F0
:10380000E088ADF8020032466946284600F07DF8AF
:1038100008B90020C3E70120C1E70246B2F9000061
:10382000B1F90430984213DCB2F90400B1F9003068
:1038300098420DDBB2F90200B1F90630984207DC7C
:10384000B2F90600B1F90230984201DB012070475D
:103850000020FCE7F8B504460D461646B4F904000E
:10386000B5F90010884211DBB4F90600B5F9021071
:1038700088420BDBB4F90000B5F90410884205DC7E
:10388000B4F90200B5F90610884201DD0120F8BD47
:103890000EB90020FBE72088ADF800006088ADF885
:1038A000020032466946284600F02FF808B1002091
:1038B000EDE7A088ADF800006088ADF80200324660
:1038C0006946284600F021F808B10020DFE720888B
:1038D000ADF80000E088ADF802003246694628469F
:1038E00000F013F808B10020D1E7A088ADF800007F
:1038F000E088ADF8020032466946284600F005F837
:1039000008B10020C3E70120C1E72DE9FC5F0546AF
:103910000E4614464FF0000AB6F90000B5F9001043
:10392000884213DBB6F90000B5F9041088420DDCBB
:10393000B6F90200B5F90210884207DBB6F90200B9
:10394000B5F90610884201DC4FF0010ABAF1000F08
:1039500002D10020BDE8FC9F002C01DC0120F9E72A
:10396000284612F0F4FB834600EBDB704710284634
:1039700012F065FB834600EBDB704FEA60084745B9
:1039800001DA384600E0404681464C4500DD4C46B1
:103990002888ADF800002888204400B2ADF8040063
:1039A0006888ADF802006888204400B2ADF80600CF
:1039B000002231466846FFF7A8FF80B1BDF8040039
:1039C000204400B2ADF80400BDF80600204400B267
:1039D000ADF806003146684622F0ACFFBAE7E88849
:1039E000001B00B2ADF80200E888ADF80600002226
:1039F00031466846FFF789FF80B1BDF804002044D6
:103A000000B2ADF80400BDF80200001B00B2ADF832
:103A100002003146684622F08DFF9BE7A888001B14
:103A200000B2ADF80000A888ADF8040000223146CD
:103A30006846FFF76AFF80B1BDF80000001B00B2C6
:103A4000ADF80000BDF80200001B00B2ADF80200A6
:103A50003146684622F06EFF7CE76888ADF80200C8
:103A60006888204400B2ADF806000022314668465E
:103A7000FFF74BFF80B1BDF80000001B00B2ADF8AE
:103A80000000BDF80600204400B2ADF80600314643
:103A9000684622F04FFF5DE701205BE710B5B1F902
:103AA0000030B2F90040A34202DAB1F9003001E07F
:103AB000B2F900300380B1F90230B2F90240A342FA
:103AC00002DAB1F9023001E0B2F902304380B1F913
:103AD0000430B2F90440A34202DDB1F9043001E040
:103AE000B2F904308380B1F90630B2F90640A3423E
:103AF00002DDB1F9063001E0B2F90630C38010BD35
:103B00002DE9FF41044626F049FB054600200390BD
:103B100034B14749E0680860204626F0CFFC03E056
:103B200015F068F94249086041490968086922F0BE
:103B30005FFE3F480068406920B13D490968486917
:103B400022F056FE3A490968C86922F051FE384908
:103B50000968086A22F04CFE35480068006940B9DF
:103B6000002033490968A1F8500100BF00BFBDE83B
:103B7000FF8123F043FA23F089F92D480068B0F85B
:103B8000500100284BD02A4800680068007CC0F330
:103B90004000E8B12648006815F0AAF9401E06B2B8
:103BA0002348006815F03EF9401E07B23B4600224C
:103BB000114601A8009612F00FFB01A81C490968E4
:103BC0000968896B48601A48006805F00BFC00BF63
:103BD0004FF480711648006830301DF094F82021B1
:103BE0001348006800F598701DF08DF8002010490A
:103BF0000968A1F85001284626F0C2FA03900C4843
:103C000000680068406A50B10949096808680849B5
:103C1000096809684B6A07490A68039998471CF0C4
:103C2000A9FD00F03FF800F007F800BF9FE7000093
:103C3000A00000209C00002010B5002416E0C4EB7A
:103C4000C4000C4951F8200030B1C4EBC401094A4A
:103C500052F821001CF040FEC4EBC401054A02EBFF
:103C600081001C211DF04FF8601CC4B2042CE6DB5F
:103C700010BD00001C1B00200146094A10680BE023
:103C800042688A4202D002688A4204D1027E22F04F
:103C90000102521C027640690028F1D170470000F1
:103CA000740000207047000010B50421014800F0A6
:103CB000E3FF10BD341A002010B51C21014800F0AC
:103CC000DBFF10BD4C1A00202DE9FF4F8BB00446DE
:103CD0009A46199DBAF1000F11D11898B0F5807F5E
:103CE0000DD10020208060800C98401E00B2A08082
:103CF0000D98401E00B2E0800FB0BDE8F08FB5F91E
:103D000000004042189948430121C1EB202000B235
:103D10002080B5F902004042189948430121C1EBC7
:103D2000202000B26080B5F900100C98401A189954
:103D30004843022101EB202000B2A080B5F9021017
:103D40000D98401A18994843022101EB202000B237
:103D5000E080BAF1000F14D120882988084400B20D
:103D6000208060886988084400B26080A088298823
:103D7000084400B2A080E0886988084400B2E0806E
:103D8000BAE70A209AFBF0F00A900A98401C0990C2
:103D90000A9800EB8000AAEB400B0A9800B226F0CC
:103DA00013FD0890099800B226F00EFD07900A98BE
:103DB0005A3000B226F008FD069009985A3000B239
:103DC00026F002FD0590CBF10A01089841430798BF
:103DD00000FB0B100A2190FBF1F6CBF10A010698CB
:103DE0004143059800FB0B100A2190FBF1F7761177
:103DF0007F11B4F90080B4F9029007FB08F006FBCC
:103E00001900298801EBA02000B2ADF8100006FBD4
:103E100008F007FB0900698801EBA02000B2ADF8AB
:103E20001200B4F90480B4F9029007FB08F006FB15
:103E30001900298801EBA02000B2ADF80C0006FBA8
:103E400008F007FB0900698801EBA02000B2ADF87B
:103E50000E00B4F90080B4F9069007FB08F006FBE9
:103E60001900298801EBA02000B2ADF8080006FB7C
:103E700008F007FB0900698801EBA02000B2ADF84B
:103E80000A00B4F90480B4F9069007FB08F006FBB9
:103E90001900298801EBA02000B2ADF8040006FB50
:103EA00008F007FB0900698801EBA02000B2ADF81B
:103EB0000600BDF90800BDF91010884202DABDF90C
:103EC000080001E0BDF91000BDF90410BDF90C2097
:103ED000914202DABDF9041001E0BDF90C108842EC
:103EE0000BDABDF90800BDF91010884202DABDF9FD
:103EF00008000DE0BDF910000AE0BDF90400BDF9AD
:103F00000C10884202DABDF9040001E0BDF90C0092
:103F10002080BDF90800BDF91010884202DDBDF90E
:103F2000080001E0BDF91000BDF90410BDF90C2036
:103F3000914202DDBDF9041001E0BDF90C10884288
:103F40000BDDBDF90800BDF91010884202DDBDF996
:103F500008000DE0BDF910000AE0BDF90400BDF94C
:103F60000C10884202DDBDF9040001E0BDF90C002F
:103F7000A080BDF90A00BDF91210884202DABDF92D
:103F80000A0001E0BDF91200BDF90610BDF90E20CE
:103F9000914202DABDF9061001E0BDF90E10884227
:103FA0000BDABDF90A00BDF91210884202DABDF938
:103FB0000A000DE0BDF912000AE0BDF90600BDF9E6
:103FC0000E10884202DABDF9060001E0BDF90E00CC
:103FD0006080BDF90A00BDF91210884202DDBDF90A
:103FE0000A0001E0BDF91200BDF90610BDF90E206E
:103FF000914202DDBDF9061001E0BDF90E108842C4
:104000000BDDBDF90A00BDF91210884202DDBDF9D1
:104010000A000DE0BDF912000AE0BDF90600BDF985
:104020000E10884202DDBDF9060001E0BDF90E0068
:10403000E08000BF60E62DE9F74F86B004462068B7
:104040000590B4F908100798A0EB0108B4F90A101C
:104050000898A0EB0109E089B0F5807F13D1206BAF
:1040600000FB08F0E16A01FB1901606A00EBA10B9B
:10407000E06A00FB08F0216B01FB0901A06A00EB7C
:10408000A10004902FE0A08980B9A06B00FB08F08C
:104090004FEA6018A06B00FB09F04FEA6019606AF4
:1040A00000EB080BA06A484404901CE0A06B00FBE6
:1040B00008F04FEA6018A06B00FB09F04FEA6019A6
:1040C000206B00FB08F0E16A01FB1901606A00EB5C
:1040D000A12BE06A00FB08F0216B01FB0901A06A3B
:1040E00000EBA12004904FEA2B2604980712B4F9A4
:1040F0000400B04203DC002009B0BDE8F08F002EC0
:1041000001DA0020F8E7B4F90600B84201DC00202B
:10411000F2E7002F01DA0020EEE73420005DC0F363
:10412000800050B33420005DC0F3400078B9022510
:10413000B4F904007843684306FB050A059800EBD0
:104140000A012A4604F114001CF08BFD2CE0032523
:10415000B4F904007843684306FB050A6A1E059813
:1041600000EB0A0104F114001CF07BFD0AEB0500D2
:10417000401E0599095CA17516E04FF0000A002564
:10418000208A03463AB231B2019004F1180019F0C6
:104190002BFA0290BDF80800A0823AB231B204F1C5
:1041A000180019F081F9A0753420005D00F00100BD
:1041B000B0B14FF47F40002100F47C4241EA52113B
:1041C000C0F3C40211430191BDF8042011460291CD
:1041D000A08ABDF80810884201D100208CE700BFFA
:1041E000E07C08B9012087E70FFA8BF1A1870498DA
:1041F00001B2E18731B24020015339B2422001536C
:10420000C4F844A084F84850204600F003F8039016
:10421000039871E72DE9F04F8DB00446D4F8009073
:1042200094F83C000C9094F83E000B900C98702889
:104230000BDA4FF0FF35B4F940002844002800DACB
:1042400000250C988030C7B213E00C9890280EDD42
:104250000125B4F940002844B4F90410884200DB79
:1042600000250C98C0F1FF008030C7B201E00025A6
:10427000FF270B9870280CDA4FF0FF36B4F9420094
:104280003044002800DA00260B98803000F0FF0848
:1042900015E00B9890280FDD0126B4F94200304458
:1042A000B4F90610884200DB00260B98C0F1FF002D
:1042B000803000F0FF0802E000264FF0FF08A08ADF
:1042C0000A90A07D06900020059004900390342071
:1042D000005DC0F3800000285BD094F84800626C59
:1042E00000FB052000EB0901022209A81CF0B9FC23
:1042F000A28894F8480012FB00F2606C02FB0600F2
:1043000000EB0901022208A81CF0ABFCA28894F87B
:10431000480012FB00F2606C02FB060294F84800B1
:1043200000FB052000EB0901022207A81CF099FC04
:104330003420005DC0F3400000287ED094F848008F
:10434000616C00FB05110844401E19F8000005903F
:10435000A18894F8480011FB00F1606C01FB060194
:1043600094F848000844401E19F800000490A18801
:1043700094F8480011FB00F1606C01FB060194F811
:10438000480000FB05110844401E19F80000039086
:1043900053E0208A0090B4F942204020005B28447A
:1043A00001B204F11800009B19F01EF90990208A4F
:1043B00000904220005B304402B2B4F9401004F196
:1043C0001800009B19F010F90890208A00904220F4
:1043D000005B304402B24020005B284401B204F18B
:1043E0001800009B19F000F907903420005DC0F31D
:1043F000400010B3B4F942204020005B284401B2D1
:1044000004F1180019F050F805904220005B304488
:1044100002B2B4F9401004F1180019F045F8049004
:104420004220005B304402B24020005B284401B2CD
:1044300004F1180019F038F80390BA46BB4634204E
:10444000005DC0F34000E0B306987843C7F1FF0C6D
:10445000059B03FB0C00C0F3072104987843C7F1C8
:10446000FF0C039B03FB0C00C0F3072201FB08F0C9
:10447000C8F1FF0302FB0300030AA375022905DC50
:10448000022A03DC00200DB0BDE8F08F022901DC18
:104490004FF00008022A01DC4FF0FF0806980228BE
:1044A00001DC4FF0000A0598022801DC4FF0FF0AFA
:1044B0000498022801DC4FF0000B0398022803DC6B
:1044C00000E002E04FF0FF0B03E0BA46BB46FF21DD
:1044D000A175BAF1000F02D1099802900BE0BAF170
:1044E000FF0F02D10A98029005E05246DDE909105B
:1044F00013F0F8FE0290BBF1000F02D10798019073
:104500000BE0BBF1FF0F02D10898019005E05A467D
:10451000DDE9071013F0E6FE0190B8F1000F03D1BA
:10452000BDF80400A0820FE0B8F1FF0F03D1BDF881
:104530000800A08208E04246DDE9011013F0D2FE37
:104540000090BDF80000A08201209CE72DE9F05FFB
:104550000446B4F9080001026162B4F90A000102DC
:10456000A162B4F90C000A2190FBF1F56F1CB4F9BB
:104570000C0005EB8501A0EB4106684200B226F075
:1045800023F98046784200B226F01EF98146C5F133
:104590005A0000B226F018F98246C7F15A0000B25C
:1045A00026F012F98346C6F10A0000FB08F009FB69
:1045B00006000A2190FBF1F1E162C6F10A0000FB5E
:1045C0000AF00BFB06000A2190FBF1F12163E06A7F
:1045D0004111E162206B41112163A07C19F013F9B4
:1045E0003421095D60F3000134200155A07C19F0ED
:1045F000EDF83421095D60F3410134200155A07CC0
:10460000042805D0A07C052802D0A07C062807D16C
:104610003420005D20F00400001D3421085505E021
:104620003420005D20F0040134200155216821620E
:10463000A06920F0E000A061A17CA06961F3040002
:10464000A061A188A06961F39420A061E188A069BC
:1046500061F35F50A061E08900EBD071491001F572
:10466000001191FBF0F2A263FF21A175208AA082C4
:10467000BDE8F09F2DE9F743054616460024134C8C
:1046800025F08CFD8046334629462046019A19F0D4
:1046900069FD07465FB900BF00BF2C2120461CF012
:1046A00032FB4FF00040A0620020BDE8FE830020F6
:1046B000A062E06918B9404625F062FDE061E0695A
:1046C00008B90120E0612046EFE70000701A0020E1
:1046D00010B51421114800F0CFFA19F0F5FC04468A
:1046E00000BF1CB900BF00BF00BFFEE700BF14B988
:1046F00000BF00BF10BD0A49204619F0CDFD094991
:10470000204619F0CBFD0849204619F0C9FD07499C
:10471000204619F0BFFD00BFECE70000581A00204A
:10472000E5D80108B9DD0108D5DF0108ADD80108D9
:1047300070B504460D46102128461CF0E4FA2068A6
:104740000078012804D1208A2880608A68800CE0E3
:1047500020680078022802D1E068686005E02068DF
:104760000078042801D10A2068602068406820B1E0
:10477000206829464268904701E000BF00BF70BD35
:104780002DE9FE430446A66AEEB9A18A208A0844B0
:1047900001B2A182E18A608A084401B2E182204626
:1047A0000CF04BFB06460EB9BDE8FE8320460FF029
:1047B0004DFC00220921304617F0F0FF6078C0F36D
:1047C000400000B1F0E7208A10B9608A002870D05C
:1047D00000200290019094F83C0000F00F000328A4
:1047E00012D130461EF048FB074630461EF0CCFA88
:1047F000804603200090B4F910103B4642463046F4
:104800000BF004FE029012E030461EF0B7FB0746A4
:1048100030461EF02BFA80460C200090B4F912109E
:1048200043463A4630460BF0F1FD019000BF30465A
:104830001EF07CFA054605F0010028B9BDF9080014
:10484000002801DD0020029005F0020028B9BDF922
:104850000800002801DA0020029005F0040028B9C1
:10486000BDF90400002801DD0020019005F00800DA
:1048700028B9BDF90400002801DA0020019001AA3E
:1048800002A9204628F044F80023BDF90420BDF910
:104890000810304621F050FAA08ABDF808100844EC
:1048A00001B2A182E08ABDF80410084401B2E1829D
:1048B00000BF00BF78E72DE9F84F0446D4F828B0D0
:1048C000BBF1000F01D1BDE8F88F94F83C0000F077
:1048D0000F0000B9F7E719F0C7FF06463068477EBA
:1048E000402158461FF052FF10B9002161832183F7
:1048F00058461EF02FFB804658461EF035FB0546F5
:1049000094F83C0000F00F000C2843D100212183D3
:104910001DBBB4F91A00C7F164014843642190FB40
:10492000F1F001B2618358461EF0A0F98146584665
:104930001EF024FB82460C200090B4F91A104B465E
:10494000524658460BF062FD6083B4F91A200023EA
:104950001946584621F0F0F969E0204628F02FF872
:104960000090002161836A46204627F0D1FFBDF9FF
:10497000003041F6FF72514258460CF007FC814668
:10498000BDF80000484402B201230021584621F03E
:10499000D3F94CE094F83C0000F00F00032846D116
:1049A00000216183B8F1000F23D1B4F91800C7F1D9
:1049B00064014843642190FBF1F001B22183584621
:1049C0001EF0E2F9814658461EF056FA8246032050
:1049D0000090B4F9181053464A4658460BF016FD9D
:1049E0002083B4F9181000231A46584621F0A4F980
:1049F0001DE0204627F0C8FF0090002121830022FF
:104A00006946204627F084FFBDF9003041F6FF7269
:104A1000514258460CF020FB8146BDF80000484446
:104A200001B201230022584621F086F900BF208BF5
:104A3000002860D1608B00285DD11DBB58461EF058
:104A40009DFA814658461EF011F98246B9F1000FD1
:104A500002DCBAF1000F14DDB9F1000F06DA012310
:104A60004A460021584621F067F90AE0BAF1000FE2
:104A700007DA0123CAF1000002B20021584621F0F2
:104A80005BF900BFB8F1000F23D158461EF07CF946
:104A9000814658461EF0F0F98246B9F1000F02DC5B
:104AA000BAF1000F14DDB9F1000F06DA012300227C
:104AB0004946584621F040F90AE0BAF1000F07DAFA
:104AC00001230022CAF1000001B2584621F034F956
:104AD00000BF32460A21584617F060FE6078C0F3E6
:104AE000400000B1EFE694F83C0020F00F0184F89C
:104AF0003C100021A16200BFE5E62DE9FF4104461C
:104B00000F4614B914F076F904460CB9BDE8FF81DC
:104B10001FB90020A4F85001F8E70020ADF8080004
:104B2000ADF80A00204614F07DF9401E00B2ADF841
:104B30000C00204614F0DCF9401E00B2ADF80E0067
:104B400002AA39466846FEF7C9FD064606B9DDE702
:104B50002068007CC0F3400060B102982063039895
:104B600060630120A4F85001606810B1606825F00E
:104B7000B1FCCBE72068806918B12068694682697A
:104B8000904700250BE004F1300000EBC501002246
:104B90006846FEF7E4FD00B1B8E7681C85B2B4F8DA
:104BA0005001A842EFDCB4F85001202809DAB4F82B
:104BB000502104F1300101EBC200694611F0AFF958
:104BC0000BE00020A4F85001B4F8502104F13001AA
:104BD00001EBC20002A911F0A2F9B4F85001401C87
:104BE000A4F85001606810B1606825F073FC00BF44
:104BF0008CE770B50546284600F013F804460026F9
:104C00000CE02146284600F024F8064621462846B6
:104C100000F086F820461BF05FFE3446002CF0D1F1
:104C200070BD014609B9002070474868FCE770B5BF
:104C3000064600243046FFF7F4FF054605E0641CF5
:104C40002946304600F005F80546002DF7D12046EC
:104C500070BD02460B461068001D0344186870477B
:104C600002460B461068034418687047014609B9AC
:104C7000002070478868FCE7002242608260CA1CFE
:104C800022F003010160704770B50446216801F10C
:104C900008001BF053FD0546A5B100222946204619
:104CA00026F01CFE29462046626826F009FE606850
:104CB00020B12A462046616826F010FE6560A06893
:104CC00000B9A560284670BD70B50446216801F1A1
:104CD00008001BF033FD0546A5B1002229462046F9
:104CE00026F0EEFD29462046A26826F0F7FDA068D2
:104CF00020B12A462046A16826F0E2FDA560606842
:104D000000B96560284670BD014609B901207047A9
:104D1000486818B9886808B90120F8E70020F6E764
:104D20002DE9F04104460D460CB9BDE8F08120465E
:104D3000FFF777FFA8420FD129462046FFF789FFEA
:104D40006060606810B90020A0602FE0002220465B
:104D5000616826F0C3FD29E02046FFF787FFA842DF
:104D60000FD129462046FFF77BFFA060A06810B94D
:104D7000002060601AE000222046A16826F0A0FD15
:104D800014E029462046FFF76BFF064629462046D9
:104D9000FFF75FFF07463A463146204626F090FD72
:104DA00032463946204626F099FD00BF00BFBCE7D9
:104DB00010B504462068806818B1206821468268D2
:104DC00090472068006828B120680068206020466D
:104DD000FFF7EEFF10BD0146886818B18868B0F98A
:104DE000160070470020FCE72DE9F04F93B0054610
:104DF0008B4691469A461C9E688C20F00400001D4C
:104E00006884A5F820903289594628461FF03AFA5E
:104E10001290A5F820A03289594628461FF032FA90
:104E20001190688C20F004006884DDE9111088423C
:104E30000CD1DDE91110884208D1BDF84800BDF859
:104E40004410884202D113B0BDE8F08FA5F820903D
:104E50003289594628461FF015FA1290A5F820A06D
:104E6000594628460DF0EBFE10903189109A1068D3
:104E7000129A23F04EFE3089602833D147F6FF7135
:104E80001298884202D0119888422BD128461FF0F0
:104E900020FC0F9000EBD070471028461FF019FC43
:104EA0000F9000EBD0704FEA600847F6FF71129840
:104EB000884208D1781C08F10101884200DA01E03B
:104EC00008F10100129047F6FF711198884208D14D
:104ED000781C08F10101884200DA01E008F10100C4
:104EE000119000BF2448FFF7CFFE044600BF1CB955
:104EF00000BF00BF00BFFEE700BF04B9A3E71298E0
:104F0000E06011982061ACB325603089A080C4F8BE
:104F100008B0684610F0CAF92146684610F079FAE0
:104F20001649684610F045FA1548029000BF154929
:104F3000684610F04CFAFF220021684610F059FA3A
:104F40003188684610F04BFA7188684610F02CFAE8
:104F5000F068069000BF6846002190F83E2061F39B
:104F6000000280F83E2000BF30690590684610F0CE
:104F700067FA00BF00BF66E7641A00205D010308FE
:104F8000090403083903030810B514210148FFF789
:104F900073FE10BD641A00202DE9FE4F04460F4633
:104FA00090464FF0000900256BE1E06800EBC5007A
:104FB0004068C0F3406000B162E1E16801EBC50107
:104FC000496821F07F4021F00FFC064626EA0700E1
:104FD00008B9012000E00020029026EA080008B984
:104FE000012000E000200190DDE90101814272D042
:104FF000E06850F835A04FF0000B6A4641F610010A
:10500000504623F01FFA10B14FF0010BA9E06A4699
:1050100041F61101504623F015FA10B14FF0010B83
:105020009FE06A4641F61201504623F00BFA10B198
:105030004FF0010B95E06A4641F61301504623F00C
:1050400001FA10B14FF0010B8BE06A4641F61501F1
:10505000504623F0F7F910B14FF0010B81E06A469A
:1050600041F61401504623F0EDF910B14FF0010B59
:1050700077E06A4641F26901504623F0E3F910B146
:105080004FF0010B6DE06A4643F20C01504623F0ED
:10509000D9F910B14FF0010B63E06A4643F20D01FC
:1050A000504623F0CFF910B14FF0010B59E06A469A
:1050B00041F20101504623F0C5F910B14FF0010B48
:1050C0004FE06A4641F20401504623F0BBF918B1A3
:1050D0004FF0010B45E0D2E06A4641F20201504632
:1050E00023F0B0F910B14FF0010B3AE06A4641F2FB
:1050F0000301504623F0A6F910B14FF0010B30E048
:105100006A4641F20501504623F09CF910B14FF078
:10511000010B26E06A4641F20601504623F092F95F
:1051200010B14FF0010B1CE06A4641F232015046CB
:1051300023F088F910B14FF0010B12E06A4643F6F4
:105140000F01504623F07EF910B14FF0010B08E03B
:105150006A4643F60E01504623F074F908B14FF049
:10516000010BBBF1000F02D00320BDE8FE8F6A46A1
:1051700040F60A01504623F065F910B14FF00209DC
:105180007CE06A4640F60B01504623F05BF910B113
:105190004FF0020972E06A4643F60F01504623F0D1
:1051A00051F910B14FF0020968E06A4643F60E016A
:1051B000504623F047F910B14FF002095EE06A460D
:1051C00040F63C01504623F03DF910B14FF0020982
:1051D00054E06A4640F63D01504623F033F910B1E1
:1051E0004FF002094AE06A4640F63A01504623F081
:1051F00029F910B14FF0020940E06A464FF404610A
:10520000504623F01FF910B14FF0020936E06A460C
:1052100040F64501504623F015F910B14FF0020950
:105220002CE06A4640F64101504623F00BF910B1DC
:105230004FF0020922E06A4640F64201504623F050
:1052400001F910B14FF0020918E06A4640F6430137
:10525000504623F0F7F810B14FF002090EE06A460D
:1052600040F64901504623F0EDF810B14FF0020925
:1052700004E0B9F1000F01D14FF0010900BF00BFF8
:105280006D1C608CC0F3C500A8423FF68EAE484648
:105290006BE700000148006870470000A000002094
:1052A00070470146C1F30412072A00DD0722D0B27D
:1052B0007047000010B518210348FFF7DDFC0120FE
:1052C00025F020F810BD0000101A00202DE9F04153
:1052D00005460F4616460DB9BDE8F0812846FBF796
:1052E00024F88046394628460A4A126890470746FD
:1052F000E8193146074A1268904706463C4603E0E3
:10530000A019285C2855641CA8EB0600A042F7D21F
:1053100000BFE1E7340200202DE9F04106460C46CB
:1053200017461D4629463046084A126890472060B5
:10533000206830B1296888190021044A1268904712
:1053400000E000203860BDE8F08100002C02002061
:105350002DE9F04F87B004460F4692469846DDE9A6
:1053600010560DB1002028801CB9002007B0BDE800
:10537000F08F207808B90020F8E70FB90020F5E792
:105380004FF0000906F0020010B906F0040098B1D1
:10539000002000E0401C215C0A2905D0215C0D2979
:1053A00002D0215C0029F5D1215C01B1401C15B16E
:1053B0004FF0FF312980D9E706F0020008B141F62D
:1053C000FF7800200690059038E0002004900598B2
:1053D00008B9012000E0002006A904AACDE9006276
:1053E000CDE902100599601843465246394625F02A
:1053F00023FA83460498A8EB00000FFA80F804987B
:1054000048440FFA80F9BBF1000F00D11CE0059869
:105410005844059020780A2802D020780D2800D121
:1054200012E00598205C0A2803D00598205C0D281E
:1054300003D10598401C059006E000BF0598205C4C
:1054400010B1B8F1000FC0DC00BF059870B905A914
:105450002046094A12689047834635B100225946D2
:10546000384617F0DCFA0FFA80F900BF0DB1A5F845
:10547000009005987AE700002C0200202DE9F04703
:1054800006468846174606B10FB9BDE8F087304694
:10549000FAF74BFF81463846FAF747FF044604B94E
:1054A000F3E704EB090A414630460B4A126890477D
:1054B0008046554603E0281B305C70556D1E08EB96
:1054C0000400A842F7D906EB0800224639461BF033
:1054D000D4FB00BFD9E700003402002002460020C0
:1054E0000FA31B788B4211D113781BB901231370C2
:1054F00001200BE01378012B02D10023137005E08B
:105500001378022B02D10023137001201378012B92
:1055100004D1202901D1022313700120704700001B
:105520002300000073B582B006460398019032460E
:1055300000210846019B25F09BFC054600200190B8
:105540000024681C1BF0FAF8044600BF1CB900BF19
:1055500000BF00BFFEE700BF14B9002004B070BD5B
:10556000002060553246691C2046039B25F080FCD4
:105570002046F3E72DE9F04781460E4614461F46C4
:10558000DDF820A035461BE0600800FB07552946E2
:105590004846D047B0F1000809DD04F0010080F072
:1055A0000100C0EB5404E8190546064608E0B8F1CE
:1055B000000F02DA6408354602E02846BDE8F087AD
:1055C000002CE1D10020F9E72DE9FF4F85B083469B
:1055D000DDE9158ADDE91349DDE91775129E05F04D
:1055E0000200F8B94FB105F0010030B1B9F1000F78
:1055F00002D105F00C0000B17F1E03E030222046EE
:10560000641C3254544501D2202CF7D303E03022DD
:105610002046641C325405F0010018B1BC4201D28E
:10562000202CF4D305F01000B0B305F4806050B91D
:105630004CB1544501D0BC4205D1641E1CB1B8F137
:10564000100F00D1641EB8F1100F09D105F0200031
:1056500030B9202C04D278222046641C325415E044
:10566000B8F1100F09D105F0200030B1202C04D280
:1056700058222046641C325408E0B8F1020F05D1CC
:10568000202C03D262222046641C3254202C03D2E8
:1056900030222046641C3254202C16D2B9F1000F5F
:1056A00004D02D222046641C32540EE005F0040084
:1056B00020B12B222046641C325406E005F008007D
:1056C00018B120222046641C3254CDE90275CDE980
:1056D0000064584606A90EC900F0A2F809B0BDE85A
:1056E000F08F2DE9FF4F8FB08046DDE91FABDDE97C
:1056F0001D96219D1C9C00270CB925F0100505F472
:10570000806000B1E4B100BFB4FBF6F106FB1141CB
:10571000C8B20A2802DA00F1300107E005F02001E2
:1057200009B1412100E0612101440A39CBB2394677
:105730007F1C07AA5354B4FBF6F40CB1202FE3D31B
:1057400007A8CDE904AB8DE8810203960695404693
:1057500010A90EC9FFF738FF13B0BDE8F08F2DE98F
:10576000FF4F8FB0DDE9217BDDF89080209EDDE9E1
:105770001C454FF00009002184EA010069400843FC
:1057800001D128F0100808F4806028B1002184EAD3
:105790000100694008432DD000BF32463B462046F9
:1057A0002946FAF76DFD02F0FF0ABAF10A0F02DA94
:1057B0000AF1300007E008F0200008B1412000E0C5
:1057C000612050440A38C2B2484609F1010907A9CC
:1057D0000A5432463B4620462946FAF751FD044614
:1057E0000D46002184EA01006940084302D0B9F166
:1057F000200FD2D32398CDE9036BCDE9050807A983
:105800001E98CDE9001902900FA80FC8FFF7DCFE23
:1058100013B0BDE8F08F9A4200D2885470477047A9
:105820002DE9FF5F05461446DDE90EA6DDE9108788
:10583000A34607F0020078B907F0010060B9B1464D
:1058400007E02246641C2020039B0199A84709F128
:105850000109C145F5D300BF08E02246641C711E52
:105860000E461AF80100039B0199A847002EF4D1B7
:1058700007F0020050B105E02246641C2020039B83
:105880000199A847A4EB0B004045F5D3204604B08E
:10589000BDE8F09F2DE9FF4F8BB0074600250C981F
:1058A00000B9FA4FEAE20E98007825280AD02A4675
:1058B0006D1C0E990878DDE90C13B8470E98401C52
:1058C0000E90DBE20E98401C0E90002400BF0E9854
:1058D00000782B2819D004DC20281ED023282CD1B6
:1058E00023E02D2809D0302827D144F001040E9858
:1058F000401C0E9001200A9022E044F002040E9811
:10590000401C0E9001200A901AE044F004040E9806
:10591000401C0E9001200A9012E044F008040E98FA
:10592000401C0E9001200A900AE044F010040E98EA
:10593000401C0E9001200A9002E000200A9000BF57
:1059400000BF0A980028C2D180460E990878FDF75A
:10595000A1FE20B10EA8FDF788FE804612E00E9849
:1059600000782A280ED1189901C91891002804DA64
:1059700044F00204C0F1000800E080460E99491C82
:105980000E9100BF4FF000090E9800782E281FD10D
:1059900044F480640E98401C0E900E990878FDF730
:1059A00079FE20B10EA8FDF760FE814610E00E984A
:1059B00000782A280CD1189901C91891002801DD16
:1059C000014600E0002189460E99491C0E9100BF56
:1059D0000E9800786C280AD004DC682816D06A2853
:1059E00035D128E0742820D07A2830D129E044F439
:1059F00080740E98401C0E900E9800786C2804D18C
:105A000044F400740E98401C0E9021E044F0800491
:105A10000E98401C0E900E980078682804D144F02F
:105A200040040E98401C0E9012E044F480740E98CE
:105A3000401C0E900CE044F400740E98401C0E9034
:105A400006E044F480740E98401C0E9000E000BF05
:105A500000BF0E98007869281DD00EDC622821D086
:105A600006DC25287ED050281AD058287BD115E096
:105A7000632879D06428F9D10CE0732875D004DC50
:105A80006F280ED07028F1D109E0752804D078284D
:105A9000ECD102E000BF00BF00BF00BF00BF00BFED
:105AA00000BF00BF0E980078782803D00E980078C9
:105AB000582801D1102623E00E980078702803D0D2
:105AC0000E98007850280CD1102644F0100444F4AD
:105AD00080740E984078562812D10E98401C0E9073
