:020000040800F2
:10000000004600205D02000861390008DB3100086D
:100010005D390008E10A00083D4B000800000000BF
:100020000000000000000000000000009D0100082A
:100030005F0D000800000000F90100082D420008D3
:1000400077020008770200087702000877020008AC
:10005000770200087702000877020008770200089C
:10006000770200087702000877020008770200088C
:10007000770200087702000877020008770200087C
:10008000770200087702000877020008770200086C
:10009000770200087702000877020008770200085C
:1000A0007702000829430008770200087702000859
:1000B0007702000839430008770200087702000839
:1000C000770200087702000877020008770200082C
:1000D000770200082D4B000877020008770200081D
:1000E000770200087702000877020008770200080C
:1000F00077020008770200087702000877020008FC
:1001000077020008770200087702000877020008EB
:1001100077020008770200087702000877020008DB
:1001200077020008770200087702000877020008CB
:1001300077020008770200087702000877020008BB
:1001400077020008770200087702000877020008AB
:10015000770200087702000877020008770200089B
:10016000770200087702000877020008770200088B
:1001700077020008770200087702000800000000FC
:100180007702000877020008DFF80CD000F0A8FB27
:1001900000480047E95D0008004600202C4B196824
:1001A0000868B0E8F04F80F30988BFF36F8F4FF015
:1001B000000080F3118870470000000008480068C4
:1001C000006880F308884FF0000080F3148862B65E
:1001D00061B6BFF34F8FBFF36F8F00DF00BF00BF6B
:1001E00008ED00E0DFF80C00016841F470010160E7
:1001F000704700BF88ED00E0EFF30980BFF36F8F19
:10020000134B1A681EF0100F08BF20ED108A20E96A
:10021000F04F106009B44FF0500080F31188BFF325
:100220004F8FBFF36F8F06F0ADFC4FF0000080F3EF
:10023000118809BC19680868B0E8F04F1EF0100F6B
:1002400008BFB0EC108A80F30988BFF36F8F704746
:1002500024000020EFF30580704700000648804727
:1002600006480047FEE7FEE7FEE7FEE7FEE7FEE79B
:10027000FEE7FEE7FEE7FEE71543000889010008F8
:100280002DE9F05F0546002092469B4688460646CB
:10029000814640241BE0284641464746224600F05E
:1002A00039FA53465A46C01A914110D3114618469E
:1002B000224600F020FA2D1A67EB01084F4622462D
:1002C0000120002100F017FA17EB00094E41201E13
:1002D000A4F10104DFDC484631462A464346BDE826
:1002E000F09F40EA01039B0703D009E008C9121FF1
:1002F00008C0042AFAD203E011F8013B00F8013BE0
:10030000521EF9D27047D2B201E000F8012B491E0B
:10031000FBD270470022F6E710B513460A460446A2
:100320001946FFF7F0FF204610BD2DE9FE4F80462D
:1003300081EA0300C00F0C46009021F0004123F039
:100340000045B8EB0200A94105D24046214690463F
:100350001C460B46024623F00040104347D0270DB1
:10036000C7F30A00C3F30A510290401A01904028D3
:100370006BDAC3F3130040F4801B0098924620B15F
:100380000023D2EB030A63EB0B0B01985946C0F133
:100390004002504600F0AFF906460D465046594619
:1003A000019A00F0C7F910EB08006141002487EAC8
:1003B000115284EAE7731A4340D0009A62B3019A5B
:1003C000012A4FEA075215DC001B61EB02014FF0D6
:1003D000004202EA0752CDE90042001C41F58011BB
:1003E00032462B4600F0FEF903B0BDE8F08F4046E0
:1003F0002146F9E7001B61EB0201001C41F5801367
:1004000000185B412018A2F5001747EB030140EAF2
:10041000D570B6196D4111E06D084FEA360645EA10
:10042000C0754FEA0752001B61EB0201001C41F549
:10043000801149084FEA30000019514132462B46DD
:1004400003B0BDE8F04F00F0BEB9009801224000B3
:100450000023D0EB020263EBE073009821464FEAE1
:10046000E074B8EB000061EB0401E9E783F00043BE
:100470005BE781F0004158E72DE9FE4F81EA030474
:1004800004F0004421F0004100944FF0000B23F0F1
:10049000004350EA01045ED052EA03045BD0C3F388
:1004A0000A54C1F30A552C44A4F2F3340194A0FB7E
:1004B0000254C1F3130141F48011C3F3130343F455
:1004C000801301FB024400FB034E840A970A44EAAE
:1004D000815447EA8357A4FB076802958D0A05FB00
:1004E00007854FEA932C04FB0C542705029D4FEA25
:1004F000065847EA1637B5EB08056EEB070C870E72
:10050000920E47EA811742EA8312A7FB0201B6EB7B
:100510000B0164EB00042B0D43EA0C335E1844EB33
:100520001C50DA465146E7FB0201C5F313044FEABB
:100530000B3343EA14534FEA0432019C43EA0603A7
:10054000A4F10C040294009CCDE900B400F04AF937
:1005500003B0BDE8F08F00200146F9E72DE9F04D2A
:1005600081EA030404F0004B21F0004514464FF0EB
:10057000000A23F0004150EA050220D054EA0102AB
:100580001DD0C5F30A570246C5F31303C1F3130088
:10059000C1F30A5640F4801543F48013A7EB060814
:1005A000101BD64608F2FD3873EB050002D308F1A4
:1005B000010801E092185B41B8F1000F03DA002056
:1005C0000146BDE8F08D00204FF4801106468446B8
:1005D0000EE0171B73EB050705D3121B63EB050336
:1005E00006434CEA010C49084FEA300092185B417F
:1005F00050EA0107EDD152EA030012D082EA04006A
:1006000083EA0501084305D0101BAB4106D2012245
:10061000002306E000224FF0004302E06FF00102E9
:1006200053101AEB06004CEB085110EB0A0041EB9B
:100630000B01BDE8F04D00F0C6B8C1F30A5210B589
:10064000C1F3130140F2FF3341F480119A4201DA01
:10065000002010BD40F233439A42A2F2334203DC41
:10066000524200F057F810BD904010BD00F000421B
:1006700030F000400AD0C10D01F56071C0F31600E2
:1006800042EA0151C2084007114370470020014669
:10069000704701F0004330B421F0004150EA0102FC
:1006A00006D00A0DA2F56072C1F31301002A02DC24
:1006B00030BC00207047440F44EAC104C100E01878
:1006C00030BC00EBC25000F047B830B50B460146D5
:1006D00000202022012409E021FA02F59D4205D3E1
:1006E00003FA02F5491B04FA02F52844151EA2F18B
:1006F0000102F1DC30BD202A04DB203A00FA02F1CD
:10070000002070479140C2F1200320FA03F31943FF
:1007100090407047202A04DB203A21FA02F00021A1
:10072000704721FA02F3D040C2F120029140084301
:1007300019467047202A06DBCB17203A41FA02F00F
:1007400043EAE07306E041FA02F3D040C2F120022E
:1007500091400843194670470029A8BF7047401CC4
:10076000490008BF20F00100704710B4B0FA80FCC7
:1007700000FA0CF050EA010404BF10BC704749B104
:10078000CCF1200421FA04F411FA0CF118BF012174
:1007900021430843A3EB0C01CB1D4FEA00614FEA54
:1007A000102042BF002010BC704700EBC350104423
:1007B0000029A4BF10BC7047401C490008BF20F0AE
:1007C000010010BC704710B5141E73F1000408DA64
:1007D000401C41F1000192185B411A4301D120F005
:1007E000010010BD2DE9F04D92469B4611B1B1FAC2
:1007F00081F202E0B0FA80F220329046FFF77BFFF0
:1008000004460F4640EA0A0041EA0B0153465A46A5
:10081000084313D0114653EA010019D0C8F1400231
:100820005046FFF777FF05460E465046594642466A
:10083000FFF761FF084305D0012004E02046394658
:10084000BDE8F08D0020054346EAE0762C433743AF
:100850000A986305E40AA0EB08000022FD0A44EAB6
:1008600047540A3002D500200146E9E70105101976
:100870006941DDE9084500196941BDE8F04DA2E78D
:10088000C1F30A52C1F3130140F2FF3341F4801166
:100890009A4202DA00200146704740F233439A42FE
:1008A000A2F2334202DC5242FFF734BFFFF723BF0C
:1008B00030B5041E71F1000404DB4FF000444042E7
:1008C00064EB0101141E73F1000405DB1C464FF0BC
:1008D0000043524263EB0403994208BF904230BD8B
:1008E000064C074D06E0E06840F0010394E807007D
:1008F00098471034AC42F6D3FFF74AFCAC730008BB
:10090000CC7300080EB5C10F80EAE0700844CA0736
:10091000002140F233438DE80E000A460B46FFF7F4
:1009200061FF03B000BD0EB540F2334102910021DA
:10093000CDE900110A460B46FFF754FF03B000BD96
:1009400070B5C1F30A5201F000450024C1F3130150
:1009500040F2FF3341F480119A4201DA002070BD69
:1009600040F233439A42A2F2334203DC5242FFF791
:10097000D1FE00E090402C43F1D0404270BD000019
:1009800055494A6822F440324A604A6843681A432B
:100990004A600268526822F4807203685A600268F2
:1009A0005368026943EA022203685A600268526887
:1009B00022F0407203685A600268526883681A43E2
:1009C00003685A600268926822F4006203689A60C1
:1009D00002689268C3681A4303689A603F4B826A50
:1009E0009A4218D00268926822F0706203689A6096
:1009F00002689268836A1A4303689A600268926880
:100A000022F0405203689A6002689268C36A1A43EF
:100A100003689A600BE00268926822F070620368D3
:100A20009A600268926822F0405203689A600268F5
:100A3000926822F0020203689A6002689368027E5C
:100A400043EA420203689A602022125CA2B1026863
:100A5000526842F4006203685A600268526822F4E5
:100A6000604203685A6002685368426A521E43EA51
:100A7000423203685A6005E00268526822F400625C
:100A800003685A600268D26A22F470020368DA626C
:100A90000268D36A828B521E43EA02520368DA620A
:100AA0000268926822F4007203689A600268936890
:100AB00090F8302043EA422203689A600268926804
:100AC00022F4806203689A6002689368426943EA8C
:100AD000822203689A607047002301400100000FE2
:100AE00000BFFEE700B587B0142102A8FFF712FC93
:100AF00000BF002001901148006840F002000F493B
:100B000008600846006800F00200019000BF00BFC6
:100B1000881502900120039004900220059002A9FC
:100B2000074800F047FC01221102054800F044FD8F
:100B3000044802F054FB07B000BD0000303802400A
:100B4000000402404003002010B5084B5968084BD0
:100B50001B68084CB3FBF4F303FB00F200BF034B2C
:100B60005B685B1A9342FAD310BD0000001000E0EE
:100B70002000002040420F002DE9F0410027002610
:100B800039E0002404E0601CC4B20120FFF7DCFF60
:100B900000F05AF808B1642CF5DB642C02DBFF206E
:100BA000BDE8F081002404E0601CC4B20120FFF71E
:100BB000CBFF00F049F808B9642CF5DB642C01DBAD
:100BC000FF20EDE7002504E0681C85B20120FFF757
:100BD000BBFF00F039F808B1642DF5DB642D01DBB3
:100BE000FF20DDE72D2D05DDC6F10701012088403E
:100BF0003843C7B2761C082EC3DB3846D0E770B541
:100C0000044600F063F808B9002070BDFFF7B4FF98
:100C10002070FFF7B1FF6070FFF7AEFFA070FFF725
:100C2000ABFFE070FFF7A8FF2071207861780844DF
:100C3000A1780844E1780844C5B22079A84201D1DE
:100C40000120E2E70020E0E710B54FF480610248A0
:100C500000F0AAFC10BD0000000C024010B50446D4
:100C600022464FF48061024800F0A6FC10BD00004F
:100C7000000C024000B585B014216846FFF74AFB1E
:100C80004FF480600090002001900120029069469E
:100C9000024800F08FFB05B000BD0000000C0240D0
:100CA00000B585B014216846FFF734FB4FF480602F
:100CB00000900120019002900220039069460248B2
:100CC00000F078FB05B000BD000C024010B5002418
:100CD000FFF7E6FF0020FFF7C1FF122000F056FBF0
:100CE0000120FFF7BBFF1E20FFF72EFFFFF7C2FF1B
:100CF00004E0601CC4B20120FFF726FFFFF7A4FF49
:100D000008B1642CF5DB642C01DB002010BD00244D
:100D100004E0601CC4B20120FFF716FFFFF794FF48
:100D200008B9642CF5DB642C01DB0020EEE7012020
:100D3000ECE730B50468246824F4802405682C604E
:100D4000046863608468402C04D10468A26004686D
:100D5000E16003E00468A1600468E26030BD7047B0
:100D600072B600BFFEE7000010B5074800F0B4F906
:100D70000A21054800F048F920B9034800F0CCF8F2
:100D800080B210BD0020FCE7F802002038B5024612
:100D90000020009000BF92F83C00012801D1022001
:100DA00038BD012082F83C0000BF0868092816D928
:100DB0001068C0680C780A3C04EB44050724AC407A
:100DC000A0431468E0600C780A3C04EB4404886893
:100DD000A0401468E46820431468E06013E01068E1
:100DE00000690C7804EB44050724AC40A043146868
:100DF00020610C7804EB44048868A04014682469DE
:100E00002043146820614868072817D21068406B97
:100E10000C79641E04EB84051F24AC40A0431468C5
:100E20006063088880B20C79641E04EB8404A040DF
:100E30001468646B20431468606331E048680D28CF
:100E400017D21068006B0C79E41F04EB84051F2493
:100E5000AC40A04314682063088880B20C79E41F7A
:100E600004EB8404A0401468246B204314682063BE
:100E700016E01068C06A0C790D3C04EB84051F2451
:100E8000AC40A0431468E062088880B20C790D3C45
:100E900004EB8404A0401468E46A20431468E06210
:100EA000194B1A4C1068A04206D10868122803D1C9
:100EB000586840F480005860144C1068A0421CD15F
:100EC0000868102802D00868112816D1586840F424
:100ED00000005860086810280FD10D4800680D4CBC
:100EE000B0FBF4F000EB80004000009002E00098BE
:100EF000401E009000980028F9D100BF002082F821
:100F00003C0000BF00BF4BE7002301400020014030
:100F10002000002040420F0001460868C06C704766
:100F200070B5044600250CB9012070BD1549A06AB2
:100F3000884200D000BF206C30B9204600F024F871
:100F40000020606484F83C00206C00F0100088B938
:100F5000206C20F4885040F0020020642046FFF707
:100F60000FFD00206064206C20F0020040F00100C2
:100F7000206400E0012500BF002084F83C0000BF91
:100F80002846D2E70100000F10B586B004461421B0
:100F900001A8FFF7BFF91949206888422BD100BF8B
:100FA000002000901648006840F4807014490860E2
:100FB0000846006800F48070009000BF00BF00BFCA
:100FC000002000900E481438006840F001000C49E1
:100FD000143908600846006800F00100009000BF66
:100FE00000BF02200190032002900020039001A97D
:100FF000044800F0DFF906B010BD000000200140F9
:10100000443802400000024070B504460D460026F8
:101010002068806800F48060B0F5806F11D120688E
:10102000806800F48070B0F5807F0AD1206C40F0B9
:101030002000206400BF002084F83C0000BF012095
:1010400070BD00F0BFFA064618E0681CB0B125B1CB
:1010500000F0B8FA801BA84210D92068006800F0A0
:10106000020002280AD0206C40F00400206400BF77
:10107000002084F83C0000BF0320E1E720680068FE
:1010800000F002000228E0D16FF012002168086031
:10109000206C40F4007020642068806800F04050AC
:1010A000B8B9207EA8B92068C06A00F4700020B1E9
:1010B0002068806800F4806058B9206C20F480704B
:1010C0002064206C00F4805018B9206C40F00100BE
:1010D00020640020B4E7000008B50146002000901D
:1010E00000BF91F83C00012801D1022008BD012079
:1010F00081F83C0000BF0868806800F00100A0B9DA
:101100000868806840F001000B6898603F480068FC
:101110003F4BB0FBF3F000EB4000009002E0009882
:10112000401E009000980028F9D10868806800F0FF
:101130000100002860D0086C40F20163984340F43D
:10114000807008640868406800F4806028B1086C0A
:1011500020F4005040F480500864086C00F4805083
:10116000B0F5805F04D1486C20F00600486401E0CF
:101170000020486400BF002081F83C0000BF254AE1
:101180006FF022000B681860506800F01F0018BB59
:10119000214B0868984213D0204B0868984204D12C
:1011A000101D006800F01F0050B11D4B08689842E8
:1011B0002AD11848001D006800F01F00102823D213
:1011C0000868806800F04050F0B90868806840F016
:1011D00080400B68986017E00F4B0868984213D165
:1011E0000868806800F0405070B90868806840F076
:1011F00080400B68986007E0086C40F010000864BD
:10120000486C40F00100486400206FE72000002097
:1012100040420F0000230140002001400021014016
:101220000022014070B50446A56D00F0CBF90646DA
:1012300094F83500022808D08020606500BF0020A7
:1012400084F8340000BF012070BD2068006820F0E1
:101250001600216808602068406920F0800021683D
:101260004861206C08B9A06C28B12068006820F0A3
:101270000800216808602068006820F001002168EB
:10128000086010E000F09EF9801B05280BD9202093
:101290006065032084F8350000BF002084F8340026
:1012A00000BF0320D0E72068006800F0010000289C
:1012B000E8D194F85C103F208840A860012084F8B1
:1012C000350000BF002084F8340000BF00BFBBE73A
:1012D000014691F83500022803D08020486501209E
:1012E0007047052081F835000868006820F001008B
:1012F0000A6810600020F3E72DE9F04704460D4628
:1013000016461F464FF00008D4F8589000BF94F8D6
:101310003400012802D10220BDE8F087012084F8C2
:10132000340000BF94F83500012825D1022084F84C
:101330003500002060653B46324629462046FFF7CF
:10134000F8FC94F85C103F208840C9F80800206839
:10135000006840F0160021680860206C28B1206801
:10136000006840F00800216808602068006840F0CC
:1013700001002168086006E000BF002084F8340006
:1013800000BF4FF002084046C6E7000070B50446B3
:1013900000F018F906462546681C10B1044800788C
:1013A000054400BF00F00EF9801BA842FAD370BDBF
:1013B0001C000020F8B502460B4600250024002042
:1013C0000021D6E0012606FA01F51E6806EA0504AA
:1013D000AC4274D11E7906F00306012E04D01E79AA
:1013E00006F00306022E13D190684F000326BE407C
:1013F000B0434F00DE68BE40304390605068012625
:101400008E40B0431E79C6F300168E4030435060C4
:101410001E7906F00306032E09D0D0684F0003267C
:10142000BE40B0434F009E68BE403043D0601E793E
:1014300006F00306022E13D1CF0802F1200656F85B
:1014400027004E07F70E0F26BE40B0434F07FF0E92
:101450001E69BE403043CF0802F1200646F827003F
:1014600010684F000326BE40B0431E7906F0030605
:101470004F00BE40304310605E6806F44036002ED8
:1014800076D000BF002600963C4E366846F4804673
:101490003A4F3E603E46366806F48046009600BFEE
:1014A00000BF374E8F0856F827008E07370F0F26DC
:1014B000BE40B043334EB24202D1002624E057E092
:1014C000314EB24201D101261EE0304EB24201D16E
:1014D000022619E02E4EB24201D1032614E02D4E11
:1014E000B24201D104260FE02B4EB24201D10526B3
:1014F0000AE02A4EB24201D1062605E0284EB24249
:1015000001D1072600E008268F073F0FBE40304379
:101510001B4E8F0846F82700224E3068A0435E68B5
:1015200006F4801606B120431E4E3060361D30682A
:10153000A0435E6806F4001606B12043194E361D1E
:101540003060184E361F3068A0435E6806F40036DF
:1015500006B12043134E361F3060361F3068A0435B
:101560005E6806F4803606B120430E4E083E3060B9
:10157000491C1029FFF426AFF8BD00004438024092
:101580000838014000000240000402400008024008
:10159000000C0240001002400014024000180240FB
:1015A000001C0240083C0140024613690B400BB18D
:1015B000012000E0002070470AB1816101E00B04C6
:1015C00083617047014800687047000014000020E4
:1015D00070B504460CB9012070BD94F83D0028B9DF
:1015E000002084F83C00204600F0DAF8242084F83B
:1015F0003D002068006820F0010021680860206834
:10160000006840F40040216808602068006820F409
:1016100000402168086000F0FBFA05465C496068FC
:10162000884206D85B48854201D2012007E00020AD
:1016300005E05948854201D2012000E00020012840
:1016400000D1C9E75548B5FBF0F62068406820F0A6
:101650003F003043216848604D496068884201D8A6
:10166000701C07E04FF4967070434FF47A71B0FB32
:10167000F1F0401C2168096A21F03F01084321680C
:10168000086243496068884214D8681E616849004E
:10169000B0FBF1F0401CC0F30B00042801D2042081
:1016A0003DE0681E61684900B0FBF1F0401CC0F3EA
:1016B0000B0034E0A06838B9681E616801EB410195
:1016C000B0FBF1F0401C0AE0681E616801EBC1024A
:1016D00002EB0111B0FBF1F0401C40F48040C0F37C
:1016E0000B0008B901201AE0A06848B9681E6168BB
:1016F00001EB4101B0FBF1F0401CC0F30B000CE02A
:10170000681E616801EBC10202EB0111B0FBF1F050
:10171000401CC0F30B0040F4804040F400402168BE
:10172000C9694CF6FF72914308432168C861D4E946
:10173000070108432168096821F0C00108432168B6
:101740000860D4E9031008432168896848F2FF3231
:101750009143084321688860D4E905010843216862
:10176000C96821F0FF0108432168C860206800684B
:1017700040F001002168086000202064202084F8E7
:101780003D000020206384F83E0000BF24E70000F5
:10179000A086010080841E0000093D0040420F0029
:1017A00010B586B00446142101A8FEF7B3FD1B490D
:1017B000206888422FD100BF0020009018480068A0
:1017C00040F00200164908600846006800F0020078
:1017D000009000BF00BFC0200190122002900020A6
:1017E0000390032004900420059001A90D48FFF701
:1017F000E1FD00BF0020009009481030006840F46F
:1018000000100749103108600846006800F4001015
:10181000009000BF00BF06B010BD000000540040A3
:101820003038024000040240034800680349097848
:101830000844014908607047140000201C00002083
:1018400010B50D48006840F400700B490860084668
:10185000006840F4806008600846006840F48070CA
:101860000860032000F0D6F80F2000F007F800F021
:1018700055F8002010BD0000003C0240F0B587B0D4
:1018800004460026002700BF002000901E48006884
:1018900040F001001C4908600846006800F00100A3
:1018A000009000BF00BF01A902A800F089F900F074
:1018B000BFF946001548B6FBF0F0471E144815491D
:1018C000086040F2E7311348C160476000210161C0
:1018D0008160816100F0C8FE054695B90D4800F0B1
:1018E00027FF05466DB9192000F042F8102C07D2E9
:1018F00000222146192000F04FF80748046000E05C
:101900000125284607B0F0BD4438024040420F0090
:1019100000000140C40400201800002008B500BFEA
:10192000002000901148006840F480400F49086092
:101930000846006800F48040009000BF00BF00BF70
:1019400000200090081F006840F08050091F0860C8
:101950000846006800F08050009000BF00BF0022E1
:101960000F21901E00F018F808BD00004438024016
:101970000146084600280DDB00BF00BF00F01F0332
:1019800001229A4043099B0003F1E023C3F80021A0
:1019900000BF00BF00BF70472DE9F05F80460D46D5
:1019A0001646002703F0F4F8074639462A46334620
:1019B00001F00700C0F1070ABAF1040F02D94FF095
:1019C000040A01E0C0F1070AD14600F1040ABAF1A5
:1019D000070F02D24FF0000A01E0A0F1030AD4463B
:1019E0004FF0010A0AFA09FAAAF1010A0AEA020A00
:1019F0000AFA0CFA4FF0010B0BFA0CFBABF1010BDE
:101A00000BEA030B4AEA0B042146404603F0C8F8F0
:101A1000BDE8F09F00BF00F00702064B19684FF6C3
:101A2000FF031940044B0B4343EA0221014B1960A9
:101A300000BF70470CED00E00000FA0570B50446E9
:101A40000D460CB9012070BD5848006800F0070031
:101A5000A84209D255490D700846006800F00700F9
:101A6000A84201D00120EEE7207800F00200022811
:101A70001DD1207800F00400042805D14C480068EE
:101A800040F4E0504A490860207800F00800082837
:101A900005D14748006840F4604045490860444823
:101AA000006820F0F000A1680843414908602078F0
:101AB00000F00100A8B36068012807D13C4808384D
:101AC0000068C0F34040B8B90120BCE76068022854
:101AD00002D06068032807D1354808380068C0F391
:101AE000406048B90120AEE7314808380068C0F3CB
:101AF000400008B90120A6E72D48006820F0030047
:101B0000616808432A490860FFF75CFD064609E062
:101B1000FFF758FD801B41F28831884202D903202B
:101B200091E707E02248006800F00C006168B0EB24
:101B3000810FEDD11D48006800F00700A84209D9C7
:101B40001A490D700846006800F00700A84201D04D
:101B5000012078E7207800F00400042807D1144819
:101B6000006820F4E050E1680843114908602078DB
:101B700000F00800082808D10D48006820F46040F3
:101B8000216940EAC1000A49086000F061F808498B
:101B90000968C1F30311074A515CC840064908604F
:101BA00006480068FFF76AFE00204CE7003C024050
:101BB000083802409471000820000020180000201E
:101BC0000F2202600D4A126802F0030242600B4AC3
:101BD000126802F0F0028260084A126802F4E052D1
:101BE000C260064A126802F46042D2080261044AE6
:101BF000126802F007020A607047000008380240CD
:101C0000003C0240014800687047000020000020AE
:101C100000B5FFF7F7FF04490968C1F38221034AC1
:101C2000515CC84000BD000008380240A4710008A3
:101C300000B5FFF7E7FF04490968C1F34231034AE1
:101C4000515CC84000BD000008380240A471000883
:101C50002DE9F047002400250026A146254800680C
:101C600000F00C0020B1042805D008283AD105E086
:101C7000DFF8849039E0DFF8849036E01D48001FDB
:101C8000006800F03F041B48001F006800F480005B
:101C900078B11A481749091F0968C1F38811A0FBD8
:101CA00001700146224600233846FEF7E9FA054650
:101CB0000EE011480F49091F0968C1F38811A0FB04
:101CC00001700146224600233846FEF7D9FA054640
:101CD0000848001F0068C0F30140401C4600B5FBE7
:101CE000F6F902E0DFF8109000BF00BF4846BDE8FB
:101CF000F0870000083802400024F40000127A0047
:101D0000F8B504460CB90120F8BD207800F00100B8
:101D1000002874D0F948006800F00C0004280DD0A9
:101D2000F648006800F00C00082813D1F348001FA3
:101D3000006800F48000B0F5800F0BD1EF48083840
:101D40000068C0F34040002859D06068002856D190
:101D50000120D9E700BF6068B0F5803F08D1E748AF
:101D60000838006840F48030E449083908601EE013
:101D70006068B0F5A02F0DD1E0480838006840F445
:101D80008020DE49083908600846006840F4803049
:101D900008600CE0D9480838006820F48030D74942
:101DA000083908600846006820F48020086000BFF9
:101DB000606890B1FFF706FC054606E0FFF702FCFD
:101DC000401B642801D903209EE7CC4808380068EE
:101DD000C0F340400028F1D011E0FFF7F3FB0546C7
:101DE00006E0FFF7EFFB401B642801D903208BE7D7
:101DF000C24808380068C0F340400028F1D120787C
:101E000000F0020002285FD1BC48006800F00C001E
:101E100058B1BA48006800F00C0008281CD1B74837
:101E2000001F006800F48000B0B9B44808380068AA
:101E3000C0F3400020B1E068012801D0012063E731
:101E4000AE480838006820F0F800216940EAC10077
:101E5000AA490839086037E0E06800B30120A849C2
:101E60000860FFF7AFFB054606E0FFF7ABFB401B42
:101E7000022801D9032047E7A04808380068C0F3CA
:101E800040000028F1D09D480838006820F0F80094
:101E9000216940EAC10099490839086014E000202E
:101EA00097490860FFF78EFB054606E0FFF78AFBBF
:101EB000401B022801D9032026E790480838006813
:101EC000C0F340000028F1D1207800F00800082875
:101ED0002CD16069A8B101208A490860FFF772FB24
:101EE000054606E0FFF76EFB401B022801D90320E0
:101EF0000AE782486C300068C0F340000028F1D047
:101F000014E000207F490860FFF75CFB054606E00F
:101F1000FFF758FB401B022801D90320F4E677485D
:101F20006C300068C0F340000028F1D1207800F048
:101F30000400042870D1002770483830006800F091
:101F4000805090B900BF002000906C483830006885
:101F500040F080506949383108600846006800F058
:101F60008050009000BF00BF01276748006800F460
:101F70008070B0B96448006840F4807062490860BD
:101F8000FFF720FB054606E0FFF71CFB401B02287D
:101F900001D90320B8E65C48006800F4807000288E
:101FA000F2D000BFA068012808D15448683000680A
:101FB00040F001005149683108601DE0A068052823
:101FC0000DD14E486830006840F004004B4968313C
:101FD00008600846006840F0010008600CE04748CF
:101FE0006830006820F00100444968310860084604
:101FF000006820F00400086000BFA068A8B1FFF7E7
:10200000E1FA054609E0FFF7DDFA401B41F28831AD
:10201000884202D9032077E626E038486830006815
:10202000C0F340000028EED013E0FFF7CBFA0546DE
:1020300008E0FFF7C7FA401B41F28831884201D916
:10204000032061E62D4868300068C0F34000002896
:10205000EFD1012F07D129483830006820F0805097
:1020600026493831086000BFA069002845D02348C0
:10207000006800F00C0008285DD0A069022845D156
:1020800000201F490866FFF79DFA054606E0FFF7A6
:1020900099FA401B022801D9032035E61748083871
:1020A0000068C0F340600028F1D1D4E9070108437B
:1020B000616A40EA81110122A06AC2EB500041EA44
:1020C00000412C20005D41EA00600C49091F0860B6
:1020D00001200B490866FFF775FA054606E0FFF791
:1020E00071FA401B022801D903200DE60348083885
:1020F0000068C0F340600028F1D049E00838024091
:1021000000004742800E47420070004000202149F5
:102110000866FFF757FA054606E0FFF753FA401B3B
:10212000022801D90320EFE51B480068C0F3406096
:102130000028F2D12CE0A069012800D1E4E516487E
:10214000001D0668A069012820D006F48001E0691E
:1021500081421BD106F03F01206A814216D147F629
:10216000C0703040616AB0EB811F0FD106F440317E
:102170000122A06AC2EB5000B1EB004F06D106F07D
:1021800070612C20005DB1EB006F01D00120BBE538
:102190000020B9E50000474200380240704710B502
:1021A00004460CB9012010BD606A38B96068B0F50A
:1021B000827F00D105E00021E16102E00021216180
:1021C00061610021A16294F8510028B9002084F8CF
:1021D0005000204600F048F8022084F851002068A2
:1021E000006820F0400021680860A08800F4827038
:1021F000218901F404410843A18901F400610843E5
:10220000217C01F002010843217D01F00101084316
:10221000218B01F400710843217F01F0380108434C
:102220002021095D01F080010843218D01F4005156
:102230000843216808600421A06901EA104094F86D
:10224000241001F010010843216848602068C0692B
:1022500020F400602168C86100206065012084F8D6
:10226000510000209FE7000010B586B004461421FD
:1022700001A8FEF74FF81B49206888422FD100BF04
:10228000002000901848006840F48050164908600B
:102290000846006800F48050009000BF00BF00BFF7
:1022A0000020009010481438006840F001000E49EA
:1022B000143908600846006800F00100009000BF73
:1022C00000BFA02001900220029000200390032074
:1022D00004900520059001A90448FFF76BF806B0AB
:1022E00010BD0000003001404438024000000240B0
:1022F0002DE9F84304460F4616461D46FFF762F9DE
:102300008046B14694F85100012802D00220BDE871
:10231000F88307B10EB90120F9E700BF94F8500027
:10232000012801D10220F2E7012084F8500000BF0B
:10233000032084F85100002060652763A686E686A6
:10234000A063A087E08760642064A068B0F5004FB8
:102350000BD12068006820F04000216808602068E8
:10236000006840F48040216808602068006800F040
:102370004000402805D02068006840F040002168F7
:102380000860E068B0F5006F37D1606810B1B9F14E
:10239000010F09D1206B00882168C860206B801C68
:1023A0002063E08E401EE08623E02068806800F015
:1023B000020002280AD1206B00882168C860206BC7
:1023C000801C2063E08E401EE08612E0FFF7FAF8E2
:1023D000A0EB0800A84201D3681C00B94DB9012048
:1023E00084F8510000BF002084F8500000BF032093
:1023F0008DE7E08E0028D8D136E0606810B1B9F1E1
:10240000010F09D1206B007821680873206B401CF4
:102410002063E08E401EE08623E02068806800F0A4
:10242000020002280AD1206B007821680873206B13
:10243000401C2063E08E401EE08612E0FFF7C2F8E9
:10244000A0EB0800A84201D3681C00B94DB90120D7
:1024500084F8510000BF002084F8500000BF032022
:1024600055E7E08E0028D8D142462946204601F0A3
:1024700013FD08B120206065A06850B900BF00209E
:1024800000902068C068009020688068009000BFBD
:1024900000BF012084F8510000BF002084F85000E4
:1024A00000BF606D08B1012031E700202FE7000078
:1024B0002DE9F04104460E46154694F851000128D6
:1024C00002D00220BDE8F08106B10DB90120F9E784
:1024D00000BF94F85000012801D10220F2E701204A
:1024E00084F8500000BF032084F85100002060658C
:1024F0002663A586E586A06360642064A087E087E4
:10250000A068B0F5004F0BD12068006820F04000B3
:10251000216808602068006840F4804021680860F5
:102520001F48A16C08641F48A16CC8631E48A16CB9
:10253000C8640020A16C0865E38E276807F10C02CF
:10254000216BA06CFEF7D8FE50B1606D40F010001A
:10255000606500BF002084F8500000BF0120B1E793
:102560002068006800F04000402805D0206800681E
:1025700040F040002168086000BF002084F850004F
:1025800000BF2068406840F0200021684860206853
:10259000406840F0020021684860002092E7000097
:1025A000093E0008173E0008E13D000870477047EB
:1025B0007047704730B502460B4600BF92F83C00AA
:1025C000012801D1022030BD012082F83C0000BF6B
:1025D000022082F83D00106844681068816824F089
:1025E00070041868044310684460184D1068A842CD
:1025F0001BD01068B0F1804F17D0154D1068A8425D
:1026000013D0144D1068A8420FD0134D1068A84283
:102610000BD0124D1068A84207D0114D1068A84287
:1026200003D0104D1068A84205D121F080015868F0
:10263000014310688160012082F83D0000BF002046
:1026400082F83C0000BF00BFBDE700000000014071
:102650000004004000080040000C0040000401405D
:10266000004001400018004010B504460CB901209C
:1026700010BD94F83D0028B9002084F83C002046A5
:1026800000F026F8022084F83D00211D206801F0AA
:102690005BFE012084F8460000BF84F83E00012163
:1026A0003F200155402001554120015500BF00BF8A
:1026B000012084F842004320015544200155452063
:1026C000015500BF012084F83D000020D0E7000044
:1026D00008B5144A016891420FD100BF0021009152
:1026E0001149096841F002010F4A11601146096859
:1026F00001F00201009100BF13E00C4A0168914211
:102700000FD100BF002100910749096841F0040181
:10271000054A11601146096801F00401009100BFEB
:1027200000BF08BD000400404038024000080040DF
:10273000014691F83D00012801D001207047022098
:1027400081F83D000868C06840F001000B68D8605F
:102750001A4B086898421BD00868B0F1804F17D018
:10276000174B0868984213D0164B086898420FD050
:10277000154B086898420BD0144B0868984207D054
:10278000134B0868984203D0124B086898420CD14A
:102790000868806800F00702062A0CD00868006804
:1027A00040F001000B68186005E00868006840F020
:1027B00001000B6818600020C0E700000000014025
:1027C0000004004000080040000C004000040140EC
:1027D00000400140001800402DE9F04104460D463C
:1027E000002700BF94F83C00012802D10220BDE878
:1027F000F081012084F83C0000BF022084F83D00F5
:102800002068866826F0770626F47F462068866072
:102810002868502833D00CDC202850D004DC002855
:102820004BD0102851D149E0302849D040284CD114
:1028300039E060282DD0702807D0B0F5805F03D034
:10284000B0F5005F41D10DE041E0D5E902136A68BF
:10285000206801F0FAFD2068866846F07706206857
:10286000866034E0D5E902136A68206801F0EDFD66
:102870002068806840F480402168886027E0EA682A
:102880006968206801F0D2FE5021206801F0E8FD5F
:102890001DE0EA686968206801F0DBFE60212068BD
:1028A00001F0DEFD13E0EA686968206801F0BEFE11
:1028B0004021206801F0D4FD09E000BF00BF00BF47
:1028C0002968206801F0CCFD01E0012700BF00BFAE
:1028D000012084F83D0000BF002084F83C0000BFC8
:1028E000384684E7704770B504462068C56820689C
:1028F000066906F00200022819D105F0020002283C
:1029000015D1401F21680861012020772068806967
:1029100000F0030018B12046FFF7E4FF05E0204671
:1029200000F097F8204600F04BF90020207706F0E1
:102930000400042819D105F00400042815D1C0436F
:1029400021680861022020772068806900F44070C7
:1029500018B12046FFF7C6FF05E0204600F079F8E1
:10296000204600F02DF90020207706F00800082806
:1029700019D105F00800082815D1C0432168086165
:10298000042020772068C06900F0030018B12046B9
:10299000FFF7A8FF05E0204600F05BF8204600F0B6
:1029A0000FF90020207706F01000102819D105F04B
:1029B0001000102815D1C043216808610820207735
:1029C0002068C06900F4407018B12046FFF78AFF04
:1029D00005E0204600F03DF8204600F0F1F8002028
:1029E000207706F0010048B105F0010030B16FF02A
:1029F000010021680861204600F06AF906F08000B5
:102A0000802809D105F08000802805D1C0432168C5
:102A100008612046FFF7CCFD06F04000402809D1B0
:102A200005F04000402805D1C043216808612046D8
:102A300000F062F906F02000202809D105F02000FE
:102A4000202805D1C043216808612046FFF7B1FD69
:102A500070BD70472DE9F04104460D46164600272B
:102A600000BF94F83C00012802D10220BDE8F081AB
:102A7000012084F83C0000BF36B1042E1BD0082E84
:102A800031D00C2E5ED145E02946206801F0F2FCE1
:102A90002068806940F008002168886120688069AA
:102AA00020F0040021688861206880692969084352
:102AB0002168886148E02946206801F013FD2068FC
:102AC000806940F40060216888612068806920F492
:102AD00080602168886120688069296940EA012056
:102AE0002168886130E02946206801F039FD2068BE
:102AF000C06940F008002168C8612068C06920F002
:102B000004002168C8612068C069296908432168F8
:102B1000C86119E02946206801F05EFD2068C0699F
:102B200040F400602168C8612068C06920F48060BA
:102B30002168C8612068C069296940EA01202168CC
:102B4000C86101E0012700BF00BF00BF002084F87A
:102B50003C0000BF384689E710B504460CB9012097
:102B600010BD94F83D0028B9002084F83C002046B0
:102B700000F025F8022084F83D00211D206801F0B6
:102B8000E3FB012084F8460000BF84F83E000121E9
:102B90003F200155402001554120015500BF00BF95
:102BA000012084F84200432001554420015545206E
:102BB000015500BF012084F83D000020D0E7704798
:102BC0007047000070B504460D4615B994F83E00F4
:102BD0000BE0042D02D13F20005D06E0082D02D15C
:102BE0004020005D01E04120005D012801D001206E
:102BF00070BD1DB9022084F83E000EE0042D03D103
:102C000002213F20015508E0082D03D10221402078
:102C1000015502E002214120015501222946206888
:102C200001F002FC23492068884203D02249206831
:102C3000884201D1012000E0002028B12068406CCA
:102C400040F40040216848641A49206888421BD03B
:102C50002068B0F1804F17D018492068884213D0FF
:102C60001749206888420FD01649206888420BD047
:102C700011492068884207D013492068884203D050
:102C80001249206888420CD12068806800F007064D
:102C9000062E0CD02068006840F001002168086012
:102CA00005E02068006840F001002168086000200D
:102CB0009EE70000000001400004014000040040C5
:102CC00000080040000C0040004001400018004097
:102CD00010B5044606492068884201D101F06CF81D
:102CE00004492068884201D1FEF79EFD10BD000016
:102CF000000400400000014070477047704700002A
:102D00002DE9F84F0446206805682068C6682068E9
:102D100047694FF00009CA4605F00F09B9F1000FE5
:102D20000AD105F0200038B106F0200020B120467D
:102D300001F0F2FCBDE8F88FB9F1000F7CD007F08C
:102D4000010018B906F49070002875D005F0010054
:102D500030B106F4807018B1606C40F0010060641E
:102D600005F0040030B107F0010018B1606C40F0CC
:102D70000200606405F0020030B107F0010018B1F4
:102D8000606C40F00400606405F0080048B106F093
:102D9000200010B907F0010018B1606C40F0080085
:102DA0006064606C002846D005F0200028B106F071
:102DB000200010B1204601F0AFFC20684069C0F34C
:102DC000801A606C00F0080010B9BAF1000F2DD025
:102DD000204601F05BFC2068406900F0400040287C
:102DE00020D100BF00BF2168143151E8001F21F03D
:102DF00040002168143141E80002002AF3D100BFED
:102E0000E06B50B17F48E16B0865E06BFEF760FA5C
:102E100088B1E06B016D88470DE02046FFF76EFF3B
:102E200009E009E02046FFF769FF04E02046FFF7CC
:102E300065FF002060647DE7206B012878D105F0F4
:102E40001000002874D006F010000028FAD000BF4F
:102E50000020009020680068009020684068009082
:102E600000BF00BF2068406900F04000402870D1DA
:102E7000E06B006840681FFA80F8B8F1000F58D086
:102E8000A08D404555DDA4F82E80E06BC069B0F5FB
:102E9000807F43D000BF00BF21680C3151E8001F84
:102EA00021F4807021680C3141E80002002AF3D13E
:102EB00000BF00BF00BF2168143151E8001F21F09E
:102EC00001002168143141E80002002AF3D100BF5B
:102ED00000BF00BF2168143151E8001F21F04000FD
:102EE0002168143141E80002002AF3D100BF2020FC
:102EF00084F842000020206300BF00BF21680C312D
:102F000051E8001F21F0100021680C3141E8000257
:102F1000002AF3D100BFE06BFEF784F90220606362
:102F2000A08DE28D801A81B22046FFF7E6FE0EE00A
:102F300052E0A08D40450AD1E06BC069B0F5807FBA
:102F400005D102206063A18D2046FFF7D6FEF1E691
:102F5000FFE7A08DE18D401A1FFA80F8E08DD0B315
:102F6000B8F1000F37D000BF00BF21680C3151E825
:102F7000001F21F4907021680C3141E80002002A02
:102F8000F3D100BF00BF00BF2168143151E8001F1A
:102F900021F001002168143141E80002002AF3D138
:102FA00000BF202084F842000020206300BF00BF43
:102FB00021680C3151E8001F21F0100021680C310C
:102FC00041E80002002AF3D100BF022060634146BD
:102FD0002046FFF792FEADE605F0800030B106F026
:102FE000800018B1204601F02BFDA3E605F040005B
:102FF00030B106F0400018B1204601F07DFB99E6A3
:1030000000BF97E67B46000810B504460CB90120C6
:1030100010BDA06900B100E000BF94F8410028B9DC
:10302000002084F84000204600F02AF8242084F88C
:1030300041002068C06820F400502168C860204624
:1030400001F0E8FB2068006920F4904021680861E5
:103050002068406920F02A00216848612068C06823
:1030600040F400502168C86000206064202084F88B
:10307000410084F842000020606300BFC8E7000000
:1030800010B586B00446142101A8FDF743F91F4985
:103090002068884238D100BF002000901C4800689A
:1030A00040F010001A4908600846006800F010005F
:1030B000009000BF00BF00BF0020009014481438EB
:1030C000006840F0010012491439086008460068A1
:1030D00000F00100009000BF00BF4FF4C0600190FD
:1030E0000220029000200390032004900720059006
:1030F00001A90848FEF75EF9002204212520FEF709
:103100004BFC2520FEF734FC06B010BD001001403A
:10311000443802400000024070472DE9F84F044651
:103120000E46174699464FF0000A94F841002028B1
:1031300050D106B117B90120BDE8F88F00206064B6
:10314000212084F84100FEF73DFA8246A784E784F7
:10315000A068B0F5805F04D1206910B90025B046A1
:1031600002E035464FF000081EE053460022802161
:103170002046CDF8009001F093FC20B1202084F887
:1031800041000320D8E745B9B8F80000C0F30800B3
:103190002168486008F1020803E028782168486047
:1031A0006D1CE08C401EE084E08C0028DDD153468D
:1031B000002240212046CDF8009001F071FC20B1A2
:1031C000202084F841000320B6E7202084F8410045
:1031D0000020B1E70220AFE7704700BFFEE770476D
:1031E0002DE9F04107460C4615461E462A2000F000
:1031F00049F9384600F036F9284600F033F92B201B
:1032000000F040F904F1140188B200F02BF906F146
:10321000140188B200F026F92C2000F033F9BDE843
:10322000F08100002DE9FF5F04460D4616461F465B
:10323000DDF83880CDF80C80301B791B00FB01FBDA
:10324000012002903B46324629462046FFF7C8FF40
:103250004FEA2820019008F0FF000090301B401C2E
:10326000791B491C00FB01F9002220211248FEF7BE
:10327000A3F90122D1031148FEF79EF94FF0000A8D
:103280000FE04FF0FF33012201A90D48FFF730F89E
:103290004FF0FF33012269460948FFF729F80AF188
:1032A000010ABAEB490FECD3012220210248FEF7B4
:1032B00083F9BDE8FF9F00000008024000040240BF
:1032C0009403002010B500224FF400516348FEF72C
:1032D00073F9642002F05FFD012251035F48FEF79D
:1032E0006BF9642002F057FD012291035C48FEF760
:1032F00063F9642002F04FFD112000F0C3F878203C
:1033000002F049FD362000F0BDF8002000F0B3F8CF
:103310003A2000F0B7F8052000F0ADF8B22000F038
:10332000B1F80C2000F0A7F80C2000F0A4F8002061
:1033300000F0A1F8332000F09EF8332000F09BF855
:10334000B72000F09FF8352000F095F8BB2000F082
:1033500099F8322000F08FF8C22000F093F8012095
:1033600000F089F8C32000F08DF8152000F083F8F4
:10337000C42000F087F8202000F07DF8C62000F07F
:1033800081F80F2000F077F8D02000F07BF8A4201F
:1033900000F071F8A12000F06EF8E02000F072F863
:1033A000D02000F068F8082000F065F80E2000F04A
:1033B00062F8092000F05FF8092000F05CF80520B1
:1033C00000F059F8312000F056F8332000F053F89F
:1033D000482000F050F8172000F04DF8142000F0BD
:1033E0004AF8152000F047F8312000F044F8342066
:1033F00000F041F8E12000F045F8D02000F03BF863
:10340000082000F038F80E2000F035F8092000F010
:1034100032F8092000F02FF8152000F02CF83120A8
:1034200000F029F8332000F026F8482000F023F8B7
:10343000172000F020F8142000F01DF8152000F0EF
:103440001AF8312000F017F8342000F014F8212089
:1034500000F018F8292000F015F810BD0010024007
:103460000004024010B50446201200F01FF8E0B23C
:1034700000F01CF810BD10B50446204600F016F808
:1034800010BD000010B5044600224FF4004106486C
:10349000FEF792F8204600F009F80122D103024815
:1034A000FEF78AF810BD00000004024001B50022BA
:1034B00020210748FEF780F8012269460548FEF7FB
:1034C000F7FF012220210248FEF776F808BD000030
:1034D00000080240940300201FB5002000900190D6
:1034E000029003901548164908604FF480304860F8
:1034F0000021134881600161017680F82010C162CB
:10350000104981620021C1600121C161002180F860
:10351000301001214161FDF703FD08B1FDF720FCEA
:103520000120009001900020029069460448FDF7B8
:103530002DFC08B1FDF714FC1FBD00000020014068
:10354000F80200200100000F00B595B01C221249BE
:103550000EA8FCF7C6FE00210EA802F019FE0F49C6
:1035600008601C220C491C3107A8FCF7BAFE002198
:1035700007A802F00DFE0A4908601C2206493831EE
:103580006846FCF7AEFE0021684602F001FE0549E0
:10359000086015B000BD00001C7100080800002084
:1035A0000C0000201000002000B587B0142102A8F4
:1035B000FCF7B0FE00BF002001906D48006840F0AD
:1035C00010006B4908600846006800F01000019088
:1035D00000BF00BF00BF002001900846006840F017
:1035E000040008600846006800F00400019000BF75
:1035F00000BF00BF002001900846006840F0800036
:1036000008600846006800F08000019000BF00BF1D
:1036100000BF002001900846006840F001000860EB
:103620000846006800F00100019000BF00BF00BF25
:10363000002001900846006840F00200086008463B
:10364000006800F00200019000BF00BF00BF002032
:1036500001900846006840F00800086008460068CD
:1036600000F00800019000BF00BF002242F20801F4
:103670004048FDF7A1FF002220213F48FDF79CFFB5
:1036800000224FF441413D48FDF796FF00224FF4E0
:1036900040513B48FDF790FF42F2080002900120A4
:1036A000039000200490059002A93248FDF782FEA5
:1036B000202002900120039000200490059002A990
:1036C0002D48FDF777FE40F2022002900020039083
:1036D000049002A92948FDF76DFE4FF44140029085
:1036E0000120039000200490059002A92348FDF7D3
:1036F00061FE4FF48060029000200390049002A9C4
:103700001F48FDF757FE4FF48050029002200390AF
:103710000020049005900220069002A91848FDF7A9
:1037200049FE4FF4005002900120039000200490C5
:10373000059002A91248FDF73DFE4FF480700290FB
:1037400000200390049002A90E48FDF733FE0122E9
:1037500051030848FDF730FF0122D1030748FDF768
:103760002BFF012220210448FDF726FF07B000BDF2
:1037700030380240001002400008024000040240BD
:10378000000C02400000024010B50B480B490860D5
:103790000B484860002109488160C1604FF48041B6
:1037A0000161002141618161C1610162FDF710FF8A
:1037B00008B1FDF7D5FA10BD0054004040030020C9
:1037C000A086010010B5002205211D20FEF7E4F8B7
:1037D0001D20FEF7CDF810BD10B50E480E4908604B
:1037E0004FF48270486000210B488160C160016124
:1037F00041614FF4007181610021C1610162416248
:1038000081620A21C162FEF7CAFC08B1FDF7A8FA7D
:1038100010BD0000003001409403002000B587B0C7
:1038200000200390049005900690019002901448A7
:10383000144908604720486000211248816041F225
:103840008831C160002101618161FEF70DFF08B17F
:10385000FDF786FA4FF48050039003A90948FEF75C
:10386000BBFF08B1FDF77CFA00200190029001A98E
:103870000448FEF79FFE08B1FDF772FA07B000BDDD
:1038800000040040EC03002000B58DB0002009903A
:103890000A900B900C90079008901C216846FCF74A
:1038A00039FD1E481E4908605320486000211C480D
:1038B000816040F2E731C160002101618161FEF762
:1038C000D3FE08B1FDF74CFA4FF48050099009A9D6
:1038D0001348FEF781FF08B1FDF742FA1048FFF7E1
:1038E0003BF908B1FDF73CFA00200790089007A9C2
:1038F0000B48FEF75FFE08B1FDF732FA602000903A
:103900000020019002900490002269460448FFF7CD
:10391000A1F808B1FDF724FA0DB000BD0008004081
:103920003404002010B50B480B4908604FF4E13017
:103930004860002108488160C16001610C2141613B
:1039400000218161C161FFF75FFB08B1FDF708FA53
:1039500010BD0000001001407C04002000BFFEE705
:1039600000BFFEE710B52DED088B54484068401CA1
:1039700052494860084600780B2872D2DFE800F010
:10398000060A0B0C0D1112132263800000204B4914
:1039900048738FE000BF00BF00BF01204749487354
:1039A00088E000BF00BF45484068322809D343483B
:1039B000407B08B9012000E0002040494873002006
:1039C000486077E03D484068C821B0FBF1F201FB58
:1039D000120000EE100AB8EE400ADFED390A80EE60
:1039E000201AB0EE000A21EE000ADFED360A20EEC2
:1039F000200A10EE104A2046FCF738FE41EC1B0B63
:103A0000B0EE4B0AF0EE6B0A01F0DEF8B0EE40AA21
:103A1000F0EE60AA9FED2C0B53EC102B51EC1A0B1F
:103A2000FCF72AFD41EC190B9FED290B53EC102BF1
:103A3000FCF77BFC41EC180BFCF7FFFD1F490873FA
:103A40000120487336E01D4949684FF41672B1FBF6
:103A5000F2F302FB1310C82804D24621174A11734F
:103A60000AE023E0B0F5C87F03D23221134A117374
:103A700002E05A21114A11730121104A517319E0D1
:103A80000E4840681E2810D30C48807B08B90120DE
:103A900000E0002009498873012048730020486035
:103AA0000846817B0CA001F04BF803E0002003499D
:103AB000487300BF00BFBDEC088B10BD9400002010
:103AC00000004843D00F49400000000000804840FB
:103AD0000000000000004940537769746368207457
:103AE0006F204C45442025640D0A000010B50020CD
:103AF0000C490870487000210A488170C17000208C
:103B000008494860642088603220087300204873A8
:103B1000887300F0BDF80448FEF70AFE03A001F028
:103B20000FF810BD94000020EC0300205247422003
:103B30004C454420696E697469616C697A61746985
:103B40006F6E20636F6D706C657465640D0A0000A4
:103B500010B51C480068401C1A49086008460068F7
:103B6000642801D300200860002417480078052845
:103B700014D2DFE800F003050607080000241BE06C
:103B800000BF00BF00BF1048007B0E490968884293
:103B900001D9012000E0002004460DE00A48007B26
:103BA00008490968884204D90748407B08B10120C8
:103BB00000E00020044600BF00BF204600F068F887
:103BC00010BD0000000000209400002010B5044645
:103BD000642C05DC03480473214603A000F0B0FF09
:103BE00010BD0000940000205247422062726967B5
:103BF00068746E6573732073657420746F3A202542
:103C00006425250D0A00000070B504460E461546D1
:103C1000054844708670C5702B463246214603A085
:103C200000F08EFF70BD000094000020524742203B
:103C3000636F6C6F722073657420746F3A20523D0D
:103C400025642C20473D25642C20423D25640D0A27
:103C50000000000010B504460B2C08DA044804707C
:103C6000002003494860214602A000F069FF10BD12
:103C700094000020524742204C4544206D6F6465FB
:103C80002073657420746F3A2025640D0A000000CB
:103C900010B504462CB1012251030548FDF78CFCF8
:103CA00005E000224FF400510148FDF785FC10BDEE
:103CB000000C024010B588B026A000F041FFFFF7CD
:103CC00015FF2CA103C9CDE9060118222B4968462E
:103CD000FCF707FB002432E05DF8241028A000F078
:103CE0002FFF06A9085DFFF7B5FF06A8005D0128B4
:103CF00006D002280BD003280FD0052813D100E0EE
:103D000000BF00221146FF20FFF77EFF11E00022D6
:103D1000FF211046FFF778FF0BE0FF220021084645
:103D2000FFF772FF05E0FF2211461046FFF76CFF18
:103D300000BF00BF40F6B830FDF728FB641C062C1E
:103D4000CAD30020FFF786FF12A000F0F9FE08B0EA
:103D500010BD00000D0A3D3D3D20524742204C451C
:103D6000442054657374205374617274203D3D3D4A
:103D70000D0A000001020305080A00000471000892
:103D800054657374696E67206D6F64653A2025739E
:103D90000D0A00003D3D3D20524742204C45442045
:103DA0005465737420436F6D706C65746564203D59
:103DB0003D3D0D0A0D0A000010B5FFF7C9FE07488A
:103DC0000068401C05490860084600680A2803D3BB
:103DD00000200860FFF7C6FD10BD000004000020B1
:103DE00070B50546AC6B2068406820F00300216880
:103DF0004860606D40F010006065012084F851005B
:103E00002046FEF7CBF970BD70B50446A56B284679
:103E1000FEF7CDFB70BDF8B50546AC6BFDF7D2FBE8
:103E200006462868006800F48070B0F5807F2DD0C9
:103E30002068406820F020002168486020684068C1
:103E400020F002002168486032466421204600F0DC
:103E500023F818B1606D40F020006065A06850B98B
:103E600000BF002000902068C06800902068806833
:103E7000009000BF00BF0020E086012084F85100C0
:103E8000606D18B12046FEF789F9F8BD2046FEF7AF
:103E90008DFB00BFF9E700007CB504460E461546D1
:103EA0003346012202212046009500F039F828B15E
:103EB000606D40F02000606503207CBD16480068FE
:103EC0001821B0FBF1F01549B0FBF1F04FF47A7115
:103ED000484301906068B0F5827F0DD133460022DF
:103EE00080212046009500F01BF898B1606D40F0ED
:103EF000200060650320E0E700BF019800B908E0FA
:103F00000198401E019020688068C0F3C01000280E
:103F1000F3D100BF0020D0E72000002040420F0076
:103F20002DE9F84F04460D4690461E46DDF82890D0
:103F3000FDF748FBA0EB0900371AFDF743FB82466B
:103F40002C480068C0F3CB307843009046E0701CEA
:103F5000002843D0FDF736FBA0EB0A00B84200D2A0
:103F6000A7BB2068406820F0E000216848606068D6
:103F7000B0F5827F0DD1A068B0F5004F03D0A068E6
:103F8000B0F5806F05D12068006820F040002168FE
:103F90000860A06AB0F5005F0DD100BF206800681E
:103FA00020F40050216808602068006840F4005048
:103FB0002168086000BF012084F8510000BF002084
:103FC00084F8500000BF0320BDE8F88FFFE7009899
:103FD00008B9002702E00098401E00902068806821
:103FE0002840A84201D1012000E000204045AED188
:103FF0000020E9E7200000202DED0A8B2BA000F027
:104000009FFD00213248FEF7DDFD9FED320AB0EE44
:10401000408A00BF00BF00BF00BF18EE100AFCF7C7
:1040200025FB41EC1C0BB0EE4C0AF0EE6C0A00F0E4
:10403000CBFDB0EE40BAF0EE60BA9FED270B53EC2B
:10404000102B51EC1B0BFCF770F941EC1A0B9FED98
:10405000240B53EC102BFCF781FA41EC190BFCF705
:1040600018FB08EE900A9FED200A28EE800ABCEEAD
:10407000C00A10EE100A00F10A04154800684463F3
:104080009FED1A0A38EE000AB0EE408A9FED180A3A
:10409000B4EEC08AF1EE10FA03DB9FED0E0AB0EE2B
:1040A000408A322002F059F8B7E7000050574D20FF
:1040B000427265617468696E67204C454420746182
:1040C000736B20737461727465640D0A00000000E4
:1040D0003404002000000000000000000000F03F59
:1040E000000000000000004000804544CDCC4C3D65
:1040F000DB0FC94000BF012002F02FF8FBE70000F2
:104100008CB039A000F01CFDFFF7F0FC4FF4FA6012
:1041100002F023F83AA207CA09AB07C324223B499D
:104120006846FCF7DEF8002402F028F8054600BFD8
:1041300002F024F8401B41F28831884250D35DF8E8
:10414000241033A000F0FCFC09A9085DFFF782FDF4
:1041500009A8005D0B2838D2DFE800F03706101AF6
:104160003707111B242A2E0000BF00221146FF2012
:10417000FFF74AFD5020FFF729FD27E000BF00228E
:10418000FF211046FFF740FD3C20FFF71FFD1DE01B
:1041900000BFFF2200210846FFF736FD4620FFF74B
:1041A00015FD13E0FF2211461046FFF72DFD0DE02F
:1041B0004B20FFF70BFD09E000226421FF20FFF7F1
:1041C00023FD5A20FFF702FD00E000BF00BF601C86
:1041D0000921B0FBF1F201FB120401F0CFFF05460B
:1041E000642001F0BAFFA3E7524742204C45442027
:1041F0007461736B20737461727465640D0A0000DE
:1042000001020305060708090A0000007071000892
:10421000537769746368696E6720524742206D6FF7
:1042200064653A2025730D0A0000000010B500BF38
:10423000502080F31188BFF34F8FBFF36F8F00BF03
:1042400002F03AFE18B14FF080500449086000BFF8
:10425000002080F3118800BF10BD000004ED00E0D5
:1042600000B593B0302107A8FCF754F8142102A838
:10427000FCF750F800BF002001902448006840F08F
:104280008050224908600846006800F08050019084
:1042900000BF00BF00BF002001901D48006840F42F
:1042A00080401B4908600846006800F48040019087
:1042B00000BF00BF012007900004089002200D906D
:1042C00041050E9104210F91A82110910221119115
:1042D0000421129107A8FDF713FD08B1FCF740FD7A
:1042E0000F20029002200390002004904FF4A05071
:1042F00005904FF480500690052102A8FDF79EFB23
:1043000008B1FCF72DFD13B000BD0000403802409D
:10431000007000400348006840F4700001490860E4
:104320007047000088ED00E010B50248FEF7DBFAA8
:1043300010BD0000C404002010B50248FEF7D3FAF7
:1043400010BD0000EC03002010B502682B4B984212
:104350000ED0B0F1804F0BD0294B984208D0294B9A
:10436000984205D0284B984202D0284B984203D15E
:1043700022F070024B681A43204B984220D0B0F1D3
:10438000804F1DD01E4B98421AD01E4B984217D01A
:104390001D4B984214D01D4B984211D01C4B984293
:1043A0000ED01C4B98420BD01B4B984208D01B4B95
:1043B000984205D01A4B984202D01A4B984203D12A
:1043C00022F44072CB681A4322F080034C6943EA1E
:1043D00004028B68C3620B688362084B984202D068
:1043E0000A4B984201D10B690363036843F004034D
:1043F000036001234361026010BD00000000014022
:104400000004004000080040000C0040000401408F
:1044100000400140004401400048014000180040B5
:10442000001C00400020004030B501F01F050124B1
:1044300004FA05F3046A9C430462046A01F01F0550
:1044400002FA05F52C43046230BD30B50C46816894
:1044500021F47F4142EA032525432943816030BD91
:104460000A46816821F0700142F007031943816018
:104470007047000030B5026A056A25F00105056243
:104480004368846924F0700424F003040D682C430D
:1044900022F002028D682A43104DA84200D103E0A9
:1044A0000F4DA84206D100BF22F00802CD682A4372
:1044B00022F00402094DA84202D0094DA84207D1BA
:1044C00023F4807323F400734D692B438D692B43D0
:1044D000436084614D684563026230BD0000014065
:1044E0000004014030B5026A056A25F01005056236
:1044F0004368846924F4E04424F440740D6844EA79
:10450000052422F020028D6842EA0512124DA842CD
:1045100000D103E0114DA84207D100BF22F0800274
:10452000CD6842EA051222F040020B4DA84202D0AB
:104530000A4DA84209D123F4806323F400634D6936
:1045400043EA85038D6943EA8503436084614D68CE
:104550008563026230BD000000000140000401409C
:1045600030B5026A056A25F4807505624368C4693E
:1045700024F0700424F003040D682C4322F400722C
:104580008D6842EA0522124DA84200D103E0114D88
:10459000A84207D100BF22F40062CD6842EA05229A
:1045A00022F480620A4DA84202D00A4DA84209D1E5
:1045B00023F4805323F400534D6943EA05138D69B6
:1045C00043EA05134360C4614D68C563026230BDB0
:1045D000000001400004014030B5036A056A25F47B
:1045E000805505624468C26922F4E04222F44072B8
:1045F0000D6842EA052223F400538D6843EA05332F
:10460000084DA84202D0084DA84204D124F48044A9
:104610004D6944EA85144460C2614D6805640362D3
:1046200030BD0000000001400004014030B50B46E1
:104630001446026A056A25F001050562816921F0C8
:10464000F00141EA041122F00A021A438161026278
:1046500030BD30B50B461446026A056A25F01005D8
:104660000562816921F4704141EA043122F0A0021F
:1046700042EA03128161026230BD70B50446A56B47
:104680000020E8852846FEF739FB70BD00BF00BF5B
:1046900002680C3252E8002F22F4907102680C324A
:1046A00042E80013002BF3D100BF00BF00BF026837
:1046B000143252E8002F22F001010268143242E85D
:1046C0000013002BF3D100BF016B01290ED100BFF5
:1046D00000BF02680C3252E8002F22F0100102687D
:1046E0000C3242E80013002BF3D100BF202180F8E8
:1046F000421000210163704710B504462068C0686D
:1047000020F040002168C860202084F84100204645
:10471000FEF762FD002010BDF8B504460025002616
:1047200094F84200222873D1A068B0F5805F0BD1C5
:10473000206948B9A66A20684068C0F30800308044
:10474000A06A801CA06214E0A56AA068B0F5805F32
:1047500003D0A06828B9206918B92068406828707B
:1047600004E02068406800F07F002870A06A401CC8
:10477000A062E08D401E80B2E085002846D120680E
:10478000C06820F020002168C8602068C06820F45C
:1047900080702168C8602068406920F001002168AD
:1047A0004861202084F8420000206063206B0128CB
:1047B00026D10020206300BF00BF21680C3151E8E2
:1047C000001F21F0100021680C3141E80002002A8E
:1047D000F3D100BF2068006800F0100010280AD153
:1047E00000BF0020009020680068009020684068AA
:1047F000009000BF00BFA18D2046FEF77EFA02E0C8
:104800002046FEF789FC0020F8BD01E00020FBE710
:104810000220F9E72DE9F84F04462068006920F4EA
:104820004050E1680843216808612169A068084395
:1048300061690843E169084300902068C06849F253
:104840000C618843009908432168C860206840696A
:1048500020F44070A16908432168486176492068C6
:10486000884203D075492068884203D1FDF7E0F9FA
:10487000814602E0FDF7CCF98146E069B0F5004FD2
:104880006CD102206168A0FB015003461920A9FBEE
:10489000007001462A463846FBF7F2FC6421B0FB63
:1048A000F1F04FEA001A02206168A0FB01510B46AB
:1048B0001920A9FB00712A463846FBF7E1FC834624
:1048C00002206168A0FB015003461920A9FB00717A
:1048D0002A463846FBF7D4FC6421B0FBF1F000EB2C
:1048E000C00101EB0010ABEB8000322101EBC000F6
:1048F0006421B0FBF1F000F0F8000AEB400A02205E
:104900006168A0FB015003461920A9FB0070014615
:104910002A463846FBF7B4FC834602206168A0FBB8
:10492000015003461920A9FB00712A463846FBF7BF
:10493000A7FC6421B0FBF1F000EBC00101EB00101B
:10494000ABEB8000322101EBC0006421B0FBF1F041
:1049500000F007005044216888606AE00420616824
:10496000A0FB015003461920A9FB007001462A460E
:104970003846FBF785FC824604206168A0FB0150A5
:1049800003461920A9FB007001462A463846FBF76A
:1049900077FC6421B0FBF1F000EBC00101EB0010EB
:1049A000AAEB8000322101EB00106421B0FBF1F092
:1049B00000F0F00A04206168A0FB01700346192092
:1049C000A9FB00513A462846FBF75AFC6421B0FB8C
:1049D000F1F00AEB001A04206168A0FB01510B46BC
:1049E0001920A9FB00712A463846FBF749FC83468B
:1049F00004206168A0FB015003461920A9FB007048
:104A000001462A463846FBF73BFC6421B0FBF1F037
:104A100000EBC00101EB0010ABEB8000322101EB99
:104A200000106421B0FBF1F000F00F005044216849
:104A30008860BDE8F88F00000010014000140140BC
:104A4000014691F84100212828D18868B0F5805F9F
:104A50000BD1086948B90A6A1088C0F308000B68CE
:104A60005860086A801C086205E00B6A581C0862DE
:104A700018780B685860C88C401E80B2C88458B93A
:104A80000868C06820F080000B68D8600868C068BB
:104A900040F040000B68D860002070470220FCE71F
:104AA0002DE9F84304460D4617469846089E31E026
:104AB000701C70B3FCF786FDA0EB0800B04200D874
:104AC00016B90320BDE8F8832068C06800F0040030
:104AD000F8B1802D1ED0402D1CD020680068C0F396
:104AE000C000B0B100BF00200090206800680090B6
:104AF00020684068009000BF00BF2046FFF7C6FD59
:104B00000820606400BF002084F8400000BF01203E
:104B1000D8E7FFE7206800682840A84201D10120BB
:104B200000E00020B842C3D00020CBE710B5024817
:104B3000FEF7E6F810BD00007C04002000BFFEE791
:104B40000FB4054B10B503A9044A029800F08CFD80
:104B500010BC5DF814FB0000BD5D00088C00002057
:104B600003B401984100009850EAC12018BF042006
:104B70004A0D18BF40F0010040F2FF72B2EB515FE6
:104B800008BF40F00200012808BF052002B07047AE
:104B900002480068C0F30220704700000CED00E0FE
:104BA00010B5002804DB0A07130E054A135406E06B
:104BB0000A07140E034A00F00F031B1FD45410BD44
:104BC00000E400E018ED00E010B52F499FED2C1B2C
:104BD0002DED020B84B0059820F000408842DCBF28
:104BE00000209DED040B32DD2849884209D104984C
:104BF00040B94FF0010000F06FFC00F03DFC06B042
:104C000010BD05DB9DED040B00F02AFC06B010BDC5
:104C100068469DED040B00F03BF810F0030011D046
:104C2000012818D09DED021B9DED000B02281AD023
:104C300000F04AFA51EC100B81F0004106B041EC53
:104C4000100B10BD9DED021B9DED000B012000F02F
:104C50006FFB06B010BD9DED021B9DED000B00F03B
:104C600033FA06B010BD012000F062FB51EC100BCE
:104C700081F0004106B041EC100B10BD00000000B7
:104C80000000000000000000FB21E93F0000F07F71
:104C90002DE9F14F04462DED020B2DED088B8AB066
:104CA0009FEDE70B80ED020B139EE74826F00045D1
:104CB00085420ADC9DED120B002084ED000B0AB04A
:104CC000BDEC088B03B0BDE8F08FE0489FEDE0AB92
:104CD0009FEDE1BBA84247DDE14F9FEDE39B9FEDD8
:104CE000E48B9DED120B53EC1A2B51EC100B002EA4
:104CF0001CDDFBF7BBFB41EC100BBD4208D053ECB5
:104D00001B2B51EC100BFBF7B1FBC4E900010BE0CE
:104D100053EC192B51EC100BFBF7A8FB53EC182BA1
:104D2000FBF7A4FBC4E900010120C8E7FBF7FDFA8B
:104D300041EC100BBD4208D053EC1B2B51EC100B77
:104D4000FBF7F3FAC4E900010BE053EC192B51EC2B
:104D5000100BFBF7EAFA53EC182BFBF7E6FAC4E961
:104D600000014FF0FF30AAE7C348A84279DB9DED70
:104D7000120B51EC100B01F014F841EC180B9FEDE5
:104D8000C00B53EC102BFBF777FB9FEDBF1B53ECD5
:104D9000112BFBF7CAFAFBF7D3FD0746FBF7B2FD71
:104DA00041EC190B53EC1A2BFBF766FB53EC182B59
:104DB000FBF75FFB41EC180B53EC1B2B51EC190B71
:104DC000FBF75AFBDFF8C8A241EC100B4FEA15586D
:104DD0000125FA4453EC102B51EC180BFBF746FB62
:104DE000032DC4E900013DD0C1F30A5005EB451184
:104DF000A8EB00001139814234DA0AEB051BB0EE52
:104E000048AA9BED000BF0EE68AA53EC102B51EC76
:104E1000190BFBF731FB41EC1B0B51EC1A0B53EC5C
:104E20001B2BFBF723FB41EC180B51EC1A0B53EC3B
:104E3000182BFBF71BFB53EC1B2BFBF717FB9BED16
:104E4000020B41EC1A0B53EC102B51EC190BFBF736
:104E500013FB53EC1A2BFBF709FB41EC100B6D1CF9
:104E6000B8E70EE0002EA8BF3846BFF628AF94ED95
:104E7000000B51EC100B81F00041C4E900017842B5
:104E80001DE7C6F3130040F4801EC6F30A50A0F2DB
:104E9000F530471100F01F05C5F12000DDF848B0DE
:104EA00008900020069007900520EC467949002DD7
:104EB00007EB0002794408BF51F8221009D051F8DD
:104EC000223001EB8201AB404A68089922FA01F1D5
:104ED0001943A1FB0E26A1FB0B131A449A4234BFBF
:104EE0000123002303EB06080CEB8003D3E901A6A2
:104EF0000E448E4234BF0121002192448A4411B1F4
:104F0000924502D903E0924501D2012100E000213F
:104F1000C3E901A641444CF82010011EA0F1010094
:104F2000C4DC029800F10050850F0298DDE90367A8
:104F30008000DDF81480FBF7E5FC41EC1A0B3046ED
:104F4000FBF7F1FC9FED541B53EC112BFBF794FA8C
:104F500041EC1B0B3846FBF7E6FC9FED511B53EC75
:104F6000112BFBF789FA41EC180B4046FBF7DBFCF1
:104F70009FED4D1B53EC112BFBF77EFA41EC190B07
:104F800051EC180B53EC192BFBF7CFF953EC1B2BFF
:104F9000FBF7CBF953EC1A2BFBF7C7F9CDE9080166
:104FA000002008909DED080B53EC1A2B51EC100BD0
:104FB000FBF75CFA53EC1B2BFBF758FA53EC182B5E
:104FC000FBF754FA53EC192BFBF753FA9FED381B00
:104FD00053EC112BFBF750FA9FED370B41EC180BFC
:104FE00053EC102B9DED080B51EC100BFBF744FA22
:104FF00053EC182BFBF799F99FED310B41EC180B93
:1050000053EC102B9DED080B51EC100BFBF734FA11
:1050100053EC182BFBF789F941EC100B139810F0A7
:10502000004F06D06D4251EC100B81F0004141EC75
:10503000100B284684ED000B41E600000000000044
:105040000000000000000000FB21E93F7CD9024085
:1050500000004054FB21F93F3163621A61B4D03D36
:10506000FB21F93F000000000000601A61B4D03D50
:105070007370032E8A19A33BFB2139410000000005
:1050800083C8C96D305FE43F000000000000E03FCE
:105090000A24000058230000000000000000103E19
:1050A000000000000000103C000000000000103A6A
:1050B000182D4454FB21F93D3326A611460B113C13
:1050C00000000054FB21F93D10B52DED040B2DED32
:1050D000088B82B0B0EE419AF0EE619A0B9820F006
:1050E00000449FED4BABB4F1795F11DA9DED0A0BF3
:1050F00051EC100BFBF724FC002801BFB0EE4A0A6C
:10510000F0EE6A0A02B0BDEC088B04BF04B010BD1B
:105110009DED0A0B53EC102B51EC100BFBF7ACF987
:1051200041EC180B3C480621B0EE480AF0EE680A44
:10513000784400F081F853EC182B51EC100BFBF77E
:105140009BF99DED0A0B41EC1B0B53EC192B51EC19
:10515000100BFBF791F941EC190B53EC1B2B51ECA5
:10516000180BFBF789F953EC192BFBF77FF99FED2F
:105170002C0B41EC190B53EC102B51EC180BFBF7DB
:105180007BF941EC100B2848844210DA53EC192BC0
:1051900051EC100BFBF76AF953EC1A2BFBF769F98A
:1051A00041EC100B02B0BDEC088B04B010BD1F48E1
:1051B000A042BCBF9FED1E1B8DED001B06DBA4F5BE
:1051C00000100190002000909DED001B51EC100B91
:1051D00053EC112BFBF74AF99DED000B41EC180B3A
:1051E00053EC102B51EC1A0BFBF740F941EC1A0B66
:1051F00053EC192B51EC180BFBF738F953EC1A2B25
:10520000FBF737F941EC100BCCE700000000000081
:10521000000000000000F03F7C20000000000000C3
:10522000000000000000E03F3333D33F0000E93FBF
:10523000000000000000D23F70B504462DED028B47
:105240004D1E00EBC500B0EE408AF0EE608A90ED96
:10525000000B35F0060017D053EC182B51EC100B57
:10526000FBF70AF941EC100B6D1E04EBC50090ED45
:10527000001B51EC100B53EC112BFBF756F841ECD3
:10528000100B35F00600E7D1022D36D0042D1CD0CE
:10529000062D1CBFBDEC028B70BD53EC182B51ECDE
:1052A000100BFBF7E9F894ED0A1B53EC112BFBF7FD
:1052B0003CF853EC182BFBF7DFF894ED081B53EC8C
:1052C000112BFBF732F841EC100B53EC182B51EC7F
:1052D000100BFBF7D1F894ED061B53EC112BFBF7E9
:1052E00024F853EC182BFBF7C7F894ED040B53ECA0
:1052F000102BFBF71AF841EC100B53EC182B51EC68
:10530000100BFBF7B9F894ED021B53EC112BFBF7D4
:105310000CF853EC182BFBF7AFF894ED001B53EC93
:10532000112BFBF702F8BDEC028B41EC100B70BDAA
:1053300031B504462DED040B2DED0A8BB0EE41BACC
:10534000F0EE61BA0B989DED0A0B20F00040B0F131
:10535000795F0DDA51EC100BFFF702FC042808BF4F
:1053600000F09AF89DED0A0BBDEC0A8B05B030BD3C
:1053700053EC102B51EC100BFBF77EF841EC180BA3
:105380009DED0A0B53EC182B51EC100BFBF774F846
:1053900041EC190B2C48B0EE480AF0EE680A0521E2
:1053A0007844FFF749FF9FED2ACBB0EE40AAF0EE1C
:1053B00060AA9CB353EC1C2B51EC190BFBF75CF867
:1053C00041EC1C0B53EC1A2B51EC190BFBF754F866
:1053D0009FED210B41EC190B53EC102B51EC1B0BE7
:1053E000FBF74AF853EC192BFBF740F853EC182B5A
:1053F000FBF742F853EC1B2BFBF738F853EC1C2B54
:10540000FBF734F89DED0A1B53EC112BFBF731F839
:10541000BDEC0A8B05B041EC100B30BDFFE753EC3F
:105420001A2B51EC180BFBF727F853EC1C2BFAF74F
:105430007CFF53EC192BFBF71FF89DED0A1B53EC77
:10544000112BFAF772FFE3E7041F000000000000D1
:10545000495555555555C5BF000000000000E03FB7
:1054600010B553EC102B51EC100BFAF75EFF41EC2A
:10547000100B10BD000000009FED050B10B553ECA4
:10548000102B51EC100BFBF769F841EC100B10BD21
:1054900000000000000000009FED050B10B553EC6C
:1054A000102B51EC100BFAF7E7FF41EC100B10BD7D
:1054B000000000000000001002E008C8121F08C130
:1054C000002AFAD170477047002001E001C1121F85
:1054D000002AFBD1704700000149086070470000B6
:1054E000900000202DE9FF5F82B00021DDE904304B
:1054F000020DDDF840B0034318D044F61050A2F27C
:10550000FF3242431514119801281FD0A5EB0B0060
:10551000401C5FEA000A4FF000064E4FDFF838915A
:10552000B046504615D5CAF1000413E01198012485
:105530004AA3012801D16FEA0B010298119AC0E930
:105540000031C0E9024206B0BDE8F09FCBF1000097
:10555000DFE704460021404A491842EB0450CDE9F8
:10556000001012E0E00707D032463B46404649466D
:10557000FAF782FF8046894632463B461046194676
:10558000FAF77AFF06460F466410002CEAD1DDE9EF
:105590000401DDE90023BAF1000F06DAFAF76CFF27
:1055A00042464B46FAF768FF05E0FAF7D7FF424656
:1055B0004B46FAF7D3FF04460E460022284BFBF772
:1055C00077F903D84FF0FF30014607E00022254B62
:1055D00020463146FAF7A9FEFBF752F9102409E0FC
:1055E000002C0ADB0A220023FAF74AFE039B303222
:1055F0001A55641E50EA0102F2D1641C039AC4F1E8
:1056000011031444119A012A03D0012208430DD139
:105610000AE0084304D000204FF0110B119072E70C
:10562000A3EB0B056D1E0DE05B4504DD4FF00002A2
:1056300005F1010504E003DA4FF00002A5F10105D0
:10564000002AECD002981199C0E90231C0E9004566
:1056500079E70000000014400000F03F3000000037
:105660000000F0430000E03F2DE9FF4F95B09B465E
:105670008946064600250FE2252877D100242746D3
:10568000F84A0121059400E0044316F8013F203B4D
:1056900001FA03F01042F7D130782A2811D06FF0C8
:1056A0002F033078A0F13002092A16D8059A44F069
:1056B000020402EB820203EB42021044761C0590C6
:1056C000EFE759F8042B0592002A03DA504244F41C
:1056D0000054059044F00204761C30782E2816D130
:1056E00016F8010F44F004042A280DD06FF02F02A1
:1056F0003078A0F13003092B09D807EB870302EBC0
:105700004303C718761CF3E759F8047B761C3078FE
:105710006C280FD006DC4C2817D068280DD06A28DA
:1057200014D104E0742810D07A280FD10DE044F48D
:1057300000140AE044F4801401E044F44014727848
:10574000824202D104F58014761C761C30786628DB
:105750000BD013DC582877D009DC002875D04528F9
:10576000F6D04628F4D047281AD19DE118E06328E6
:1057700035D0642879D0652812D195E1702873D08E
:1057800008DC6728F1D069286FD06E280DD06F280B
:1057900006D1B5E073282CD0752875D0782874D040
:1057A0005A46179990476D1C75E1C4F302500228C0
:1057B00009D003280DD0D9F8001004280DD00D60B1
:1057C00009F1040967E1D9F80010EA17C1E90052AC
:1057D000F6E7D9F800100D80F2E70D70F0E719F840
:1057E000041B8DF8001000208DF80100EA4601200E
:1057F00003E059F804AB4FF0FF3061074FF00001B0
:1058000002D40DE008F101018846B9420FDA804563
:10581000F8DB1AF808100029F4D108E008F10101BA
:1058200088468142FADB1AF808100029F6D105985B
:105830005B46A0EB080721463846179A00F094FA19
:10584000284400EB080507E04DE029E10DE01AF8D7
:10585000010B5A4617999047B8F10108F7D25B46F9
:1058600021463846179A13E142E00A220092C4F317
:1058700002524FF0000A022A08D059F804CB032A3A
:105880004FEAEC710AD00DE029E02AE009F10701A6
:1058900021F00702F2E802C1914609E00FFA8CFC00
:1058A0004FEAEC71042A03D14FFA8CFC4FEAEC71F9
:1058B000002907DA0A460021DCF1000C61EB020145
:1058C0002D2202E0220504D52B228DF8042001228E
:1058D00003E0E20701D02022F7E7904659E00A21D1
:1058E00002E010220DE010214FF0000A00910BE0C1
:1058F00010224FF0000A44F004040827009203E04D
:1059000008224FF0000A0092C4F30252022A05D086
:1059100059F804CB0021032A08D009E009F1070156
:1059200021F00702F2E802C1914605E01FFA8CFC63
:10593000042A01D10CF0FF0C4FF00008220728D5F3
:10594000702806D0009B83F0100353EA0A0305D0A9
:105950000EE040228DF80420012208E05CEA0102FA
:1059600006D030228DF804208DF8050002229046E2
:10597000009B83F0080353EA0A030AD15CEA0102A0
:1059800001D1620705D530228DF804204FF00108BF
:105990007F1E582804D034A003900EA802900DE07A
:1059A00036A0F9E753466046009AFAF769FC844648
:1059B0000398825C0298401E029002705CEA01002B
:1059C000F0D1029806A9081A00F1200A600702D552
:1059D00024F4803400E00127574502DDA7EB0A00DC
:1059E00000E0002000EB0A01009005984144401AB5
:1059F0000590E00306D45B462146179A059800F00F
:105A0000B3F90544002706E001A85A46C05D17997E
:105A100090476D1C7F1C4745F6DBE0030CD55B46C9
:105A20002146179A059800F09FF9054404E03020BC
:105A30005A46179990476D1C0099481E00900029FE
:105A4000F5DC08E0029802995A460078491C029158
:105A5000179990476D1CBAF10001AAF1010AF1DC17
:105A600065E1000009280100303132333435363722
:105A7000383961626364656600000000303132339A
:105A8000343536373839414243444546000000003A
:105A900000F058F90544761C307800287FF4ECAD0E
:105AA00019B02846BDE8F08F620700D4062709F137
:105AB000070222F0070CFCE80223E14603F000484D
:105AC0005FEA080C02D00FF2702C0DE05FEA045C74
:105AD00002D50FF2682C07E05FEAC47C02D00FF217
